{
  "abi": [
    {
      "inputs": [
        {
          "internalType": "uint256",
          "name": "_defaultFeeBPS",
          "type": "uint256"
        },
        {
          "internalType": "address",
          "name": "feeManagerAdmin",
          "type": "address"
        }
      ],
      "stateMutability": "nonpayable",
      "type": "constructor"
    },
    {
      "anonymous": false,
      "inputs": [
        {
          "indexed": true,
          "internalType": "address",
          "name": "",
          "type": "address"
        },
        {
          "indexed": true,
          "internalType": "uint256",
          "name": "",
          "type": "uint256"
        }
      ],
      "name": "FeeOverrideSet",
      "type": "event"
    },
    {
      "anonymous": false,
      "inputs": [
        {
          "indexed": true,
          "internalType": "address",
          "name": "previousOwner",
          "type": "address"
        },
        {
          "indexed": true,
          "internalType": "address",
          "name": "newOwner",
          "type": "address"
        }
      ],
      "name": "OwnershipTransferred",
      "type": "event"
    },
    {
      "inputs": [
        {
          "internalType": "address",
          "name": "mediaContract",
          "type": "address"
        }
      ],
      "name": "getZORAWithdrawFeesBPS",
      "outputs": [
        {
          "internalType": "address payable",
          "name": "",
          "type": "address"
        },
        {
          "internalType": "uint256",
          "name": "",
          "type": "uint256"
        }
      ],
      "stateMutability": "view",
      "type": "function"
    },
    {
      "inputs": [],
      "name": "owner",
      "outputs": [
        {
          "internalType": "address",
          "name": "",
          "type": "address"
        }
      ],
      "stateMutability": "view",
      "type": "function"
    },
    {
      "inputs": [],
      "name": "renounceOwnership",
      "outputs": [],
      "stateMutability": "nonpayable",
      "type": "function"
    },
    {
      "inputs": [
        {
          "internalType": "address",
          "name": "mediaContract",
          "type": "address"
        },
        {
          "internalType": "uint256",
          "name": "amountBPS",
          "type": "uint256"
        }
      ],
      "name": "setFeeOverride",
      "outputs": [],
      "stateMutability": "nonpayable",
      "type": "function"
    },
    {
      "inputs": [
        {
          "internalType": "address",
          "name": "newOwner",
          "type": "address"
        }
      ],
      "name": "transferOwnership",
      "outputs": [],
      "stateMutability": "nonpayable",
      "type": "function"
    }
  ],
  "bytecode": {
    "object": "0x60a060405234801561001057600080fd5b506040516105c53803806105c583398101604081905261002f9161009d565b6100383361004d565b60808290526100468161004d565b50506100da565b600080546001600160a01b038381166001600160a01b0319831681178455604051919092169283917f8be0079c531659141344cd1fd0a4f28419497f9722a3daafe3b4186f6b6457e09190a35050565b600080604083850312156100b057600080fd5b825160208401519092506001600160a01b03811681146100cf57600080fd5b809150509250929050565b6080516104d06100f5600039600061025f01526104d06000f3fe608060405234801561001057600080fd5b50600436106100675760003560e01c8063715018a611610050578063715018a6146100b85780638da5cb5b146100c0578063f2fde38b146100db57600080fd5b80632b933f811461006c5780632e0c164914610081575b600080fd5b61007f61007a36600461044e565b6100ee565b005b61009461008f366004610478565b61020b565b604080516001600160a01b0390931683526020830191909152015b60405180910390f35b61007f610282565b6000546040516001600160a01b0390911681526020016100af565b61007f6100e9366004610478565b6102e8565b6000546001600160a01b0316331461014d5760405162461bcd60e51b815260206004820181905260248201527f4f776e61626c653a2063616c6c6572206973206e6f7420746865206f776e657260448201526064015b60405180910390fd5b6107d181106101c45760405162461bcd60e51b815260206004820152602360248201527f46656520746f6f206869676820286e6f742067726561746572207468616e203260448201527f30252900000000000000000000000000000000000000000000000000000000006064820152608401610144565b6001600160a01b038216600081815260016020526040808220849055518392917fcadc101c03be6a205eb345867605c4824dd58c1660c7c1b6ce4a92ad024c0a8b91a35050565b6001600160a01b03811660009081526001602052604081205481901561024e575050600080546001600160a01b0392831682526001602052604090912054911691565b50506000546001600160a01b0316917f00000000000000000000000000000000000000000000000000000000000000009150565b6000546001600160a01b031633146102dc5760405162461bcd60e51b815260206004820181905260248201527f4f776e61626c653a2063616c6c6572206973206e6f7420746865206f776e65726044820152606401610144565b6102e660006103ca565b565b6000546001600160a01b031633146103425760405162461bcd60e51b815260206004820181905260248201527f4f776e61626c653a2063616c6c6572206973206e6f7420746865206f776e65726044820152606401610144565b6001600160a01b0381166103be5760405162461bcd60e51b815260206004820152602660248201527f4f776e61626c653a206e6577206f776e657220697320746865207a65726f206160448201527f64647265737300000000000000000000000000000000000000000000000000006064820152608401610144565b6103c7816103ca565b50565b600080546001600160a01b038381167fffffffffffffffffffffffff0000000000000000000000000000000000000000831681178455604051919092169283917f8be0079c531659141344cd1fd0a4f28419497f9722a3daafe3b4186f6b6457e09190a35050565b80356001600160a01b038116811461044957600080fd5b919050565b6000806040838503121561046157600080fd5b61046a83610432565b946020939093013593505050565b60006020828403121561048a57600080fd5b61049382610432565b939250505056fea264697066735822122071c0b841908389688717450d8e01af061d0f7fc5c674a7d0159cd730f188b59264736f6c634300080d0033",
    "linkReferences": {}
  },
  "methodIdentifiers": {
    "getZORAWithdrawFeesBPS(address)": "2e0c1649",
    "owner()": "8da5cb5b",
    "renounceOwnership()": "715018a6",
    "setFeeOverride(address,uint256)": "2b933f81",
    "transferOwnership(address)": "f2fde38b"
  },
  "userdoc": {
    "version": 1,
    "kind": "user"
  },
  "devdoc": {
    "version": 1,
    "kind": "dev",
    "methods": {
      "owner()": {
        "details": "Returns the address of the current owner."
      },
      "renounceOwnership()": {
        "details": "Leaves the contract without owner. It will not be possible to call `onlyOwner` functions anymore. Can only be called by the current owner. NOTE: Renouncing ownership will leave the contract without an owner, thereby removing any functionality that is only available to the owner."
      },
      "transferOwnership(address)": {
        "details": "Transfers ownership of the contract to a new account (`newOwner`). Can only be called by the current owner."
      }
    }
  }
}