{
  "abi": [
    {
      "inputs": [
        {
          "internalType": "bytes",
          "name": "unencoded",
          "type": "bytes"
        }
      ],
      "name": "base64Encode",
      "outputs": [
        {
          "internalType": "string",
          "name": "",
          "type": "string"
        }
      ],
      "stateMutability": "pure",
      "type": "function"
    },
    {
      "inputs": [
        {
          "internalType": "string",
          "name": "name",
          "type": "string"
        },
        {
          "internalType": "string",
          "name": "description",
          "type": "string"
        },
        {
          "internalType": "string",
          "name": "imageUrl",
          "type": "string"
        },
        {
          "internalType": "string",
          "name": "animationUrl",
          "type": "string"
        },
        {
          "internalType": "uint256",
          "name": "tokenOfEdition",
          "type": "uint256"
        },
        {
          "internalType": "uint256",
          "name": "editionSize",
          "type": "uint256"
        }
      ],
      "name": "createMetadataEdition",
      "outputs": [
        {
          "internalType": "string",
          "name": "",
          "type": "string"
        }
      ],
      "stateMutability": "pure",
      "type": "function"
    },
    {
      "inputs": [
        {
          "internalType": "string",
          "name": "name",
          "type": "string"
        },
        {
          "internalType": "string",
          "name": "description",
          "type": "string"
        },
        {
          "internalType": "string",
          "name": "mediaData",
          "type": "string"
        },
        {
          "internalType": "uint256",
          "name": "tokenOfEdition",
          "type": "uint256"
        },
        {
          "internalType": "uint256",
          "name": "editionSize",
          "type": "uint256"
        }
      ],
      "name": "createMetadataJSON",
      "outputs": [
        {
          "internalType": "bytes",
          "name": "",
          "type": "bytes"
        }
      ],
      "stateMutability": "pure",
      "type": "function"
    },
    {
      "inputs": [
        {
          "internalType": "bytes",
          "name": "json",
          "type": "bytes"
        }
      ],
      "name": "encodeMetadataJSON",
      "outputs": [
        {
          "internalType": "string",
          "name": "",
          "type": "string"
        }
      ],
      "stateMutability": "pure",
      "type": "function"
    },
    {
      "inputs": [
        {
          "internalType": "uint256",
          "name": "value",
          "type": "uint256"
        }
      ],
      "name": "numberToString",
      "outputs": [
        {
          "internalType": "string",
          "name": "",
          "type": "string"
        }
      ],
      "stateMutability": "pure",
      "type": "function"
    },
    {
      "inputs": [
        {
          "internalType": "string",
          "name": "imageUrl",
          "type": "string"
        },
        {
          "internalType": "string",
          "name": "animationUrl",
          "type": "string"
        },
        {
          "internalType": "uint256",
          "name": "tokenOfEdition",
          "type": "uint256"
        }
      ],
      "name": "tokenMediaData",
      "outputs": [
        {
          "internalType": "string",
          "name": "",
          "type": "string"
        }
      ],
      "stateMutability": "pure",
      "type": "function"
    }
  ],
  "bytecode": {
    "object": "0x608060405234801561001057600080fd5b50610df3806100206000396000f3fe608060405234801561001057600080fd5b50600436106100725760003560e01c8063d5fb1b1911610050578063d5fb1b19146100c6578063df30dba0146100d9578063eb111ab6146100ec57600080fd5b8063170dc6601461007757806358464f30146100a0578063d01fde8c146100b3575b600080fd5b61008a610085366004610592565b6100ff565b6040516100979190610607565b60405180910390f35b61008a6100ae3660046106c6565b610110565b61008a6100c1366004610760565b61018c565b61008a6100d4366004610760565b6101bd565b61008a6100e73660046107a9565b6101c8565b61008a6100fa366004610868565b610200565b606061010a826102b9565b92915050565b606080821561014457610122836100ff565b60405160200161013291906108f1565b60405160208183030381529060405290505b8661014e856100ff565b82888861015a896100ff565b8c6040516020016101719796959493929190610936565b60405160208183030381529060405291505095945050505050565b6060610197826101bd565b6040516020016101a79190610ac7565b6040516020818303038152906040529050919050565b606061010a826103f6565b606060006101d7868686610200565b905060006101e88989848888610110565b90506101f38161018c565b9998505050505050505050565b825182516060911580159115159082906102175750805b1561025b5785610226856100ff565b86610230876100ff565b6040516020016102439493929190610b0c565b604051602081830303815290604052925050506102b2565b811561027c578561026b856100ff565b604051602001610243929190610bce565b801561029d578461028c856100ff565b604051602001610243929190610c33565b60405180602001604052806000815250925050505b9392505050565b6060816000036102fc57505060408051808201909152600181527f3000000000000000000000000000000000000000000000000000000000000000602082015290565b8160005b8115610326578061031081610cc2565b915061031f9050600a83610cf1565b9150610300565b60008167ffffffffffffffff8111156103415761034161061a565b6040519080825280601f01601f19166020018201604052801561036b576020820181803683370190505b5090505b84156103ee57610380600183610d05565b915061038d600a86610d1c565b610398906030610d30565b60f81b8183815181106103ad576103ad610d48565b60200101907effffffffffffffffffffffffffffffffffffffffffffffffffffffffffffff1916908160001a9053506103e7600a86610cf1565b945061036f565b949350505050565b6060815160000361041557505060408051602081019091526000815290565b6000604051806060016040528060408152602001610d7e60409139905060006003845160026104449190610d30565b61044e9190610cf1565b610459906004610d5e565b90506000610468826020610d30565b67ffffffffffffffff8111156104805761048061061a565b6040519080825280601f01601f1916602001820160405280156104aa576020820181803683370190505b509050818152600183018586518101602084015b81831015610516576003830192508251603f8160121c168501518253600182019150603f81600c1c168501518253600182019150603f8160061c168501518253600182019150603f81168501518253506001016104be565b600389510660018114610530576002811461055c57610584565b7f3d3d000000000000000000000000000000000000000000000000000000000000600119830152610584565b7f3d000000000000000000000000000000000000000000000000000000000000006000198301525b509398975050505050505050565b6000602082840312156105a457600080fd5b5035919050565b60005b838110156105c65781810151838201526020016105ae565b838111156105d5576000848401525b50505050565b600081518084526105f38160208601602086016105ab565b601f01601f19169290920160200192915050565b6020815260006102b260208301846105db565b634e487b7160e01b600052604160045260246000fd5b600067ffffffffffffffff8084111561064b5761064b61061a565b604051601f8501601f19908116603f011681019082821181831017156106735761067361061a565b8160405280935085815286868601111561068c57600080fd5b858560208301376000602087830101525050509392505050565b600082601f8301126106b757600080fd5b6102b283833560208501610630565b600080600080600060a086880312156106de57600080fd5b853567ffffffffffffffff808211156106f657600080fd5b61070289838a016106a6565b9650602088013591508082111561071857600080fd5b61072489838a016106a6565b9550604088013591508082111561073a57600080fd5b50610747888289016106a6565b9598949750949560608101359550608001359392505050565b60006020828403121561077257600080fd5b813567ffffffffffffffff81111561078957600080fd5b8201601f8101841361079a57600080fd5b6103ee84823560208401610630565b60008060008060008060c087890312156107c257600080fd5b863567ffffffffffffffff808211156107da57600080fd5b6107e68a838b016106a6565b975060208901359150808211156107fc57600080fd5b6108088a838b016106a6565b9650604089013591508082111561081e57600080fd5b61082a8a838b016106a6565b9550606089013591508082111561084057600080fd5b5061084d89828a016106a6565b9350506080870135915060a087013590509295509295509295565b60008060006060848603121561087d57600080fd5b833567ffffffffffffffff8082111561089557600080fd5b6108a1878388016106a6565b945060208601359150808211156108b757600080fd5b506108c4868287016106a6565b925050604084013590509250925092565b600081516108e78185602086016105ab565b9290920192915050565b7f2f000000000000000000000000000000000000000000000000000000000000008152600082516109298160018501602087016105ab565b9190910160010192915050565b7f7b226e616d65223a20220000000000000000000000000000000000000000000081526000885161096e81600a850160208d016105ab565b7f2000000000000000000000000000000000000000000000000000000000000000600a9184019182015288516109ab81600b840160208d016105ab565b88519101906109c181600b840160208c016105ab565b808201915050631116101160e11b80600b8301527f6465736372697074696f6e223a20220000000000000000000000000000000000600f8301528751610a0e81601e850160208c016105ab565b601e920191820152610ab9610a90610a8a610a61610a5b610a32602287018c6108d5565b7f70726f70657274696573223a207b226e756d626572223a200000000000000000815260180190565b896108d5565b7f2c20226e616d65223a20220000000000000000000000000000000000000000008152600b0190565b866108d5565b7f227d7d0000000000000000000000000000000000000000000000000000000000815260030190565b9a9950505050505050505050565b7f646174613a6170706c69636174696f6e2f6a736f6e3b6261736536342c000000815260008251610aff81601d8501602087016105ab565b91909101601d0192915050565b6834b6b0b3b2911d101160b91b815260008551610b30816009850160208a016105ab565b8083019050633f69643d60e01b8060098301528651610b5681600d850160208b016105ab565b7f222c2022616e696d6174696f6e5f75726c223a20220000000000000000000000600d93909101928301528551610b94816022850160208a016105ab565b60229201918201528351610baf8160268401602088016105ab565b631116101160e11b60269290910191820152602a019695505050505050565b6834b6b0b3b2911d101160b91b815260008351610bf28160098501602088016105ab565b633f69643d60e01b6009918401918201528351610c1681600d8401602088016105ab565b631116101160e11b600d9290910191820152601101949350505050565b7f616e696d6174696f6e5f75726c223a2022000000000000000000000000000000815260008351610c6b8160118501602088016105ab565b633f69643d60e01b6011918401918201528351610c8f8160158401602088016105ab565b631116101160e11b60159290910191820152601901949350505050565b634e487b7160e01b600052601160045260246000fd5b600060018201610cd457610cd4610cac565b5060010190565b634e487b7160e01b600052601260045260246000fd5b600082610d0057610d00610cdb565b500490565b600082821015610d1757610d17610cac565b500390565b600082610d2b57610d2b610cdb565b500690565b60008219821115610d4357610d43610cac565b500190565b634e487b7160e01b600052603260045260246000fd5b6000816000190483118215151615610d7857610d78610cac565b50029056fe4142434445464748494a4b4c4d4e4f505152535455565758595a6162636465666768696a6b6c6d6e6f707172737475767778797a303132333435363738392b2fa26469706673582212207851ed7609182fec4816ffef85ef31ed490fd743b47a239e7d767fc326cee2a464736f6c634300080d0033",
    "linkReferences": {}
  },
  "methodIdentifiers": {
    "base64Encode(bytes)": "d5fb1b19",
    "createMetadataEdition(string,string,string,string,uint256,uint256)": "df30dba0",
    "createMetadataJSON(string,string,string,uint256,uint256)": "58464f30",
    "encodeMetadataJSON(bytes)": "d01fde8c",
    "numberToString(uint256)": "170dc660",
    "tokenMediaData(string,string,uint256)": "eb111ab6"
  },
  "userdoc": {
    "version": 1,
    "kind": "user",
    "methods": {
      "createMetadataEdition(string,string,string,string,uint256,uint256)": {
        "notice": "Generate edition metadata from storage information as base64-json blob Combines the media data and metadata"
      },
      "createMetadataJSON(string,string,string,uint256,uint256)": {
        "notice": "Function to create the metadata json string for the nft edition"
      },
      "encodeMetadataJSON(bytes)": {
        "notice": "Encodes the argument json bytes into base64-data uri format"
      },
      "numberToString(uint256)": {
        "notice": "Proxy to openzeppelin's toString function"
      },
      "tokenMediaData(string,string,uint256)": {
        "notice": "Generates edition metadata from storage information as base64-json blob Combines the media data and metadata"
      }
    },
    "notice": "Shared NFT logic for rendering metadata associated with editions"
  },
  "devdoc": {
    "version": 1,
    "kind": "dev",
    "details": "Can safely be used for generic base64Encode and numberToString functions",
    "methods": {
      "base64Encode(bytes)": {
        "params": {
          "unencoded": "bytes to base64-encode"
        }
      },
      "createMetadataEdition(string,string,string,string,uint256,uint256)": {
        "params": {
          "animationUrl": "URL of animation to render for edition",
          "description": "Description of NFT in metadata",
          "editionSize": "Size of entire edition to show",
          "imageUrl": "URL of image to render for edition",
          "name": "Name of NFT in metadata",
          "tokenOfEdition": "Token ID for specific token"
        }
      },
      "createMetadataJSON(string,string,string,uint256,uint256)": {
        "params": {
          "description": "Description of NFT in metadata",
          "editionSize": "Size of entire edition to show",
          "mediaData": "Data for media to include in json object",
          "name": "Name of NFT in metadata",
          "tokenOfEdition": "Token ID for specific token"
        }
      },
      "encodeMetadataJSON(bytes)": {
        "params": {
          "json": "Raw json to base64 and turn into a data-uri"
        }
      },
      "numberToString(uint256)": {
        "params": {
          "value": "number to return as a string"
        }
      },
      "tokenMediaData(string,string,uint256)": {
        "params": {
          "animationUrl": "URL of animation to render for edition",
          "imageUrl": "URL of image to render for edition"
        }
      }
    }
  }
}