{
  "abi": [
    {
      "inputs": [
        {
          "internalType": "address",
          "name": "mediaContractBase",
          "type": "address"
        },
        {
          "internalType": "contract IMetadataRenderer",
          "name": "_metadataDropRendererAddress",
          "type": "address"
        }
      ],
      "stateMutability": "nonpayable",
      "type": "constructor"
    },
    {
      "anonymous": false,
      "inputs": [
        {
          "indexed": true,
          "internalType": "address",
          "name": "from",
          "type": "address"
        },
        {
          "indexed": true,
          "internalType": "address",
          "name": "newContract",
          "type": "address"
        }
      ],
      "name": "DeployedNewContract",
      "type": "event"
    },
    {
      "inputs": [
        {
          "internalType": "address",
          "name": "owner",
          "type": "address"
        },
        {
          "internalType": "string",
          "name": "name",
          "type": "string"
        },
        {
          "internalType": "string",
          "name": "symbol",
          "type": "string"
        },
        {
          "internalType": "address payable",
          "name": "fundsRecipient",
          "type": "address"
        },
        {
          "internalType": "uint16",
          "name": "royaltyBPS",
          "type": "uint16"
        },
        {
          "internalType": "uint64",
          "name": "editionSize",
          "type": "uint64"
        },
        {
          "internalType": "string",
          "name": "metadataURIBase",
          "type": "string"
        },
        {
          "internalType": "string",
          "name": "metadataContractURI",
          "type": "string"
        }
      ],
      "name": "createDrop",
      "outputs": [
        {
          "internalType": "address",
          "name": "",
          "type": "address"
        }
      ],
      "stateMutability": "nonpayable",
      "type": "function"
    }
  ],
  "bytecode": {
    "object": "0x60c060405234801561001057600080fd5b5060405161063938038061063983398101604081905261002f9161005e565b6001600160a01b039182166080521660a052610098565b6001600160a01b038116811461005b57600080fd5b50565b6000806040838503121561007157600080fd5b825161007c81610046565b602084015190925061008d81610046565b809150509250929050565b60805160a05161057e6100bb600039600060ca01526000608d015261057e6000f3fe608060405234801561001057600080fd5b506004361061002b5760003560e01c8063012d7ef314610030575b600080fd5b61004361003e366004610359565b61005f565b6040516001600160a01b03909116815260200160405180910390f35b6000808383604051602001610075929190610496565b604051602081830303815290604052905060006100b17f0000000000000000000000000000000000000000000000000000000000000000610183565b9050806001600160a01b031663ed55a76d8b8b8e8c8b8d7f00000000000000000000000000000000000000000000000000000000000000008a6040518963ffffffff1660e01b815260040161010d9897969594939291906104c4565b600060405180830381600087803b15801561012757600080fd5b505af115801561013b573d6000803e3d6000fd5b50506040516001600160a01b03841692503391507f22e2380d23fbfe3d9503de7fa8f6f39ea4e2d2e094d359d52e533d9c77ff994a90600090a39a9950505050505050505050565b60006040517f3d602d80600a3d3981f3363d3d373d3d3d363d7300000000000000000000000081528260601b60148201527f5af43d82803e903d91602b57fd5bf3000000000000000000000000000000000060288201526037816000f09150506001600160a01b038116610257576040517f08c379a000000000000000000000000000000000000000000000000000000000815260206004820152601660248201527f455243313136373a20637265617465206661696c656400000000000000000000604482015260640160405180910390fd5b919050565b80356001600160a01b038116811461025757600080fd5b7f4e487b7100000000000000000000000000000000000000000000000000000000600052604160045260246000fd5b600082601f8301126102b357600080fd5b813567ffffffffffffffff808211156102ce576102ce610273565b604051601f8301601f19908116603f011681019082821181831017156102f6576102f6610273565b8160405283815286602085880101111561030f57600080fd5b836020870160208301376000602085830101528094505050505092915050565b803561ffff8116811461025757600080fd5b803567ffffffffffffffff8116811461025757600080fd5b600080600080600080600080610100898b03121561037657600080fd5b61037f8961025c565b9750602089013567ffffffffffffffff8082111561039c57600080fd5b6103a88c838d016102a2565b985060408b01359150808211156103be57600080fd5b6103ca8c838d016102a2565b97506103d860608c0161025c565b96506103e660808c0161032f565b95506103f460a08c01610341565b945060c08b013591508082111561040a57600080fd5b6104168c838d016102a2565b935060e08b013591508082111561042c57600080fd5b506104398b828c016102a2565b9150509295985092959890939650565b6000815180845260005b8181101561046f57602081850181015186830182015201610453565b81811115610481576000602083870101525b50601f01601f19169290920160200192915050565b6040815260006104a96040830185610449565b82810360208401526104bb8185610449565b95945050505050565b60006101008083526104d88184018c610449565b905082810360208401526104ec818b610449565b6001600160a01b038a81166040860152898116606086015267ffffffffffffffff8916608086015261ffff881660a0860152861660c085015283810360e085015290506105398185610449565b9b9a505050505050505050505056fea2646970667358221220afdb0ffdf56f4276920b902d6e2258bb371ea54cad2403f930107dba3d39af9b64736f6c634300080d0033",
    "linkReferences": {}
  },
  "methodIdentifiers": {
    "createDrop(address,string,string,address,uint16,uint64,string,string)": "012d7ef3"
  },
  "userdoc": {
    "version": 1,
    "kind": "user"
  },
  "devdoc": {
    "version": 1,
    "kind": "dev"
  }
}