{
  "abi": [
    {
      "inputs": [
        {
          "internalType": "address",
          "name": "_implementation",
          "type": "address"
        },
        {
          "internalType": "contract EditionMetadataRenderer",
          "name": "_editionMetadataRenderer",
          "type": "address"
        },
        {
          "internalType": "contract DropMetadataRenderer",
          "name": "_dropMetadataRenderer",
          "type": "address"
        }
      ],
      "stateMutability": "nonpayable",
      "type": "constructor"
    },
    {
      "anonymous": false,
      "inputs": [
        {
          "indexed": false,
          "internalType": "address",
          "name": "previousAdmin",
          "type": "address"
        },
        {
          "indexed": false,
          "internalType": "address",
          "name": "newAdmin",
          "type": "address"
        }
      ],
      "name": "AdminChanged",
      "type": "event"
    },
    {
      "anonymous": false,
      "inputs": [
        {
          "indexed": true,
          "internalType": "address",
          "name": "beacon",
          "type": "address"
        }
      ],
      "name": "BeaconUpgraded",
      "type": "event"
    },
    {
      "anonymous": false,
      "inputs": [
        {
          "indexed": true,
          "internalType": "uint256",
          "name": "editionId",
          "type": "uint256"
        },
        {
          "indexed": true,
          "internalType": "address",
          "name": "creator",
          "type": "address"
        },
        {
          "indexed": false,
          "internalType": "uint256",
          "name": "editionSize",
          "type": "uint256"
        },
        {
          "indexed": false,
          "internalType": "address",
          "name": "editionContractAddress",
          "type": "address"
        }
      ],
      "name": "CreatedEdition",
      "type": "event"
    },
    {
      "anonymous": false,
      "inputs": [
        {
          "indexed": true,
          "internalType": "address",
          "name": "previousOwner",
          "type": "address"
        },
        {
          "indexed": true,
          "internalType": "address",
          "name": "newOwner",
          "type": "address"
        }
      ],
      "name": "OwnershipTransferred",
      "type": "event"
    },
    {
      "anonymous": false,
      "inputs": [
        {
          "indexed": true,
          "internalType": "address",
          "name": "implementation",
          "type": "address"
        }
      ],
      "name": "Upgraded",
      "type": "event"
    },
    {
      "inputs": [
        {
          "internalType": "string",
          "name": "name",
          "type": "string"
        },
        {
          "internalType": "string",
          "name": "symbol",
          "type": "string"
        },
        {
          "internalType": "uint64",
          "name": "editionSize",
          "type": "uint64"
        },
        {
          "internalType": "uint16",
          "name": "royaltyBPS",
          "type": "uint16"
        },
        {
          "internalType": "address payable",
          "name": "fundsRecipient",
          "type": "address"
        },
        {
          "internalType": "string",
          "name": "metadataURIBase",
          "type": "string"
        },
        {
          "internalType": "string",
          "name": "metadataContractURI",
          "type": "string"
        }
      ],
      "name": "createDrop",
      "outputs": [
        {
          "internalType": "uint256",
          "name": "",
          "type": "uint256"
        },
        {
          "internalType": "address",
          "name": "",
          "type": "address"
        }
      ],
      "stateMutability": "nonpayable",
      "type": "function"
    },
    {
      "inputs": [
        {
          "internalType": "string",
          "name": "name",
          "type": "string"
        },
        {
          "internalType": "string",
          "name": "symbol",
          "type": "string"
        },
        {
          "internalType": "uint64",
          "name": "editionSize",
          "type": "uint64"
        },
        {
          "internalType": "uint16",
          "name": "royaltyBPS",
          "type": "uint16"
        },
        {
          "internalType": "address payable",
          "name": "fundsRecipient",
          "type": "address"
        },
        {
          "internalType": "string",
          "name": "description",
          "type": "string"
        },
        {
          "internalType": "string",
          "name": "animationURI",
          "type": "string"
        },
        {
          "internalType": "bytes32",
          "name": "animationHash",
          "type": "bytes32"
        },
        {
          "internalType": "string",
          "name": "imageURI",
          "type": "string"
        },
        {
          "internalType": "bytes32",
          "name": "imageHash",
          "type": "bytes32"
        }
      ],
      "name": "createEdition",
      "outputs": [
        {
          "internalType": "uint256",
          "name": "",
          "type": "uint256"
        },
        {
          "internalType": "address",
          "name": "",
          "type": "address"
        }
      ],
      "stateMutability": "nonpayable",
      "type": "function"
    },
    {
      "inputs": [],
      "name": "dropMetadataRenderer",
      "outputs": [
        {
          "internalType": "contract DropMetadataRenderer",
          "name": "",
          "type": "address"
        }
      ],
      "stateMutability": "view",
      "type": "function"
    },
    {
      "inputs": [],
      "name": "editionMetadataRenderer",
      "outputs": [
        {
          "internalType": "contract EditionMetadataRenderer",
          "name": "",
          "type": "address"
        }
      ],
      "stateMutability": "view",
      "type": "function"
    },
    {
      "inputs": [
        {
          "internalType": "uint256",
          "name": "editionId",
          "type": "uint256"
        }
      ],
      "name": "getEditionAtId",
      "outputs": [
        {
          "internalType": "contract ERC721Drop",
          "name": "",
          "type": "address"
        }
      ],
      "stateMutability": "view",
      "type": "function"
    },
    {
      "inputs": [],
      "name": "implementation",
      "outputs": [
        {
          "internalType": "address",
          "name": "",
          "type": "address"
        }
      ],
      "stateMutability": "view",
      "type": "function"
    },
    {
      "inputs": [],
      "name": "initialize",
      "outputs": [],
      "stateMutability": "nonpayable",
      "type": "function"
    },
    {
      "inputs": [],
      "name": "owner",
      "outputs": [
        {
          "internalType": "address",
          "name": "",
          "type": "address"
        }
      ],
      "stateMutability": "view",
      "type": "function"
    },
    {
      "inputs": [],
      "name": "proxiableUUID",
      "outputs": [
        {
          "internalType": "bytes32",
          "name": "",
          "type": "bytes32"
        }
      ],
      "stateMutability": "view",
      "type": "function"
    },
    {
      "inputs": [],
      "name": "renounceOwnership",
      "outputs": [],
      "stateMutability": "nonpayable",
      "type": "function"
    },
    {
      "inputs": [
        {
          "internalType": "address",
          "name": "newOwner",
          "type": "address"
        }
      ],
      "name": "transferOwnership",
      "outputs": [],
      "stateMutability": "nonpayable",
      "type": "function"
    },
    {
      "inputs": [
        {
          "internalType": "address",
          "name": "newImplementation",
          "type": "address"
        }
      ],
      "name": "upgradeTo",
      "outputs": [],
      "stateMutability": "nonpayable",
      "type": "function"
    },
    {
      "inputs": [
        {
          "internalType": "address",
          "name": "newImplementation",
          "type": "address"
        },
        {
          "internalType": "bytes",
          "name": "data",
          "type": "bytes"
        }
      ],
      "name": "upgradeToAndCall",
      "outputs": [],
      "stateMutability": "payable",
      "type": "function"
    }
  ],
  "bytecode": {
    "object": "0x610100604052306080523480156200001657600080fd5b5060405162001ab438038062001ab4833981016040819052620000399162000178565b60408051808201909152601381527243616e6e6f742062652030206164647265737360681b60208201526001600160a01b038416620000965760405162461bcd60e51b81526004016200008d9190620001cc565b60405180910390fd5b5060408051808201909152601381527243616e6e6f742062652030206164647265737360681b60208201526001600160a01b038316620000eb5760405162461bcd60e51b81526004016200008d9190620001cc565b5060408051808201909152601381527243616e6e6f742062652030206164647265737360681b60208201526001600160a01b038216620001405760405162461bcd60e51b81526004016200008d9190620001cc565b506001600160a01b0392831660a05290821660c0521660e05262000224565b6001600160a01b03811681146200017557600080fd5b50565b6000806000606084860312156200018e57600080fd5b83516200019b816200015f565b6020850151909350620001ae816200015f565b6040850151909250620001c1816200015f565b809150509250925092565b600060208083528351808285015260005b81811015620001fb57858101830151858201604001528201620001dd565b818111156200020e576000604083870101525b50601f01601f1916929092016040019392505050565b60805160a05160c05160e05161181e620002966000396000818161016d015261030001526000818161022301526104eb0152600081816101ef015281816108990152610a54015260008181610340015281816103ca0152818161052e015281816105b3015261069d015261181e6000f3fe6080604052600436106100d25760003560e01c80635c60da1b1161007f5780638129fc1c116100595780638129fc1c1461025a5780638da5cb5b1461026f578063ac52edfd1461028d578063f2fde38b146102ad57600080fd5b80635c60da1b146101dd578063686ce43514610211578063715018a61461024557600080fd5b80634abde729116100b05780634abde7291461015b5780634f1ef286146101a757806352d1902d146101ba57600080fd5b806309c1e218146100d75780633659cfe6146101195780634aad53721461013b575b600080fd5b3480156100e357600080fd5b506100f76100f236600461137c565b6102cd565b604080519283526001600160a01b039091166020830152015b60405180910390f35b34801561012557600080fd5b5061013961013436600461145b565b610336565b005b34801561014757600080fd5b506100f7610156366004611478565b6104b6565b34801561016757600080fd5b5061018f7f000000000000000000000000000000000000000000000000000000000000000081565b6040516001600160a01b039091168152602001610110565b6101396101b5366004611591565b610524565b3480156101c657600080fd5b506101cf610690565b604051908152602001610110565b3480156101e957600080fd5b5061018f7f000000000000000000000000000000000000000000000000000000000000000081565b34801561021d57600080fd5b5061018f7f000000000000000000000000000000000000000000000000000000000000000081565b34801561025157600080fd5b50610139610755565b34801561026657600080fd5b506101396107bb565b34801561027b57600080fd5b506033546001600160a01b031661018f565b34801561029957600080fd5b5061018f6102a83660046115f5565b610892565b3480156102b957600080fd5b506101396102c836600461145b565b61095e565b600080600084846040516020016102e5929190611666565b60405160208183030381529060405290506103258a8a8a8a8a7f000000000000000000000000000000000000000000000000000000000000000087610a3d565b925092505097509795505050505050565b6001600160a01b037f00000000000000000000000000000000000000000000000000000000000000001630036103c85760405162461bcd60e51b815260206004820152602c60248201527f46756e6374696f6e206d7573742062652063616c6c6564207468726f7567682060448201526b19195b1959d85d1958d85b1b60a21b60648201526084015b60405180910390fd5b7f00000000000000000000000000000000000000000000000000000000000000006001600160a01b03166104237f360894a13ba1a3210667c828492db98dca3e2076cc3735a920a3ca505d382bbc546001600160a01b031690565b6001600160a01b03161461048e5760405162461bcd60e51b815260206004820152602c60248201527f46756e6374696f6e206d7573742062652063616c6c6564207468726f7567682060448201526b6163746976652070726f787960a01b60648201526084016103bf565b61049781610b80565b604080516000808252602082019092526104b391839190610bda565b50565b60008060008785886040516020016104d09392919061168b565b60405160208183030381529060405290506105108d8d8d8d8d7f000000000000000000000000000000000000000000000000000000000000000087610a3d565b92509250509a509a98505050505050505050565b6001600160a01b037f00000000000000000000000000000000000000000000000000000000000000001630036105b15760405162461bcd60e51b815260206004820152602c60248201527f46756e6374696f6e206d7573742062652063616c6c6564207468726f7567682060448201526b19195b1959d85d1958d85b1b60a21b60648201526084016103bf565b7f00000000000000000000000000000000000000000000000000000000000000006001600160a01b031661060c7f360894a13ba1a3210667c828492db98dca3e2076cc3735a920a3ca505d382bbc546001600160a01b031690565b6001600160a01b0316146106775760405162461bcd60e51b815260206004820152602c60248201527f46756e6374696f6e206d7573742062652063616c6c6564207468726f7567682060448201526b6163746976652070726f787960a01b60648201526084016103bf565b61068082610b80565b61068c82826001610bda565b5050565b6000306001600160a01b037f000000000000000000000000000000000000000000000000000000000000000016146107305760405162461bcd60e51b815260206004820152603860248201527f555550535570677261646561626c653a206d757374206e6f742062652063616c60448201527f6c6564207468726f7567682064656c656761746563616c6c000000000000000060648201526084016103bf565b507f360894a13ba1a3210667c828492db98dca3e2076cc3735a920a3ca505d382bbc90565b6033546001600160a01b031633146107af5760405162461bcd60e51b815260206004820181905260248201527f4f776e61626c653a2063616c6c6572206973206e6f7420746865206f776e657260448201526064016103bf565b6107b96000610d7f565b565b600054610100900460ff166107d65760005460ff16156107da565b303b155b61084c5760405162461bcd60e51b815260206004820152602e60248201527f496e697469616c697a61626c653a20636f6e747261637420697320616c72656160448201527f647920696e697469616c697a656400000000000000000000000000000000000060648201526084016103bf565b600054610100900460ff1615801561086e576000805461ffff19166101011790555b610876610dde565b61087e610e51565b80156104b3576000805461ff001916905550565b60006109587f0000000000000000000000000000000000000000000000000000000000000000836040516020016108cb91815260200190565b6040516020818303038152906040526108e3906116ce565b306040517f3d602d80600a3d3981f3363d3d373d3d3d363d730000000000000000000000008152606093841b60148201527f5af43d82803e903d91602b57fd5bf3ff000000000000000000000000000000006028820152921b6038830152604c8201526037808220606c830152605591012090565b92915050565b6033546001600160a01b031633146109b85760405162461bcd60e51b815260206004820181905260248201527f4f776e61626c653a2063616c6c6572206973206e6f7420746865206f776e657260448201526064016103bf565b6001600160a01b038116610a345760405162461bcd60e51b815260206004820152602660248201527f4f776e61626c653a206e6577206f776e657220697320746865207a65726f206160448201527f646472657373000000000000000000000000000000000000000000000000000060648201526084016103bf565b6104b381610d7f565b6000806000610a4b60c95490565b90506000610aa37f000000000000000000000000000000000000000000000000000000000000000083604051602001610a8691815260200190565b604051602081830303815290604052610a9e906116ce565b610ebc565b6040805167ffffffffffffffff8c1681526001600160a01b0383166020820152919250339184917f152014b245a12a32e125b8a4227ff155636ca7ca6ba15d04c5d07966e55c5cc7910160405180910390a3610b0360c980546001019055565b806001600160a01b031663ed55a76d8c8c338b8e8e8d8d6040518963ffffffff1660e01b8152600401610b3d9897969594939291906116f5565b600060405180830381600087803b158015610b5757600080fd5b505af1158015610b6b573d6000803e3d6000fd5b50939d929c50919a5050505050505050505050565b6033546001600160a01b031633146104b35760405162461bcd60e51b815260206004820181905260248201527f4f776e61626c653a2063616c6c6572206973206e6f7420746865206f776e657260448201526064016103bf565b7f4910fdfa16fed3260ed0e7147f7cc6da11a60208b5b9406d12a635614ffd91435460ff1615610c1257610c0d83610f73565b505050565b826001600160a01b03166352d1902d6040518163ffffffff1660e01b8152600401602060405180830381865afa925050508015610c6c575060408051601f3d908101601f19168201909252610c6991810190611779565b60015b610cde5760405162461bcd60e51b815260206004820152602e60248201527f45524331393637557067726164653a206e657720696d706c656d656e7461746960448201527f6f6e206973206e6f74205555505300000000000000000000000000000000000060648201526084016103bf565b7f360894a13ba1a3210667c828492db98dca3e2076cc3735a920a3ca505d382bbc8114610d735760405162461bcd60e51b815260206004820152602960248201527f45524331393637557067726164653a20756e737570706f727465642070726f7860448201527f6961626c6555554944000000000000000000000000000000000000000000000060648201526084016103bf565b50610c0d83838361103e565b603380546001600160a01b0383811673ffffffffffffffffffffffffffffffffffffffff19831681179093556040519116919082907f8be0079c531659141344cd1fd0a4f28419497f9722a3daafe3b4186f6b6457e090600090a35050565b600054610100900460ff16610e495760405162461bcd60e51b815260206004820152602b60248201527f496e697469616c697a61626c653a20636f6e7472616374206973206e6f74206960448201526a6e697469616c697a696e6760a81b60648201526084016103bf565b6107b9611069565b600054610100900460ff166107b95760405162461bcd60e51b815260206004820152602b60248201527f496e697469616c697a61626c653a20636f6e7472616374206973206e6f74206960448201526a6e697469616c697a696e6760a81b60648201526084016103bf565b60006040517f3d602d80600a3d3981f3363d3d373d3d3d363d7300000000000000000000000081528360601b60148201527f5af43d82803e903d91602b57fd5bf300000000000000000000000000000000006028820152826037826000f59150506001600160a01b0381166109585760405162461bcd60e51b815260206004820152601760248201527f455243313136373a2063726561746532206661696c656400000000000000000060448201526064016103bf565b6001600160a01b0381163b610ff05760405162461bcd60e51b815260206004820152602d60248201527f455243313936373a206e657720696d706c656d656e746174696f6e206973206e60448201527f6f74206120636f6e74726163740000000000000000000000000000000000000060648201526084016103bf565b7f360894a13ba1a3210667c828492db98dca3e2076cc3735a920a3ca505d382bbc805473ffffffffffffffffffffffffffffffffffffffff19166001600160a01b0392909216919091179055565b611047836110dd565b6000825111806110545750805b15610c0d57611063838361111d565b50505050565b600054610100900460ff166110d45760405162461bcd60e51b815260206004820152602b60248201527f496e697469616c697a61626c653a20636f6e7472616374206973206e6f74206960448201526a6e697469616c697a696e6760a81b60648201526084016103bf565b6107b933610d7f565b6110e681610f73565b6040516001600160a01b038216907fbc7cd75a20ee27fd9adebab32041f755214dbc6bffa90cc0225b39da2e5c2d3b90600090a250565b60606001600160a01b0383163b61119c5760405162461bcd60e51b815260206004820152602660248201527f416464726573733a2064656c65676174652063616c6c20746f206e6f6e2d636f60448201527f6e7472616374000000000000000000000000000000000000000000000000000060648201526084016103bf565b600080846001600160a01b0316846040516111b79190611792565b600060405180830381855af49150503d80600081146111f2576040519150601f19603f3d011682016040523d82523d6000602084013e6111f7565b606091505b509150915061121f82826040518060600160405280602781526020016117c260279139611228565b95945050505050565b60608315611237575081611261565b8251156112475782518084602001fd5b8160405162461bcd60e51b81526004016103bf91906117ae565b9392505050565b7f4e487b7100000000000000000000000000000000000000000000000000000000600052604160045260246000fd5b600067ffffffffffffffff808411156112b2576112b2611268565b604051601f8501601f19908116603f011681019082821181831017156112da576112da611268565b816040528093508581528686860111156112f357600080fd5b858560208301376000602087830101525050509392505050565b600082601f83011261131e57600080fd5b61126183833560208501611297565b803567ffffffffffffffff8116811461134557600080fd5b919050565b803561ffff8116811461134557600080fd5b6001600160a01b03811681146104b357600080fd5b80356113458161135c565b600080600080600080600060e0888a03121561139757600080fd5b873567ffffffffffffffff808211156113af57600080fd5b6113bb8b838c0161130d565b985060208a01359150808211156113d157600080fd5b6113dd8b838c0161130d565b97506113eb60408b0161132d565b96506113f960608b0161134a565b955061140760808b01611371565b945060a08a013591508082111561141d57600080fd5b6114298b838c0161130d565b935060c08a013591508082111561143f57600080fd5b5061144c8a828b0161130d565b91505092959891949750929550565b60006020828403121561146d57600080fd5b81356112618161135c565b6000806000806000806000806000806101408b8d03121561149857600080fd5b8a3567ffffffffffffffff808211156114b057600080fd5b6114bc8e838f0161130d565b9b5060208d01359150808211156114d257600080fd5b6114de8e838f0161130d565b9a506114ec60408e0161132d565b99506114fa60608e0161134a565b985061150860808e01611371565b975060a08d013591508082111561151e57600080fd5b61152a8e838f0161130d565b965060c08d013591508082111561154057600080fd5b61154c8e838f0161130d565b955060e08d013594506101008d013591508082111561156a57600080fd5b506115778d828e0161130d565b9250506101208b013590509295989b9194979a5092959850565b600080604083850312156115a457600080fd5b82356115af8161135c565b9150602083013567ffffffffffffffff8111156115cb57600080fd5b8301601f810185136115dc57600080fd5b6115eb85823560208401611297565b9150509250929050565b60006020828403121561160757600080fd5b5035919050565b60005b83811015611629578181015183820152602001611611565b838111156110635750506000910152565b6000815180845261165281602086016020860161160e565b601f01601f19169290920160200192915050565b604081526000611679604083018561163a565b828103602084015261121f818561163a565b60608152600061169e606083018661163a565b82810360208401526116b0818661163a565b905082810360408401526116c4818561163a565b9695505050505050565b805160208083015191908110156116ef576000198160200360031b1b821691505b50919050565b60006101008083526117098184018c61163a565b9050828103602084015261171d818b61163a565b6001600160a01b038a81166040860152898116606086015267ffffffffffffffff8916608086015261ffff881660a0860152861660c085015283810360e0850152905061176a818561163a565b9b9a5050505050505050505050565b60006020828403121561178b57600080fd5b5051919050565b600082516117a481846020870161160e565b9190910192915050565b602081526000611261602083018461163a56fe416464726573733a206c6f772d6c6576656c2064656c65676174652063616c6c206661696c6564a2646970667358221220a5e9ae386766e4204b5dedb2c04498c5d46b860151ee7fb7c75d256c4ce49c9164736f6c634300080d0033",
    "linkReferences": {}
  }
}