{
  "abi": [
    {
      "anonymous": false,
      "inputs": [
        {
          "indexed": true,
          "internalType": "address",
          "name": "target",
          "type": "address"
        },
        {
          "indexed": false,
          "internalType": "string",
          "name": "metadataBase",
          "type": "string"
        },
        {
          "indexed": false,
          "internalType": "string",
          "name": "metadataExtension",
          "type": "string"
        },
        {
          "indexed": false,
          "internalType": "string",
          "name": "contractURI",
          "type": "string"
        },
        {
          "indexed": false,
          "internalType": "uint256",
          "name": "freezeAt",
          "type": "uint256"
        }
      ],
      "name": "MetadataUpdated",
      "type": "event"
    },
    {
      "anonymous": false,
      "inputs": [
        {
          "indexed": true,
          "internalType": "address",
          "name": "target",
          "type": "address"
        },
        {
          "indexed": false,
          "internalType": "bytes32",
          "name": "provenanceHash",
          "type": "bytes32"
        }
      ],
      "name": "ProvenanceHashUpdated",
      "type": "event"
    },
    {
      "inputs": [],
      "name": "contractURI",
      "outputs": [
        {
          "internalType": "string",
          "name": "",
          "type": "string"
        }
      ],
      "stateMutability": "view",
      "type": "function"
    },
    {
      "inputs": [
        {
          "internalType": "bytes",
          "name": "data",
          "type": "bytes"
        }
      ],
      "name": "initializeWithData",
      "outputs": [],
      "stateMutability": "nonpayable",
      "type": "function"
    },
    {
      "inputs": [
        {
          "internalType": "address",
          "name": "",
          "type": "address"
        }
      ],
      "name": "metadataBaseByContract",
      "outputs": [
        {
          "internalType": "string",
          "name": "base",
          "type": "string"
        },
        {
          "internalType": "string",
          "name": "extension",
          "type": "string"
        },
        {
          "internalType": "string",
          "name": "contractURI",
          "type": "string"
        },
        {
          "internalType": "uint256",
          "name": "freezeAt",
          "type": "uint256"
        }
      ],
      "stateMutability": "view",
      "type": "function"
    },
    {
      "inputs": [
        {
          "internalType": "address",
          "name": "",
          "type": "address"
        }
      ],
      "name": "provenanceHashes",
      "outputs": [
        {
          "internalType": "bytes32",
          "name": "",
          "type": "bytes32"
        }
      ],
      "stateMutability": "view",
      "type": "function"
    },
    {
      "inputs": [
        {
          "internalType": "uint256",
          "name": "tokenId",
          "type": "uint256"
        }
      ],
      "name": "tokenURI",
      "outputs": [
        {
          "internalType": "string",
          "name": "",
          "type": "string"
        }
      ],
      "stateMutability": "view",
      "type": "function"
    },
    {
      "inputs": [
        {
          "internalType": "address",
          "name": "target",
          "type": "address"
        },
        {
          "internalType": "string",
          "name": "baseUri",
          "type": "string"
        },
        {
          "internalType": "string",
          "name": "newContractUri",
          "type": "string"
        }
      ],
      "name": "updateMetadataBase",
      "outputs": [],
      "stateMutability": "nonpayable",
      "type": "function"
    },
    {
      "inputs": [
        {
          "internalType": "address",
          "name": "target",
          "type": "address"
        },
        {
          "internalType": "string",
          "name": "metadataBase",
          "type": "string"
        },
        {
          "internalType": "string",
          "name": "metadataExtension",
          "type": "string"
        },
        {
          "internalType": "string",
          "name": "newContractURI",
          "type": "string"
        },
        {
          "internalType": "uint256",
          "name": "freezeAt",
          "type": "uint256"
        }
      ],
      "name": "updateMetadataBaseWithDetails",
      "outputs": [],
      "stateMutability": "nonpayable",
      "type": "function"
    },
    {
      "inputs": [
        {
          "internalType": "address",
          "name": "target",
          "type": "address"
        },
        {
          "internalType": "bytes32",
          "name": "provenanceHash",
          "type": "bytes32"
        }
      ],
      "name": "updateProvenanceHash",
      "outputs": [],
      "stateMutability": "nonpayable",
      "type": "function"
    }
  ],
  "bytecode": {
    "object": "0x608060405234801561001057600080fd5b50611184806100206000396000f3fe608060405234801561001057600080fd5b50600436106100885760003560e01c8063c87b56dd1161005b578063c87b56dd146100f4578063cc1306db14610114578063de5af49b14610127578063e8a3d4851461015557600080fd5b806342495a951461008d578063856a7ffa146100a257806391074f98146100b5578063af806d56146100e1575b600080fd5b6100a061009b366004610ce2565b61015d565b005b6100a06100b0366004610d83565b61022b565b6100c86100c3366004610dcc565b610268565b6040516100d89493929190610e3f565b60405180910390f35b6100a06100ef366004610e8a565b610428565b610107610102366004610efe565b6104ff565b6040516100d89190610f17565b6100a0610122366004610f2a565b610728565b610147610135366004610dcc565b60016020526000908152604090205481565b6040519081526020016100d8565b610107610836565b846001600160a01b0381163314806101d85750604051630935e01b60e21b81523360048201526001600160a01b038216906324d7806c90602401602060405180830381865afa1580156101b4573d6000803e3d6000fd5b505050506040513d601f19601f820116820180604052508101906101d89190610f54565b6102165760405162461bcd60e51b815260206004820152600a60248201526927b7363c9030b236b4b760b11b60448201526064015b60405180910390fd5b61022386868686866108eb565b505050505050565b600080828060200190518101906102429190610fbb565b915091506102633383604051806020016040528060008152508460006108eb565b505050565b6000602081905290815260409020805481906102839061101f565b80601f01602080910402602001604051908101604052809291908181526020018280546102af9061101f565b80156102fc5780601f106102d1576101008083540402835291602001916102fc565b820191906000526020600020905b8154815290600101906020018083116102df57829003601f168201915b5050505050908060010180546103119061101f565b80601f016020809104026020016040519081016040528092919081815260200182805461033d9061101f565b801561038a5780601f1061035f5761010080835404028352916020019161038a565b820191906000526020600020905b81548152906001019060200180831161036d57829003601f168201915b50505050509080600201805461039f9061101f565b80601f01602080910402602001604051908101604052809291908181526020018280546103cb9061101f565b80156104185780601f106103ed57610100808354040283529160200191610418565b820191906000526020600020905b8154815290600101906020018083116103fb57829003601f168201915b5050505050908060030154905084565b826001600160a01b0381163314806104a35750604051630935e01b60e21b81523360048201526001600160a01b038216906324d7806c90602401602060405180830381865afa15801561047f573d6000803e3d6000fd5b505050506040513d601f19601f820116820180604052508101906104a39190610f54565b6104dc5760405162461bcd60e51b815260206004820152600a60248201526927b7363c9030b236b4b760b11b604482015260640161020d565b6104f98484604051806020016040528060008152508560006108eb565b50505050565b3360009081526020819052604080822081516080810190925280546060939291908290829061052d9061101f565b80601f01602080910402602001604051908101604052809291908181526020018280546105599061101f565b80156105a65780601f1061057b576101008083540402835291602001916105a6565b820191906000526020600020905b81548152906001019060200180831161058957829003601f168201915b505050505081526020016001820180546105bf9061101f565b80601f01602080910402602001604051908101604052809291908181526020018280546105eb9061101f565b80156106385780601f1061060d57610100808354040283529160200191610638565b820191906000526020600020905b81548152906001019060200180831161061b57829003601f168201915b505050505081526020016002820180546106519061101f565b80601f016020809104026020016040519081016040528092919081815260200182805461067d9061101f565b80156106ca5780601f1061069f576101008083540402835291602001916106ca565b820191906000526020600020905b8154815290600101906020018083116106ad57829003601f168201915b5050505050815260200160038201548152505090508060000151516000036106f157600080fd5b80516106fc84610a21565b60208084015160405161071194939201611059565b604051602081830303815290604052915050919050565b816001600160a01b0381163314806107a35750604051630935e01b60e21b81523360048201526001600160a01b038216906324d7806c90602401602060405180830381865afa15801561077f573d6000803e3d6000fd5b505050506040513d601f19601f820116820180604052508101906107a39190610f54565b6107dc5760405162461bcd60e51b815260206004820152600a60248201526927b7363c9030b236b4b760b11b604482015260640161020d565b6001600160a01b03831660008181526001602052604090819020849055517ff2e078c4022bfd6c56addd06540a4a5dd4252b6b2c424b6840c184063f48fc27906108299085815260200190565b60405180910390a2505050565b336000908152602081905260408120600201805460609291906108589061101f565b80601f01602080910402602001604051908101604052809291908181526020018280546108849061101f565b80156108d15780601f106108a6576101008083540402835291602001916108d1565b820191906000526020600020905b8154815290600101906020018083116108b457829003601f168201915b5050505050905080516000036108e657600080fd5b919050565b8015806108f757504281105b6109435760405162461bcd60e51b815260206004820152600f60248201527f4d657461646174612066726f7a656e0000000000000000000000000000000000604482015260640161020d565b604080516080810182528581526020808201869052818301859052606082018490526001600160a01b03881660009081528082529290922081518051929391926109909284920190610b5e565b5060208281015180516109a99260018501920190610b5e565b50604082015180516109c5916002840191602090910190610b5e565b5060608201518160030155905050846001600160a01b03167f5eff125d5659803f33dbda215d6e8bfe0a404fd213a9ecb5e61973ee16cb17e785858585604051610a129493929190610e3f565b60405180910390a25050505050565b606081600003610a6457505060408051808201909152600181527f3000000000000000000000000000000000000000000000000000000000000000602082015290565b8160005b8115610a8e5780610a78816110b2565b9150610a879050600a836110e1565b9150610a68565b60008167ffffffffffffffff811115610aa957610aa9610c0e565b6040519080825280601f01601f191660200182016040528015610ad3576020820181803683370190505b5090505b8415610b5657610ae86001836110f5565b9150610af5600a8661110c565b610b00906030611120565b60f81b818381518110610b1557610b15611138565b60200101907effffffffffffffffffffffffffffffffffffffffffffffffffffffffffffff1916908160001a905350610b4f600a866110e1565b9450610ad7565b949350505050565b828054610b6a9061101f565b90600052602060002090601f016020900481019282610b8c5760008555610bd2565b82601f10610ba557805160ff1916838001178555610bd2565b82800160010185558215610bd2579182015b82811115610bd2578251825591602001919060010190610bb7565b50610bde929150610be2565b5090565b5b80821115610bde5760008155600101610be3565b80356001600160a01b03811681146108e657600080fd5b634e487b7160e01b600052604160045260246000fd5b604051601f8201601f1916810167ffffffffffffffff81118282101715610c4d57610c4d610c0e565b604052919050565b600067ffffffffffffffff821115610c6f57610c6f610c0e565b50601f01601f191660200190565b6000610c90610c8b84610c55565b610c24565b9050828152838383011115610ca457600080fd5b828260208301376000602084830101529392505050565b600082601f830112610ccc57600080fd5b610cdb83833560208501610c7d565b9392505050565b600080600080600060a08688031215610cfa57600080fd5b610d0386610bf7565b9450602086013567ffffffffffffffff80821115610d2057600080fd5b610d2c89838a01610cbb565b95506040880135915080821115610d4257600080fd5b610d4e89838a01610cbb565b94506060880135915080821115610d6457600080fd5b50610d7188828901610cbb565b95989497509295608001359392505050565b600060208284031215610d9557600080fd5b813567ffffffffffffffff811115610dac57600080fd5b8201601f81018413610dbd57600080fd5b610b5684823560208401610c7d565b600060208284031215610dde57600080fd5b610cdb82610bf7565b60005b83811015610e02578181015183820152602001610dea565b838111156104f95750506000910152565b60008151808452610e2b816020860160208601610de7565b601f01601f19169290920160200192915050565b608081526000610e526080830187610e13565b8281036020840152610e648187610e13565b90508281036040840152610e788186610e13565b91505082606083015295945050505050565b600080600060608486031215610e9f57600080fd5b610ea884610bf7565b9250602084013567ffffffffffffffff80821115610ec557600080fd5b610ed187838801610cbb565b93506040860135915080821115610ee757600080fd5b50610ef486828701610cbb565b9150509250925092565b600060208284031215610f1057600080fd5b5035919050565b602081526000610cdb6020830184610e13565b60008060408385031215610f3d57600080fd5b610f4683610bf7565b946020939093013593505050565b600060208284031215610f6657600080fd5b81518015158114610cdb57600080fd5b600082601f830112610f8757600080fd5b8151610f95610c8b82610c55565b818152846020838601011115610faa57600080fd5b610b56826020830160208701610de7565b60008060408385031215610fce57600080fd5b825167ffffffffffffffff80821115610fe657600080fd5b610ff286838701610f76565b9350602085015191508082111561100857600080fd5b5061101585828601610f76565b9150509250929050565b600181811c9082168061103357607f821691505b60208210810361105357634e487b7160e01b600052602260045260246000fd5b50919050565b6000845161106b818460208901610de7565b84519083019061107f818360208901610de7565b8451910190611092818360208801610de7565b0195945050505050565b634e487b7160e01b600052601160045260246000fd5b6000600182016110c4576110c461109c565b5060010190565b634e487b7160e01b600052601260045260246000fd5b6000826110f0576110f06110cb565b500490565b6000828210156111075761110761109c565b500390565b60008261111b5761111b6110cb565b500690565b600082198211156111335761113361109c565b500190565b634e487b7160e01b600052603260045260246000fdfea2646970667358221220dd23a931a3d94da2ea3ba18cbdd3eadf052395c9548125397345c776ef88ee3764736f6c634300080d0033",
    "linkReferences": {}
  },
  "methodIdentifiers": {
    "contractURI()": "e8a3d485",
    "initializeWithData(bytes)": "856a7ffa",
    "metadataBaseByContract(address)": "91074f98",
    "provenanceHashes(address)": "de5af49b",
    "tokenURI(uint256)": "c87b56dd",
    "updateMetadataBase(address,string,string)": "af806d56",
    "updateMetadataBaseWithDetails(address,string,string,string,uint256)": "42495a95",
    "updateProvenanceHash(address,bytes32)": "cc1306db"
  },
  "userdoc": {
    "version": 1,
    "kind": "user",
    "methods": {
      "contractURI()": {
        "notice": "A contract URI for the given drop contract"
      },
      "tokenURI(uint256)": {
        "notice": "A token URI for the given drops contract"
      },
      "updateMetadataBase(address,string,string)": {
        "notice": "Update metadata base URI and contract URI"
      },
      "updateMetadataBaseWithDetails(address,string,string,string,uint256)": {
        "notice": "Update metadata base URI, extension, contract URI and freezing detailsUpdate metadata base URI, extension, contract URI and freezing detailsUpdate metadata base URI, extension, contract URI and freezing detailsUpdate metadata base URI, extension, contract URI and freezing detailsUpdate metadata base URI, extension, contract URI and freezing detailsUpdate metadata base URI, extension, contract URI and freezing detailsUpdate metadata base URI, extension, contract URI and freezing detailsUpdate metadata base URI, extension, contract URI and freezing details"
      },
      "updateProvenanceHash(address,bytes32)": {
        "notice": "Update the "
      }
    },
    "notice": "Drops metadata system"
  },
  "devdoc": {
    "version": 1,
    "kind": "dev",
    "methods": {
      "contractURI()": {
        "details": "reverts if a contract uri is not provided"
      },
      "tokenURI(uint256)": {
        "details": "reverts if a contract uri is not set"
      },
      "updateMetadataBase(address,string,string)": {
        "params": {
          "baseUri": "new base URI",
          "newContractUri": "new contract URI (can be an empty string)"
        }
      },
      "updateMetadataBaseWithDetails(address,string,string,string,uint256)": {
        "params": {
          "freezeAt": "time to freeze the contract metadata at (set to 0 to disable)",
          "metadataBase": "new base URI to update metadata with",
          "metadataExtension": "new extension to append to base metadata URI",
          "target": "target contract to update metadata for"
        }
      }
    }
  }
}