{
  "address": "0xE51051a204afb2fC071A2406914cdEA5638e5018",
  "abi": [
    {
      "inputs": [
        {
          "internalType": "string",
          "name": "name",
          "type": "string"
        },
        {
          "internalType": "string",
          "name": "symbol",
          "type": "string"
        }
      ],
      "stateMutability": "nonpayable",
      "type": "constructor"
    },
    {
      "anonymous": false,
      "inputs": [
        {
          "indexed": true,
          "internalType": "address",
          "name": "owner",
          "type": "address"
        },
        {
          "indexed": true,
          "internalType": "address",
          "name": "approved",
          "type": "address"
        },
        {
          "indexed": true,
          "internalType": "uint256",
          "name": "tokenId",
          "type": "uint256"
        }
      ],
      "name": "Approval",
      "type": "event"
    },
    {
      "anonymous": false,
      "inputs": [
        {
          "indexed": true,
          "internalType": "address",
          "name": "owner",
          "type": "address"
        },
        {
          "indexed": true,
          "internalType": "address",
          "name": "operator",
          "type": "address"
        },
        {
          "indexed": false,
          "internalType": "bool",
          "name": "approved",
          "type": "bool"
        }
      ],
      "name": "ApprovalForAll",
      "type": "event"
    },
    {
      "anonymous": false,
      "inputs": [
        {
          "indexed": false,
          "internalType": "uint256",
          "name": "serialId",
          "type": "uint256"
        }
      ],
      "name": "CreatedSerial",
      "type": "event"
    },
    {
      "anonymous": false,
      "inputs": [
        {
          "indexed": false,
          "internalType": "uint256",
          "name": "serialId",
          "type": "uint256"
        },
        {
          "indexed": false,
          "internalType": "uint256",
          "name": "tokenId",
          "type": "uint256"
        },
        {
          "indexed": false,
          "internalType": "address",
          "name": "minter",
          "type": "address"
        }
      ],
      "name": "MintedSerial",
      "type": "event"
    },
    {
      "anonymous": false,
      "inputs": [
        {
          "indexed": true,
          "internalType": "bytes32",
          "name": "role",
          "type": "bytes32"
        },
        {
          "indexed": true,
          "internalType": "bytes32",
          "name": "previousAdminRole",
          "type": "bytes32"
        },
        {
          "indexed": true,
          "internalType": "bytes32",
          "name": "newAdminRole",
          "type": "bytes32"
        }
      ],
      "name": "RoleAdminChanged",
      "type": "event"
    },
    {
      "anonymous": false,
      "inputs": [
        {
          "indexed": true,
          "internalType": "bytes32",
          "name": "role",
          "type": "bytes32"
        },
        {
          "indexed": true,
          "internalType": "address",
          "name": "account",
          "type": "address"
        },
        {
          "indexed": true,
          "internalType": "address",
          "name": "sender",
          "type": "address"
        }
      ],
      "name": "RoleGranted",
      "type": "event"
    },
    {
      "anonymous": false,
      "inputs": [
        {
          "indexed": true,
          "internalType": "bytes32",
          "name": "role",
          "type": "bytes32"
        },
        {
          "indexed": true,
          "internalType": "address",
          "name": "account",
          "type": "address"
        },
        {
          "indexed": true,
          "internalType": "address",
          "name": "sender",
          "type": "address"
        }
      ],
      "name": "RoleRevoked",
      "type": "event"
    },
    {
      "anonymous": false,
      "inputs": [
        {
          "indexed": false,
          "internalType": "uint256",
          "name": "serialId",
          "type": "uint256"
        },
        {
          "indexed": false,
          "internalType": "bool",
          "name": "isPaused",
          "type": "bool"
        }
      ],
      "name": "SetSerialPaused",
      "type": "event"
    },
    {
      "anonymous": false,
      "inputs": [
        {
          "indexed": true,
          "internalType": "address",
          "name": "from",
          "type": "address"
        },
        {
          "indexed": true,
          "internalType": "address",
          "name": "to",
          "type": "address"
        },
        {
          "indexed": true,
          "internalType": "uint256",
          "name": "tokenId",
          "type": "uint256"
        }
      ],
      "name": "Transfer",
      "type": "event"
    },
    {
      "inputs": [],
      "name": "CREATE_SERIAL_ROLE",
      "outputs": [
        {
          "internalType": "bytes32",
          "name": "",
          "type": "bytes32"
        }
      ],
      "stateMutability": "view",
      "type": "function"
    },
    {
      "inputs": [],
      "name": "DEFAULT_ADMIN_ROLE",
      "outputs": [
        {
          "internalType": "bytes32",
          "name": "",
          "type": "bytes32"
        }
      ],
      "stateMutability": "view",
      "type": "function"
    },
    {
      "inputs": [],
      "name": "MINTER_ROLE",
      "outputs": [
        {
          "internalType": "bytes32",
          "name": "",
          "type": "bytes32"
        }
      ],
      "stateMutability": "view",
      "type": "function"
    },
    {
      "inputs": [
        {
          "internalType": "address",
          "name": "to",
          "type": "address"
        },
        {
          "internalType": "uint256",
          "name": "tokenId",
          "type": "uint256"
        }
      ],
      "name": "approve",
      "outputs": [],
      "stateMutability": "nonpayable",
      "type": "function"
    },
    {
      "inputs": [
        {
          "internalType": "address",
          "name": "owner",
          "type": "address"
        }
      ],
      "name": "balanceOf",
      "outputs": [
        {
          "internalType": "uint256",
          "name": "",
          "type": "uint256"
        }
      ],
      "stateMutability": "view",
      "type": "function"
    },
    {
      "inputs": [
        {
          "internalType": "string",
          "name": "name",
          "type": "string"
        },
        {
          "internalType": "string",
          "name": "description",
          "type": "string"
        },
        {
          "internalType": "string",
          "name": "imageStoragePath",
          "type": "string"
        },
        {
          "internalType": "string",
          "name": "animationStoragePath",
          "type": "string"
        },
        {
          "internalType": "uint256",
          "name": "ethPrice",
          "type": "uint256"
        },
        {
          "internalType": "address payable",
          "name": "purchaseRecipient",
          "type": "address"
        },
        {
          "internalType": "uint256",
          "name": "serialSize",
          "type": "uint256"
        },
        {
          "internalType": "bool",
          "name": "paused",
          "type": "bool"
        }
      ],
      "name": "createSerial",
      "outputs": [],
      "stateMutability": "nonpayable",
      "type": "function"
    },
    {
      "inputs": [],
      "name": "currentSerial",
      "outputs": [
        {
          "internalType": "uint256",
          "name": "",
          "type": "uint256"
        }
      ],
      "stateMutability": "view",
      "type": "function"
    },
    {
      "inputs": [
        {
          "internalType": "uint256",
          "name": "tokenId",
          "type": "uint256"
        }
      ],
      "name": "getApproved",
      "outputs": [
        {
          "internalType": "address",
          "name": "",
          "type": "address"
        }
      ],
      "stateMutability": "view",
      "type": "function"
    },
    {
      "inputs": [
        {
          "internalType": "uint256",
          "name": "tokenId",
          "type": "uint256"
        }
      ],
      "name": "getContentIPFSCids",
      "outputs": [
        {
          "internalType": "string",
          "name": "",
          "type": "string"
        },
        {
          "internalType": "string",
          "name": "",
          "type": "string"
        }
      ],
      "stateMutability": "view",
      "type": "function"
    },
    {
      "inputs": [
        {
          "internalType": "bytes32",
          "name": "role",
          "type": "bytes32"
        }
      ],
      "name": "getRoleAdmin",
      "outputs": [
        {
          "internalType": "bytes32",
          "name": "",
          "type": "bytes32"
        }
      ],
      "stateMutability": "view",
      "type": "function"
    },
    {
      "inputs": [
        {
          "internalType": "uint256",
          "name": "serialId",
          "type": "uint256"
        }
      ],
      "name": "getSerial",
      "outputs": [
        {
          "components": [
            {
              "internalType": "string",
              "name": "name",
              "type": "string"
            },
            {
              "internalType": "string",
              "name": "description",
              "type": "string"
            },
            {
              "internalType": "string",
              "name": "animationStoragePath",
              "type": "string"
            },
            {
              "internalType": "string",
              "name": "imageStoragePath",
              "type": "string"
            },
            {
              "internalType": "address payable",
              "name": "purchaseRecipient",
              "type": "address"
            },
            {
              "internalType": "uint256",
              "name": "ethPrice",
              "type": "uint256"
            },
            {
              "internalType": "uint256",
              "name": "serialSize",
              "type": "uint256"
            },
            {
              "internalType": "uint256",
              "name": "atSerialId",
              "type": "uint256"
            },
            {
              "internalType": "bool",
              "name": "paused",
              "type": "bool"
            },
            {
              "internalType": "uint256",
              "name": "firstReservedToken",
              "type": "uint256"
            }
          ],
          "internalType": "struct ERC721SerialFactory.SerialConfig",
          "name": "",
          "type": "tuple"
        }
      ],
      "stateMutability": "view",
      "type": "function"
    },
    {
      "inputs": [
        {
          "internalType": "uint256",
          "name": "tokenId",
          "type": "uint256"
        }
      ],
      "name": "getSerialByToken",
      "outputs": [
        {
          "components": [
            {
              "internalType": "string",
              "name": "name",
              "type": "string"
            },
            {
              "internalType": "string",
              "name": "description",
              "type": "string"
            },
            {
              "internalType": "string",
              "name": "animationStoragePath",
              "type": "string"
            },
            {
              "internalType": "string",
              "name": "imageStoragePath",
              "type": "string"
            },
            {
              "internalType": "address payable",
              "name": "purchaseRecipient",
              "type": "address"
            },
            {
              "internalType": "uint256",
              "name": "ethPrice",
              "type": "uint256"
            },
            {
              "internalType": "uint256",
              "name": "serialSize",
              "type": "uint256"
            },
            {
              "internalType": "uint256",
              "name": "atSerialId",
              "type": "uint256"
            },
            {
              "internalType": "bool",
              "name": "paused",
              "type": "bool"
            },
            {
              "internalType": "uint256",
              "name": "firstReservedToken",
              "type": "uint256"
            }
          ],
          "internalType": "struct ERC721SerialFactory.SerialConfig",
          "name": "",
          "type": "tuple"
        }
      ],
      "stateMutability": "view",
      "type": "function"
    },
    {
      "inputs": [
        {
          "internalType": "uint256",
          "name": "serialId",
          "type": "uint256"
        }
      ],
      "name": "getSerialRecipient",
      "outputs": [
        {
          "internalType": "address",
          "name": "",
          "type": "address"
        }
      ],
      "stateMutability": "view",
      "type": "function"
    },
    {
      "inputs": [
        {
          "internalType": "bytes32",
          "name": "role",
          "type": "bytes32"
        },
        {
          "internalType": "address",
          "name": "account",
          "type": "address"
        }
      ],
      "name": "grantRole",
      "outputs": [],
      "stateMutability": "nonpayable",
      "type": "function"
    },
    {
      "inputs": [
        {
          "internalType": "bytes32",
          "name": "role",
          "type": "bytes32"
        },
        {
          "internalType": "address",
          "name": "account",
          "type": "address"
        }
      ],
      "name": "hasRole",
      "outputs": [
        {
          "internalType": "bool",
          "name": "",
          "type": "bool"
        }
      ],
      "stateMutability": "view",
      "type": "function"
    },
    {
      "inputs": [
        {
          "internalType": "address",
          "name": "owner",
          "type": "address"
        },
        {
          "internalType": "address",
          "name": "operator",
          "type": "address"
        }
      ],
      "name": "isApprovedForAll",
      "outputs": [
        {
          "internalType": "bool",
          "name": "",
          "type": "bool"
        }
      ],
      "stateMutability": "view",
      "type": "function"
    },
    {
      "inputs": [
        {
          "internalType": "uint256",
          "name": "serialId",
          "type": "uint256"
        }
      ],
      "name": "mintSerial",
      "outputs": [
        {
          "internalType": "uint256",
          "name": "",
          "type": "uint256"
        }
      ],
      "stateMutability": "payable",
      "type": "function"
    },
    {
      "inputs": [
        {
          "internalType": "uint256",
          "name": "serialId",
          "type": "uint256"
        }
      ],
      "name": "mintSerialAuthenticated",
      "outputs": [
        {
          "internalType": "uint256",
          "name": "",
          "type": "uint256"
        }
      ],
      "stateMutability": "nonpayable",
      "type": "function"
    },
    {
      "inputs": [],
      "name": "name",
      "outputs": [
        {
          "internalType": "string",
          "name": "",
          "type": "string"
        }
      ],
      "stateMutability": "view",
      "type": "function"
    },
    {
      "inputs": [
        {
          "internalType": "uint256",
          "name": "tokenId",
          "type": "uint256"
        }
      ],
      "name": "ownerOf",
      "outputs": [
        {
          "internalType": "address",
          "name": "",
          "type": "address"
        }
      ],
      "stateMutability": "view",
      "type": "function"
    },
    {
      "inputs": [
        {
          "internalType": "address",
          "name": "tokenAddress",
          "type": "address"
        },
        {
          "internalType": "uint256",
          "name": "tokenAmount",
          "type": "uint256"
        }
      ],
      "name": "recoverERC20",
      "outputs": [],
      "stateMutability": "nonpayable",
      "type": "function"
    },
    {
      "inputs": [],
      "name": "recoverETH",
      "outputs": [],
      "stateMutability": "nonpayable",
      "type": "function"
    },
    {
      "inputs": [
        {
          "internalType": "bytes32",
          "name": "role",
          "type": "bytes32"
        },
        {
          "internalType": "address",
          "name": "account",
          "type": "address"
        }
      ],
      "name": "renounceRole",
      "outputs": [],
      "stateMutability": "nonpayable",
      "type": "function"
    },
    {
      "inputs": [
        {
          "internalType": "bytes32",
          "name": "role",
          "type": "bytes32"
        },
        {
          "internalType": "address",
          "name": "account",
          "type": "address"
        }
      ],
      "name": "revokeRole",
      "outputs": [],
      "stateMutability": "nonpayable",
      "type": "function"
    },
    {
      "inputs": [
        {
          "internalType": "address",
          "name": "from",
          "type": "address"
        },
        {
          "internalType": "address",
          "name": "to",
          "type": "address"
        },
        {
          "internalType": "uint256",
          "name": "tokenId",
          "type": "uint256"
        }
      ],
      "name": "safeTransferFrom",
      "outputs": [],
      "stateMutability": "nonpayable",
      "type": "function"
    },
    {
      "inputs": [
        {
          "internalType": "address",
          "name": "from",
          "type": "address"
        },
        {
          "internalType": "address",
          "name": "to",
          "type": "address"
        },
        {
          "internalType": "uint256",
          "name": "tokenId",
          "type": "uint256"
        },
        {
          "internalType": "bytes",
          "name": "_data",
          "type": "bytes"
        }
      ],
      "name": "safeTransferFrom",
      "outputs": [],
      "stateMutability": "nonpayable",
      "type": "function"
    },
    {
      "inputs": [
        {
          "internalType": "address",
          "name": "operator",
          "type": "address"
        },
        {
          "internalType": "bool",
          "name": "approved",
          "type": "bool"
        }
      ],
      "name": "setApprovalForAll",
      "outputs": [],
      "stateMutability": "nonpayable",
      "type": "function"
    },
    {
      "inputs": [
        {
          "internalType": "string",
          "name": "newIpfsBaseUrl",
          "type": "string"
        }
      ],
      "name": "setIPFSBase",
      "outputs": [],
      "stateMutability": "nonpayable",
      "type": "function"
    },
    {
      "inputs": [
        {
          "internalType": "uint256",
          "name": "serialId",
          "type": "uint256"
        },
        {
          "internalType": "bool",
          "name": "paused",
          "type": "bool"
        }
      ],
      "name": "setSerialPaused",
      "outputs": [],
      "stateMutability": "nonpayable",
      "type": "function"
    },
    {
      "inputs": [
        {
          "internalType": "bytes4",
          "name": "interfaceId",
          "type": "bytes4"
        }
      ],
      "name": "supportsInterface",
      "outputs": [
        {
          "internalType": "bool",
          "name": "",
          "type": "bool"
        }
      ],
      "stateMutability": "view",
      "type": "function"
    },
    {
      "inputs": [],
      "name": "symbol",
      "outputs": [
        {
          "internalType": "string",
          "name": "",
          "type": "string"
        }
      ],
      "stateMutability": "view",
      "type": "function"
    },
    {
      "inputs": [],
      "name": "tokenIdsReserved",
      "outputs": [
        {
          "internalType": "uint256",
          "name": "",
          "type": "uint256"
        }
      ],
      "stateMutability": "view",
      "type": "function"
    },
    {
      "inputs": [
        {
          "internalType": "uint256",
          "name": "tokenId",
          "type": "uint256"
        }
      ],
      "name": "tokenURI",
      "outputs": [
        {
          "internalType": "string",
          "name": "",
          "type": "string"
        }
      ],
      "stateMutability": "view",
      "type": "function"
    },
    {
      "inputs": [
        {
          "internalType": "address",
          "name": "from",
          "type": "address"
        },
        {
          "internalType": "address",
          "name": "to",
          "type": "address"
        },
        {
          "internalType": "uint256",
          "name": "tokenId",
          "type": "uint256"
        }
      ],
      "name": "transferFrom",
      "outputs": [],
      "stateMutability": "nonpayable",
      "type": "function"
    },
    {
      "inputs": [
        {
          "internalType": "uint256",
          "name": "serialId",
          "type": "uint256"
        },
        {
          "internalType": "address payable",
          "name": "newRecipient",
          "type": "address"
        }
      ],
      "name": "updateSerialRecipient",
      "outputs": [],
      "stateMutability": "nonpayable",
      "type": "function"
    }
  ],
  "transactionHash": "0xc3937543b16c77a380f8a014bd95f96bd359917eab65db6c1c711add8a1fa65a",
  "args": [
    "Test Serial",
    "TESTSERIAL"
  ],
  "solcInputHash": "6483699748331cb9224469f55b31cd7c",
  "bytecode": "0x6001600855600060095560c0604052601560808190527f68747470733a2f2f697066732e696f2f697066732f000000000000000000000060a09081526200004a91600a9190620001c2565b503480156200005857600080fd5b5060405162003ee638038062003ee68339810160408190526200007b916200031b565b81518290829062000094906000906020850190620001c2565b508051620000aa906001906020840190620001c2565b5050506001600781905550620000cf6000801b336200010e60201b620021b91760201c565b620001067f06272a1175ca60b4f7ddd9aa6c6ff2aa8b7a8d8ca106d57432a80927d567493a336200010e60201b620021b91760201c565b5050620003d5565b6200011a82826200011e565b5050565b60008281526006602090815260408083206001600160a01b038516845290915290205460ff166200011a5760008281526006602090815260408083206001600160a01b03851684529091529020805460ff191660011790556200017e3390565b6001600160a01b0316816001600160a01b0316837f2f8788117e7eff1d82e926ec794901d17c78024a50270940304540a733656f0d60405160405180910390a45050565b828054620001d09062000382565b90600052602060002090601f016020900481019282620001f457600085556200023f565b82601f106200020f57805160ff19168380011785556200023f565b828001600101855582156200023f579182015b828111156200023f57825182559160200191906001019062000222565b506200024d92915062000251565b5090565b5b808211156200024d576000815560010162000252565b600082601f83011262000279578081fd5b81516001600160401b0380821115620002965762000296620003bf565b604051601f8301601f19908116603f01168101908282118183101715620002c157620002c1620003bf565b81604052838152602092508683858801011115620002dd578485fd5b8491505b83821015620003005785820183015181830184015290820190620002e1565b838211156200031157848385830101525b9695505050505050565b600080604083850312156200032e578182fd5b82516001600160401b038082111562000345578384fd5b620003538683870162000268565b9350602085015191508082111562000369578283fd5b50620003788582860162000268565b9150509250929050565b600181811c908216806200039757607f821691505b60208210811415620003b957634e487b7160e01b600052602260045260246000fd5b50919050565b634e487b7160e01b600052604160045260246000fd5b613b0180620003e56000396000f3fe6080604052600436106102045760003560e01c806370a0823111610118578063b386e248116100a0578063d53913931161006f578063d5391393146105fd578063d547741f14610631578063d639ba9114610651578063e985e9c514610667578063f586bb14146106b057600080fd5b8063b386e2481461056f578063b88d4fde1461058f578063c87b56dd146105af578063cffe1961146105cf57600080fd5b806395d89b41116100e757806395d89b41146104ef5780639b5bfb9e146105045780639e6dd88e14610524578063a217fddf1461053a578063a22cb4651461054f57600080fd5b806370a0823114610462578063836860f0146104825780638980f11f146104af57806391d14854146104cf57600080fd5b806323b872dd1161019b57806336568abe1161016a57806336568abe146103c257806342842e0e146103e257806354447c6c1461040257806355c4c220146104225780636352211e1461044257600080fd5b806323b872dd14610330578063248a9ca3146103505780632f2ff15d146103805780632fd95ff6146103a057600080fd5b8063081812fc116101d7578063081812fc146102a5578063095ea7b3146102dd5780630f03d7e0146102fd5780631067fa801461031d57600080fd5b806301ffc9a7146102095780630614117a1461023e578063063922891461025557806306fdde0314610283575b600080fd5b34801561021557600080fd5b50610229610224366004613157565b6106d0565b60405190151581526020015b60405180910390f35b34801561024a57600080fd5b506102536106f0565b005b34801561026157600080fd5b5061027561027036600461311b565b610785565b604051908152602001610235565b34801561028f57600080fd5b50610298610af3565b604051610235919061375b565b3480156102b157600080fd5b506102c56102c036600461311b565b610b85565b6040516001600160a01b039091168152602001610235565b3480156102e957600080fd5b506102536102f83660046130d4565b610c1a565b34801561030957600080fd5b5061025361031836600461329f565b610d30565b61027561032b36600461311b565b610dcc565b34801561033c57600080fd5b5061025361034b366004612fea565b61123c565b34801561035c57600080fd5b5061027561036b36600461311b565b60009081526006602052604090206001015490565b34801561038c57600080fd5b5061025361039b366004613133565b61126d565b3480156103ac57600080fd5b50610275600080516020613aac83398151915281565b3480156103ce57600080fd5b506102536103dd366004613133565b611293565b3480156103ee57600080fd5b506102536103fd366004612fea565b611311565b34801561040e57600080fd5b506102c561041d36600461311b565b61132c565b34801561042e57600080fd5b5061025361043d366004613133565b611372565b34801561044e57600080fd5b506102c561045d36600461311b565b6113e7565b34801561046e57600080fd5b5061027561047d366004612f96565b61145e565b34801561048e57600080fd5b506104a261049d36600461311b565b6114e5565b604051610235919061383f565b3480156104bb57600080fd5b506102536104ca3660046130d4565b6117c1565b3480156104db57600080fd5b506102296104ea366004613133565b611884565b3480156104fb57600080fd5b506102986118af565b34801561051057600080fd5b506104a261051f36600461311b565b6118be565b34801561053057600080fd5b5061027560085481565b34801561054657600080fd5b50610275600081565b34801561055b57600080fd5b5061025361056a3660046130a7565b6118f8565b34801561057b57600080fd5b5061025361058a3660046131c2565b6119bd565b34801561059b57600080fd5b506102536105aa36600461302a565b611be1565b3480156105bb57600080fd5b506102986105ca36600461311b565b611c13565b3480156105db57600080fd5b506105ef6105ea36600461311b565b611fc8565b60405161023592919061376e565b34801561060957600080fd5b506102757f9f2df0fed2c77648de5860a4cc508cd0818c85b8b8a1ab4ceeef8d981c8956a681565b34801561063d57600080fd5b5061025361064c366004613133565b612174565b34801561065d57600080fd5b5061027560095481565b34801561067357600080fd5b50610229610682366004612fb2565b6001600160a01b03918216600090815260056020908152604080832093909416825291909152205460ff1690565b3480156106bc57600080fd5b506102536106cb36600461318f565b61219a565b60006106db826121c3565b806106ea57506106ea82612213565b92915050565b6106fb600033611884565b6107385760405162461bcd60e51b81526020600482015260096024820152681393d508105555121160ba1b60448201526064015b60405180910390fd5b604051479033908290600081818185875af1925050503d806000811461077a576040519150601f19603f3d011682016040523d82523d6000602084013e61077f565b606091505b50505050565b6000600260075414156107da5760405162461bcd60e51b815260206004820152601f60248201527f5265656e7472616e637947756172643a207265656e7472616e742063616c6c00604482015260640161072f565b60026007557f9f2df0fed2c77648de5860a4cc508cd0818c85b8b8a1ab4ceeef8d981c8956a661080a8133612238565b6000600b848154811061082d57634e487b7160e01b600052603260045260246000fd5b90600052602060002090600a020160405180610140016040529081600082018054610857906139c3565b80601f0160208091040260200160405190810160405280929190818152602001828054610883906139c3565b80156108d05780601f106108a5576101008083540402835291602001916108d0565b820191906000526020600020905b8154815290600101906020018083116108b357829003601f168201915b505050505081526020016001820180546108e9906139c3565b80601f0160208091040260200160405190810160405280929190818152602001828054610915906139c3565b80156109625780601f1061093757610100808354040283529160200191610962565b820191906000526020600020905b81548152906001019060200180831161094557829003601f168201915b5050505050815260200160028201805461097b906139c3565b80601f01602080910402602001604051908101604052809291908181526020018280546109a7906139c3565b80156109f45780601f106109c9576101008083540402835291602001916109f4565b820191906000526020600020905b8154815290600101906020018083116109d757829003601f168201915b50505050508152602001600382018054610a0d906139c3565b80601f0160208091040260200160405190810160405280929190818152602001828054610a39906139c3565b8015610a865780601f10610a5b57610100808354040283529160200191610a86565b820191906000526020600020905b815481529060010190602001808311610a6957829003601f168201915b505050918352505060048201546001600160a01b03166020820152600582015460408201526006820154606082015260078201546080820152600882015460ff16151560a082015260099091015460c0909101529050610ae6818561229c565b6001600755949350505050565b606060008054610b02906139c3565b80601f0160208091040260200160405190810160405280929190818152602001828054610b2e906139c3565b8015610b7b5780601f10610b5057610100808354040283529160200191610b7b565b820191906000526020600020905b815481529060010190602001808311610b5e57829003601f168201915b5050505050905090565b6000818152600260205260408120546001600160a01b0316610bfe5760405162461bcd60e51b815260206004820152602c60248201527f4552433732313a20617070726f76656420717565727920666f72206e6f6e657860448201526b34b9ba32b73a103a37b5b2b760a11b606482015260840161072f565b506000908152600460205260409020546001600160a01b031690565b6000610c25826113e7565b9050806001600160a01b0316836001600160a01b03161415610c935760405162461bcd60e51b815260206004820152602160248201527f4552433732313a20617070726f76616c20746f2063757272656e74206f776e656044820152603960f91b606482015260840161072f565b336001600160a01b0382161480610caf5750610caf8133610682565b610d215760405162461bcd60e51b815260206004820152603860248201527f4552433732313a20617070726f76652063616c6c6572206973206e6f74206f7760448201527f6e6572206e6f7220617070726f76656420666f7220616c6c0000000000000000606482015260840161072f565b610d2b83836123a5565b505050565b600080516020613aac833981519152610d498133612238565b6040805184815283151560208201527f2de97099bdb32fa3e7dd733ae25c113ace8ed8969ea2b32976c81db40f60c043910160405180910390a181600b8481548110610da557634e487b7160e01b600052603260045260246000fd5b60009182526020909120600a90910201600801805460ff1916911515919091179055505050565b600060026007541415610e215760405162461bcd60e51b815260206004820152601f60248201527f5265656e7472616e637947756172643a207265656e7472616e742063616c6c00604482015260640161072f565b60026007819055506000600b8381548110610e4c57634e487b7160e01b600052603260045260246000fd5b90600052602060002090600a020160405180610140016040529081600082018054610e76906139c3565b80601f0160208091040260200160405190810160405280929190818152602001828054610ea2906139c3565b8015610eef5780601f10610ec457610100808354040283529160200191610eef565b820191906000526020600020905b815481529060010190602001808311610ed257829003601f168201915b50505050508152602001600182018054610f08906139c3565b80601f0160208091040260200160405190810160405280929190818152602001828054610f34906139c3565b8015610f815780601f10610f5657610100808354040283529160200191610f81565b820191906000526020600020905b815481529060010190602001808311610f6457829003601f168201915b50505050508152602001600282018054610f9a906139c3565b80601f0160208091040260200160405190810160405280929190818152602001828054610fc6906139c3565b80156110135780601f10610fe857610100808354040283529160200191611013565b820191906000526020600020905b815481529060010190602001808311610ff657829003601f168201915b5050505050815260200160038201805461102c906139c3565b80601f0160208091040260200160405190810160405280929190818152602001828054611058906139c3565b80156110a55780601f1061107a576101008083540402835291602001916110a5565b820191906000526020600020905b81548152906001019060200180831161108857829003601f168201915b505050918352505060048201546001600160a01b03166020820152600582015460408201526006820154606082015260078201546080820152600882015460ff16151560a082015260099091015460c090910152610100810151909150156111385760405162461bcd60e51b815260206004820152600660248201526514105554d15160d21b604482015260640161072f565b8060a0015134146111795760405162461bcd60e51b815260206004820152600b60248201526a57524f4e4720505249434560a81b604482015260640161072f565b60a0810151156112265760008082608001516001600160a01b03163460405160006040518083038185875af1925050503d80600081146111d5576040519150601f19603f3d011682016040523d82523d6000602084013e6111da565b606091505b5091509150816112235760405162461bcd60e51b81526020600482015260146024820152732330b4b632b2103a379039b2b7321022ba3432b960611b604482015260640161072f565b50505b611230818461229c565b60016007559392505050565b6112463382612413565b6112625760405162461bcd60e51b815260040161072f906137ee565b610d2b83838361250a565b6000828152600660205260409020600101546112898133612238565b610d2b83836126aa565b6001600160a01b03811633146113035760405162461bcd60e51b815260206004820152602f60248201527f416363657373436f6e74726f6c3a2063616e206f6e6c792072656e6f756e636560448201526e103937b632b9903337b91039b2b63360891b606482015260840161072f565b61130d8282612730565b5050565b610d2b83838360405180602001604052806000815250611be1565b6000600b828154811061134f57634e487b7160e01b600052603260045260246000fd5b600091825260209091206004600a9092020101546001600160a01b031692915050565b600080516020613aac83398151915261138b8133612238565b81600b84815481106113ad57634e487b7160e01b600052603260045260246000fd5b90600052602060002090600a020160040160006101000a8154816001600160a01b0302191690836001600160a01b03160217905550505050565b6000818152600260205260408120546001600160a01b0316806106ea5760405162461bcd60e51b815260206004820152602960248201527f4552433732313a206f776e657220717565727920666f72206e6f6e657869737460448201526832b73a103a37b5b2b760b91b606482015260840161072f565b60006001600160a01b0382166114c95760405162461bcd60e51b815260206004820152602a60248201527f4552433732313a2062616c616e636520717565727920666f7220746865207a65604482015269726f206164647265737360b01b606482015260840161072f565b506001600160a01b031660009081526003602052604090205490565b6114ed612def565b600b828154811061150e57634e487b7160e01b600052603260045260246000fd5b90600052602060002090600a020160405180610140016040529081600082018054611538906139c3565b80601f0160208091040260200160405190810160405280929190818152602001828054611564906139c3565b80156115b15780601f10611586576101008083540402835291602001916115b1565b820191906000526020600020905b81548152906001019060200180831161159457829003601f168201915b505050505081526020016001820180546115ca906139c3565b80601f01602080910402602001604051908101604052809291908181526020018280546115f6906139c3565b80156116435780601f1061161857610100808354040283529160200191611643565b820191906000526020600020905b81548152906001019060200180831161162657829003601f168201915b5050505050815260200160028201805461165c906139c3565b80601f0160208091040260200160405190810160405280929190818152602001828054611688906139c3565b80156116d55780601f106116aa576101008083540402835291602001916116d5565b820191906000526020600020905b8154815290600101906020018083116116b857829003601f168201915b505050505081526020016003820180546116ee906139c3565b80601f016020809104026020016040519081016040528092919081815260200182805461171a906139c3565b80156117675780601f1061173c57610100808354040283529160200191611767565b820191906000526020600020905b81548152906001019060200180831161174a57829003601f168201915b505050918352505060048201546001600160a01b03166020820152600582015460408201526006820154606082015260078201546080820152600882015460ff16151560a082015260099091015460c09091015292915050565b6117cc600033611884565b6118045760405162461bcd60e51b81526020600482015260096024820152681393d508105555121160ba1b604482015260640161072f565b60405163a9059cbb60e01b8152336004820152602481018290526001600160a01b0383169063a9059cbb90604401602060405180830381600087803b15801561184c57600080fd5b505af1158015611860573d6000803e3d6000fd5b505050506040513d601f19601f82011682018060405250810190610d2b91906130ff565b60009182526006602090815260408084206001600160a01b0393909316845291905290205460ff1690565b606060018054610b02906139c3565b6118c6612def565b6000828152600c6020526040902054600b8054909190811061150e57634e487b7160e01b600052603260045260246000fd5b6001600160a01b0382163314156119515760405162461bcd60e51b815260206004820152601960248201527f4552433732313a20617070726f766520746f2063616c6c657200000000000000604482015260640161072f565b3360008181526005602090815260408083206001600160a01b03871680855290835292819020805460ff191686151590811790915590519081529192917f17307eab39ab6107e8899845ad3d59bd9653f200f220920489ca2b5937696c31910160405180910390a35050565b600080516020613aac8339815191526119d68133612238565b60408051610140810182528a815260208082018b9052918101889052606081018990526001600160a01b038616608082015260a0810187905260c08101859052600060e08201819052841515610100830152600854610120830152600b80546001810182559152815180519293600a9092027f0175b7a638427703f0dbe7bb9bbf987a2551717b34e79f33b5b1008d1fa01db90192611a789284920190612e4d565b506020828101518051611a919260018501920190612e4d565b5060408201518051611aad916002840191602090910190612e4d565b5060608201518051611ac9916003840191602090910190612e4d565b5060808201516004820180546001600160a01b0319166001600160a01b0390921691909117905560a0820151600582015560c0820151600682015560e0820151600782015561010082015160088201805460ff191691151591909117905561012090910151600990910155600b547f2de97099bdb32fa3e7dd733ae25c113ace8ed8969ea2b32976c81db40f60c04390611b6590600190613969565b6040805191825284151560208301520160405180910390a1600b547f55ad6261b569492062b932c415f5c12221ee8be1557162749d4a87ec07a2906c90611bae90600190613969565b60405190815260200160405180910390a18260086000828254611bd1919061391e565b9091555050505050505050505050565b611beb3383612413565b611c075760405162461bcd60e51b815260040161072f906137ee565b61077f84848484612797565b6000818152600260205260409020546060906001600160a01b0316611c655760405162461bcd60e51b81526020600482015260086024820152672727902a27a5a2a760c11b604482015260640161072f565b6000828152600c6020526040812054600b80549091908110611c9757634e487b7160e01b600052603260045260246000fd5b90600052602060002090600a020160405180610140016040529081600082018054611cc1906139c3565b80601f0160208091040260200160405190810160405280929190818152602001828054611ced906139c3565b8015611d3a5780601f10611d0f57610100808354040283529160200191611d3a565b820191906000526020600020905b815481529060010190602001808311611d1d57829003601f168201915b50505050508152602001600182018054611d53906139c3565b80601f0160208091040260200160405190810160405280929190818152602001828054611d7f906139c3565b8015611dcc5780601f10611da157610100808354040283529160200191611dcc565b820191906000526020600020905b815481529060010190602001808311611daf57829003601f168201915b50505050508152602001600282018054611de5906139c3565b80601f0160208091040260200160405190810160405280929190818152602001828054611e11906139c3565b8015611e5e5780601f10611e3357610100808354040283529160200191611e5e565b820191906000526020600020905b815481529060010190602001808311611e4157829003601f168201915b50505050508152602001600382018054611e77906139c3565b80601f0160208091040260200160405190810160405280929190818152602001828054611ea3906139c3565b8015611ef05780601f10611ec557610100808354040283529160200191611ef0565b820191906000526020600020905b815481529060010190602001808311611ed357829003601f168201915b505050918352505060048201546001600160a01b03166020820152600582015460408201526006820154606082015260078201546080820152600882015460ff16151560a082015260099091015460c090910152610120810151909150600090611f5a9085613969565b611f6590600161391e565b8251909150611f73826127ca565b611f808460c001516127ca565b8460200151611f8f86866128e4565b611f98866127ca565b8751604051611fb097969594939291906020016133a3565b60405160208183030381529060405292505050919050565b6000818152600c6020526040902054600b80546060928392918110611ffd57634e487b7160e01b600052603260045260246000fd5b90600052602060002090600a0201600301600b600c6000868152602001908152602001600020548154811061204257634e487b7160e01b600052603260045260246000fd5b90600052602060002090600a020160020181805461205f906139c3565b80601f016020809104026020016040519081016040528092919081815260200182805461208b906139c3565b80156120d85780601f106120ad576101008083540402835291602001916120d8565b820191906000526020600020905b8154815290600101906020018083116120bb57829003601f168201915b505050505091508080546120eb906139c3565b80601f0160208091040260200160405190810160405280929190818152602001828054612117906139c3565b80156121645780601f1061213957610100808354040283529160200191612164565b820191906000526020600020905b81548152906001019060200180831161214757829003601f168201915b5050505050905091509150915091565b6000828152600660205260409020600101546121908133612238565b610d2b8383612730565b60006121a68133612238565b8151610d2b90600a906020850190612e4d565b61130d82826126aa565b60006001600160e01b031982166380ac58cd60e01b14806121f457506001600160e01b03198216635b5e139f60e01b145b806106ea57506301ffc9a760e01b6001600160e01b03198316146106ea565b60006001600160e01b03198216637965db0b60e01b14806106ea57506106ea826121c3565b6122428282611884565b61130d5761225a816001600160a01b031660146129b7565b6122658360206129b7565b60405160200161227692919061363a565b60408051601f198184030181529082905262461bcd60e51b825261072f9160040161375b565b60008260c001518360e00151106122e05760405162461bcd60e51b815260206004820152600860248201526714d3d3110813d55560c21b604482015260640161072f565b60008360e001518461012001516122f7919061391e565b90506123033382612ba0565b6000818152600c60205260409020839055600b8054600191908590811061233a57634e487b7160e01b600052603260045260246000fd5b90600052602060002090600a0201600701600082825461235a919061391e565b90915550506040805184815260208101839052338183015290517f324082de3a4de96b605b60a5caea156c737d3cabcd463779a47206a8d6e8c6c89181900360600190a19392505050565b600081815260046020526040902080546001600160a01b0319166001600160a01b03841690811790915581906123da826113e7565b6001600160a01b03167f8c5be1e5ebec7d5bd14f71427d1e84f3dd0314c0f7b2291e5b200ac8c7c3b92560405160405180910390a45050565b6000818152600260205260408120546001600160a01b031661248c5760405162461bcd60e51b815260206004820152602c60248201527f4552433732313a206f70657261746f7220717565727920666f72206e6f6e657860448201526b34b9ba32b73a103a37b5b2b760a11b606482015260840161072f565b6000612497836113e7565b9050806001600160a01b0316846001600160a01b031614806124d25750836001600160a01b03166124c784610b85565b6001600160a01b0316145b8061250257506001600160a01b0380821660009081526005602090815260408083209388168352929052205460ff165b949350505050565b826001600160a01b031661251d826113e7565b6001600160a01b0316146125855760405162461bcd60e51b815260206004820152602960248201527f4552433732313a207472616e73666572206f6620746f6b656e2074686174206960448201526839903737ba1037bbb760b91b606482015260840161072f565b6001600160a01b0382166125e75760405162461bcd60e51b8152602060048201526024808201527f4552433732313a207472616e7366657220746f20746865207a65726f206164646044820152637265737360e01b606482015260840161072f565b6125f26000826123a5565b6001600160a01b038316600090815260036020526040812080546001929061261b908490613969565b90915550506001600160a01b038216600090815260036020526040812080546001929061264990849061391e565b909155505060008181526002602052604080822080546001600160a01b0319166001600160a01b0386811691821790925591518493918716917fddf252ad1be2c89b69c2b068fc378daa952ba7f163c4a11628f55a4df523b3ef91a4505050565b6126b48282611884565b61130d5760008281526006602090815260408083206001600160a01b03851684529091529020805460ff191660011790556126ec3390565b6001600160a01b0316816001600160a01b0316837f2f8788117e7eff1d82e926ec794901d17c78024a50270940304540a733656f0d60405160405180910390a45050565b61273a8282611884565b1561130d5760008281526006602090815260408083206001600160a01b0385168085529252808320805460ff1916905551339285917ff6391f5c32d9c69d2a47ea670b442974b53935d1edc7fd64eb21e047a839171b9190a45050565b6127a284848461250a565b6127ae84848484612ce2565b61077f5760405162461bcd60e51b815260040161072f9061379c565b6060816127ee5750506040805180820190915260018152600360fc1b602082015290565b8160005b81156128185780612802816139fe565b91506128119050600a83613936565b91506127f2565b60008167ffffffffffffffff81111561284157634e487b7160e01b600052604160045260246000fd5b6040519080825280601f01601f19166020018201604052801561286b576020820181803683370190505b5090505b841561250257612880600183613969565b915061288d600a86613a19565b61289890603061391e565b60f81b8183815181106128bb57634e487b7160e01b600052603260045260246000fd5b60200101906001600160f81b031916908160001a9053506128dd600a86613936565b945061286f565b6060600083606001515111801561290057506000836040015151115b1561295057600a8360400151612915846127ca565b600a8660400151612925876127ca565b60405160200161293a9695949392919061356c565b60405160208183030381529060405290506106ea565b6060830151511561297d57600a836060015161296b846127ca565b60405160200161293a93929190613500565b604083015151156129a157604080840151905161293a91600a9181906020016136af565b5060408051602081019091526000815292915050565b606060006129c683600261394a565b6129d190600261391e565b67ffffffffffffffff8111156129f757634e487b7160e01b600052604160045260246000fd5b6040519080825280601f01601f191660200182016040528015612a21576020820181803683370190505b509050600360fc1b81600081518110612a4a57634e487b7160e01b600052603260045260246000fd5b60200101906001600160f81b031916908160001a905350600f60fb1b81600181518110612a8757634e487b7160e01b600052603260045260246000fd5b60200101906001600160f81b031916908160001a9053506000612aab84600261394a565b612ab690600161391e565b90505b6001811115612b4a576f181899199a1a9b1b9c1cb0b131b232b360811b85600f1660108110612af857634e487b7160e01b600052603260045260246000fd5b1a60f81b828281518110612b1c57634e487b7160e01b600052603260045260246000fd5b60200101906001600160f81b031916908160001a90535060049490941c93612b43816139ac565b9050612ab9565b508315612b995760405162461bcd60e51b815260206004820181905260248201527f537472696e67733a20686578206c656e67746820696e73756666696369656e74604482015260640161072f565b9392505050565b6001600160a01b038216612bf65760405162461bcd60e51b815260206004820181905260248201527f4552433732313a206d696e7420746f20746865207a65726f2061646472657373604482015260640161072f565b6000818152600260205260409020546001600160a01b031615612c5b5760405162461bcd60e51b815260206004820152601c60248201527f4552433732313a20746f6b656e20616c7265616479206d696e74656400000000604482015260640161072f565b6001600160a01b0382166000908152600360205260408120805460019290612c8490849061391e565b909155505060008181526002602052604080822080546001600160a01b0319166001600160a01b03861690811790915590518392907fddf252ad1be2c89b69c2b068fc378daa952ba7f163c4a11628f55a4df523b3ef908290a45050565b60006001600160a01b0384163b15612de457604051630a85bd0160e11b81526001600160a01b0385169063150b7a0290612d2690339089908890889060040161371e565b602060405180830381600087803b158015612d4057600080fd5b505af1925050508015612d70575060408051601f3d908101601f19168201909252612d6d91810190613173565b60015b612dca573d808015612d9e576040519150601f19603f3d011682016040523d82523d6000602084013e612da3565b606091505b508051612dc25760405162461bcd60e51b815260040161072f9061379c565b805181602001fd5b6001600160e01b031916630a85bd0160e11b149050612502565b506001949350505050565b6040518061014001604052806060815260200160608152602001606081526020016060815260200160006001600160a01b03168152602001600081526020016000815260200160008152602001600015158152602001600081525090565b828054612e59906139c3565b90600052602060002090601f016020900481019282612e7b5760008555612ec1565b82601f10612e9457805160ff1916838001178555612ec1565b82800160010185558215612ec1579182015b82811115612ec1578251825591602001919060010190612ea6565b50612ecd929150612ed1565b5090565b5b80821115612ecd5760008155600101612ed2565b600067ffffffffffffffff80841115612f0157612f01613a59565b604051601f8501601f19908116603f01168101908282118183101715612f2957612f29613a59565b81604052809350858152868686011115612f4257600080fd5b858560208301376000602087830101525050509392505050565b8035612f6781613a6f565b919050565b8035612f6781613a87565b600082601f830112612f87578081fd5b612b9983833560208501612ee6565b600060208284031215612fa7578081fd5b8135612b9981613a6f565b60008060408385031215612fc4578081fd5b8235612fcf81613a6f565b91506020830135612fdf81613a6f565b809150509250929050565b600080600060608486031215612ffe578081fd5b833561300981613a6f565b9250602084013561301981613a6f565b929592945050506040919091013590565b6000806000806080858703121561303f578081fd5b843561304a81613a6f565b9350602085013561305a81613a6f565b925060408501359150606085013567ffffffffffffffff81111561307c578182fd5b8501601f8101871361308c578182fd5b61309b87823560208401612ee6565b91505092959194509250565b600080604083850312156130b9578182fd5b82356130c481613a6f565b91506020830135612fdf81613a87565b600080604083850312156130e6578182fd5b82356130f181613a6f565b946020939093013593505050565b600060208284031215613110578081fd5b8151612b9981613a87565b60006020828403121561312c578081fd5b5035919050565b60008060408385031215613145578182fd5b823591506020830135612fdf81613a6f565b600060208284031215613168578081fd5b8135612b9981613a95565b600060208284031215613184578081fd5b8151612b9981613a95565b6000602082840312156131a0578081fd5b813567ffffffffffffffff8111156131b6578182fd5b61250284828501612f77565b600080600080600080600080610100898b0312156131de578586fd5b883567ffffffffffffffff808211156131f5578788fd5b6132018c838d01612f77565b995060208b0135915080821115613216578788fd5b6132228c838d01612f77565b985060408b0135915080821115613237578788fd5b6132438c838d01612f77565b975060608b0135915080821115613258578586fd5b506132658b828c01612f77565b9550506080890135935061327b60a08a01612f5c565b925060c0890135915061329060e08a01612f6c565b90509295985092959890939650565b600080604083850312156132b1578182fd5b823591506020830135612fdf81613a87565b600081518084526132db816020860160208601613980565b601f01601f19169290920160200192915050565b60008151613301818560208601613980565b9290920192915050565b8054600090600181811c908083168061332557607f831692505b602080841082141561334557634e487b7160e01b86526022600452602486fd5b818015613359576001811461336a57613397565b60ff19861689528489019650613397565b60008881526020902060005b8681101561338f5781548b820152908501908301613376565b505084890196505b50505050505092915050565b7f646174613a6170706c69636174696f6e2f6a736f6e3b636861727365743d757481526d33169c163d913730b6b2911d101160911b6020820152600088516133f281602e850160208d01613980565b600160fd1b602e91840191820152885161341381602f840160208d01613980565b602f60f81b602f92909101918201528751613435816030840160208c01613980565b631116101160e11b603092909101918201526e3232b9b1b934b83a34b7b7111d101160891b60348201526134f26134e36134dd6134c66134c0613497613491613481604389018f6132ef565b631116101160e11b815260040190565b8c6132ef565b7f70726f70657274696573223a207b226e756d626572223a200000000000000000815260180190565b896132ef565b6a1610113730b6b2911d101160a91b8152600b0190565b866132ef565b62227d7d60e81b815260030190565b9a9950505050505050505050565b6834b6b0b3b2911d101160b91b8152600061351e600983018661330b565b845161352e818360208901613980565b633f69643d60e01b9101908152835161354e816004840160208801613980565b631116101160e11b6004929091019182015260080195945050505050565b6834b6b0b3b2911d101160b91b8152600061358a600983018961330b565b875161359a818360208c01613980565b633f69643d60e01b910181815287519091906135bd816004850160208c01613980565b741116101130b734b6b0ba34b7b72fbab936111d101160591b600493909101928301526135ed601983018861330b565b915085516135ff818460208a01613980565b919091019081528351613619816004840160208801613980565b631116101160e11b6004929091019182015260080198975050505050505050565b7f416363657373436f6e74726f6c3a206163636f756e7420000000000000000000815260008351613672816017850160208801613980565b7001034b99036b4b9b9b4b733903937b6329607d1b60179184019182015283516136a3816028840160208801613980565b01602801949350505050565b7030b734b6b0ba34b7b72fbab936111d101160791b815260006136d5601183018661330b565b84516136e5818360208901613980565b84519101906136f8818360208801613980565b633f69643d60e01b9101908152631116101160e11b600482015260080195945050505050565b6001600160a01b0385811682528416602082015260408101839052608060608201819052600090613751908301846132c3565b9695505050505050565b602081526000612b9960208301846132c3565b60408152600061378160408301856132c3565b828103602084015261379381856132c3565b95945050505050565b60208082526032908201527f4552433732313a207472616e7366657220746f206e6f6e20455243373231526560408201527131b2b4bb32b91034b6b83632b6b2b73a32b960711b606082015260800190565b60208082526031908201527f4552433732313a207472616e736665722063616c6c6572206973206e6f74206f6040820152701ddb995c881b9bdc88185c1c1c9bdd9959607a1b606082015260800190565b602081526000825161014080602085015261385e6101608501836132c3565b91506020850151601f198086850301604087015261387c84836132c3565b9350604087015191508086850301606087015261389984836132c3565b93506060870151915080868503016080870152506138b783826132c3565b92505060808501516138d460a08601826001600160a01b03169052565b5060a085015160c085015260c085015160e085015260e085015161010081818701528087015191505061012061390d8187018315159052565b959095015193019290925250919050565b6000821982111561393157613931613a2d565b500190565b60008261394557613945613a43565b500490565b600081600019048311821515161561396457613964613a2d565b500290565b60008282101561397b5761397b613a2d565b500390565b60005b8381101561399b578181015183820152602001613983565b8381111561077f5750506000910152565b6000816139bb576139bb613a2d565b506000190190565b600181811c908216806139d757607f821691505b602082108114156139f857634e487b7160e01b600052602260045260246000fd5b50919050565b6000600019821415613a1257613a12613a2d565b5060010190565b600082613a2857613a28613a43565b500690565b634e487b7160e01b600052601160045260246000fd5b634e487b7160e01b600052601260045260246000fd5b634e487b7160e01b600052604160045260246000fd5b6001600160a01b0381168114613a8457600080fd5b50565b8015158114613a8457600080fd5b6001600160e01b031981168114613a8457600080fdfe06272a1175ca60b4f7ddd9aa6c6ff2aa8b7a8d8ca106d57432a80927d567493aa2646970667358221220137003bd579185b97b719f27632f512ed88b72114df9ac76cacb85a13d15c2d864736f6c63430008040033",
  "devdoc": {
    "kind": "dev",
    "methods": {
      "approve(address,uint256)": {
        "details": "See {IERC721-approve}."
      },
      "balanceOf(address)": {
        "details": "See {IERC721-balanceOf}."
      },
      "getApproved(uint256)": {
        "details": "See {IERC721-getApproved}."
      },
      "getRoleAdmin(bytes32)": {
        "details": "Returns the admin role that controls `role`. See {grantRole} and {revokeRole}. To change a role's admin, use {_setRoleAdmin}."
      },
      "grantRole(bytes32,address)": {
        "details": "Grants `role` to `account`. If `account` had not been already granted `role`, emits a {RoleGranted} event. Requirements: - the caller must have ``role``'s admin role."
      },
      "hasRole(bytes32,address)": {
        "details": "Returns `true` if `account` has been granted `role`."
      },
      "isApprovedForAll(address,address)": {
        "details": "See {IERC721-isApprovedForAll}."
      },
      "name()": {
        "details": "See {IERC721Metadata-name}."
      },
      "ownerOf(uint256)": {
        "details": "See {IERC721-ownerOf}."
      },
      "renounceRole(bytes32,address)": {
        "details": "Revokes `role` from the calling account. Roles are often managed via {grantRole} and {revokeRole}: this function's purpose is to provide a mechanism for accounts to lose their privileges if they are compromised (such as when a trusted device is misplaced). If the calling account had been granted `role`, emits a {RoleRevoked} event. Requirements: - the caller must be `account`."
      },
      "revokeRole(bytes32,address)": {
        "details": "Revokes `role` from `account`. If `account` had been granted `role`, emits a {RoleRevoked} event. Requirements: - the caller must have ``role``'s admin role."
      },
      "safeTransferFrom(address,address,uint256)": {
        "details": "See {IERC721-safeTransferFrom}."
      },
      "safeTransferFrom(address,address,uint256,bytes)": {
        "details": "See {IERC721-safeTransferFrom}."
      },
      "setApprovalForAll(address,bool)": {
        "details": "See {IERC721-setApprovalForAll}."
      },
      "symbol()": {
        "details": "See {IERC721Metadata-symbol}."
      },
      "tokenURI(uint256)": {
        "details": "See {IERC721Metadata-tokenURI}."
      },
      "transferFrom(address,address,uint256)": {
        "details": "See {IERC721-transferFrom}."
      }
    },
    "version": 1
  },
  "userdoc": {
    "kind": "user",
    "methods": {
      "recoverERC20(address,uint256)": {
        "notice": "Recover accidental tokens sent to contract"
      },
      "recoverETH()": {
        "notice": "Recover accidental ETH sent to contract"
      }
    },
    "version": 1
  },
  "storageLayout": {
    "storage": [
      {
        "astId": 511,
        "contract": "contracts/ERC721Serial.sol:ERC721SerialFactory",
        "label": "_name",
        "offset": 0,
        "slot": "0",
        "type": "t_string_storage"
      },
      {
        "astId": 513,
        "contract": "contracts/ERC721Serial.sol:ERC721SerialFactory",
        "label": "_symbol",
        "offset": 0,
        "slot": "1",
        "type": "t_string_storage"
      },
      {
        "astId": 517,
        "contract": "contracts/ERC721Serial.sol:ERC721SerialFactory",
        "label": "_owners",
        "offset": 0,
        "slot": "2",
        "type": "t_mapping(t_uint256,t_address)"
      },
      {
        "astId": 521,
        "contract": "contracts/ERC721Serial.sol:ERC721SerialFactory",
        "label": "_balances",
        "offset": 0,
        "slot": "3",
        "type": "t_mapping(t_address,t_uint256)"
      },
      {
        "astId": 525,
        "contract": "contracts/ERC721Serial.sol:ERC721SerialFactory",
        "label": "_tokenApprovals",
        "offset": 0,
        "slot": "4",
        "type": "t_mapping(t_uint256,t_address)"
      },
      {
        "astId": 531,
        "contract": "contracts/ERC721Serial.sol:ERC721SerialFactory",
        "label": "_operatorApprovals",
        "offset": 0,
        "slot": "5",
        "type": "t_mapping(t_address,t_mapping(t_address,t_bool))"
      },
      {
        "astId": 62,
        "contract": "contracts/ERC721Serial.sol:ERC721SerialFactory",
        "label": "_roles",
        "offset": 0,
        "slot": "6",
        "type": "t_mapping(t_bytes32,t_struct(RoleData)57_storage)"
      },
      {
        "astId": 378,
        "contract": "contracts/ERC721Serial.sol:ERC721SerialFactory",
        "label": "_status",
        "offset": 0,
        "slot": "7",
        "type": "t_uint256"
      },
      {
        "astId": 2077,
        "contract": "contracts/ERC721Serial.sol:ERC721SerialFactory",
        "label": "tokenIdsReserved",
        "offset": 0,
        "slot": "8",
        "type": "t_uint256"
      },
      {
        "astId": 2080,
        "contract": "contracts/ERC721Serial.sol:ERC721SerialFactory",
        "label": "currentSerial",
        "offset": 0,
        "slot": "9",
        "type": "t_uint256"
      },
      {
        "astId": 2083,
        "contract": "contracts/ERC721Serial.sol:ERC721SerialFactory",
        "label": "ipfsBaseUrl",
        "offset": 0,
        "slot": "10",
        "type": "t_string_storage"
      },
      {
        "astId": 2087,
        "contract": "contracts/ERC721Serial.sol:ERC721SerialFactory",
        "label": "serials",
        "offset": 0,
        "slot": "11",
        "type": "t_array(t_struct(SerialConfig)2056_storage)dyn_storage"
      },
      {
        "astId": 2091,
        "contract": "contracts/ERC721Serial.sol:ERC721SerialFactory",
        "label": "tokenIdToSerialId",
        "offset": 0,
        "slot": "12",
        "type": "t_mapping(t_uint256,t_uint256)"
      }
    ],
    "types": {
      "t_address": {
        "encoding": "inplace",
        "label": "address",
        "numberOfBytes": "20"
      },
      "t_address_payable": {
        "encoding": "inplace",
        "label": "address payable",
        "numberOfBytes": "20"
      },
      "t_array(t_struct(SerialConfig)2056_storage)dyn_storage": {
        "base": "t_struct(SerialConfig)2056_storage",
        "encoding": "dynamic_array",
        "label": "struct ERC721SerialFactory.SerialConfig[]",
        "numberOfBytes": "32"
      },
      "t_bool": {
        "encoding": "inplace",
        "label": "bool",
        "numberOfBytes": "1"
      },
      "t_bytes32": {
        "encoding": "inplace",
        "label": "bytes32",
        "numberOfBytes": "32"
      },
      "t_mapping(t_address,t_bool)": {
        "encoding": "mapping",
        "key": "t_address",
        "label": "mapping(address => bool)",
        "numberOfBytes": "32",
        "value": "t_bool"
      },
      "t_mapping(t_address,t_mapping(t_address,t_bool))": {
        "encoding": "mapping",
        "key": "t_address",
        "label": "mapping(address => mapping(address => bool))",
        "numberOfBytes": "32",
        "value": "t_mapping(t_address,t_bool)"
      },
      "t_mapping(t_address,t_uint256)": {
        "encoding": "mapping",
        "key": "t_address",
        "label": "mapping(address => uint256)",
        "numberOfBytes": "32",
        "value": "t_uint256"
      },
      "t_mapping(t_bytes32,t_struct(RoleData)57_storage)": {
        "encoding": "mapping",
        "key": "t_bytes32",
        "label": "mapping(bytes32 => struct AccessControl.RoleData)",
        "numberOfBytes": "32",
        "value": "t_struct(RoleData)57_storage"
      },
      "t_mapping(t_uint256,t_address)": {
        "encoding": "mapping",
        "key": "t_uint256",
        "label": "mapping(uint256 => address)",
        "numberOfBytes": "32",
        "value": "t_address"
      },
      "t_mapping(t_uint256,t_uint256)": {
        "encoding": "mapping",
        "key": "t_uint256",
        "label": "mapping(uint256 => uint256)",
        "numberOfBytes": "32",
        "value": "t_uint256"
      },
      "t_string_storage": {
        "encoding": "bytes",
        "label": "string",
        "numberOfBytes": "32"
      },
      "t_struct(RoleData)57_storage": {
        "encoding": "inplace",
        "label": "struct AccessControl.RoleData",
        "members": [
          {
            "astId": 54,
            "contract": "contracts/ERC721Serial.sol:ERC721SerialFactory",
            "label": "members",
            "offset": 0,
            "slot": "0",
            "type": "t_mapping(t_address,t_bool)"
          },
          {
            "astId": 56,
            "contract": "contracts/ERC721Serial.sol:ERC721SerialFactory",
            "label": "adminRole",
            "offset": 0,
            "slot": "1",
            "type": "t_bytes32"
          }
        ],
        "numberOfBytes": "64"
      },
      "t_struct(SerialConfig)2056_storage": {
        "encoding": "inplace",
        "label": "struct ERC721SerialFactory.SerialConfig",
        "members": [
          {
            "astId": 2037,
            "contract": "contracts/ERC721Serial.sol:ERC721SerialFactory",
            "label": "name",
            "offset": 0,
            "slot": "0",
            "type": "t_string_storage"
          },
          {
            "astId": 2039,
            "contract": "contracts/ERC721Serial.sol:ERC721SerialFactory",
            "label": "description",
            "offset": 0,
            "slot": "1",
            "type": "t_string_storage"
          },
          {
            "astId": 2041,
            "contract": "contracts/ERC721Serial.sol:ERC721SerialFactory",
            "label": "animationStoragePath",
            "offset": 0,
            "slot": "2",
            "type": "t_string_storage"
          },
          {
            "astId": 2043,
            "contract": "contracts/ERC721Serial.sol:ERC721SerialFactory",
            "label": "imageStoragePath",
            "offset": 0,
            "slot": "3",
            "type": "t_string_storage"
          },
          {
            "astId": 2045,
            "contract": "contracts/ERC721Serial.sol:ERC721SerialFactory",
            "label": "purchaseRecipient",
            "offset": 0,
            "slot": "4",
            "type": "t_address_payable"
          },
          {
            "astId": 2047,
            "contract": "contracts/ERC721Serial.sol:ERC721SerialFactory",
            "label": "ethPrice",
            "offset": 0,
            "slot": "5",
            "type": "t_uint256"
          },
          {
            "astId": 2049,
            "contract": "contracts/ERC721Serial.sol:ERC721SerialFactory",
            "label": "serialSize",
            "offset": 0,
            "slot": "6",
            "type": "t_uint256"
          },
          {
            "astId": 2051,
            "contract": "contracts/ERC721Serial.sol:ERC721SerialFactory",
            "label": "atSerialId",
            "offset": 0,
            "slot": "7",
            "type": "t_uint256"
          },
          {
            "astId": 2053,
            "contract": "contracts/ERC721Serial.sol:ERC721SerialFactory",
            "label": "paused",
            "offset": 0,
            "slot": "8",
            "type": "t_bool"
          },
          {
            "astId": 2055,
            "contract": "contracts/ERC721Serial.sol:ERC721SerialFactory",
            "label": "firstReservedToken",
            "offset": 0,
            "slot": "9",
            "type": "t_uint256"
          }
        ],
        "numberOfBytes": "320"
      },
      "t_uint256": {
        "encoding": "inplace",
        "label": "uint256",
        "numberOfBytes": "32"
      }
    }
  }
}