{
  "address": "0x3eEC861B6DCF7B45D287b3a6DEcA4aF18d2F0290",
  "abi": [
    {
      "anonymous": false,
      "inputs": [
        {
          "indexed": false,
          "internalType": "uint256",
          "name": "releaseId",
          "type": "uint256"
        }
      ],
      "name": "OnNewRelease",
      "type": "event"
    },
    {
      "anonymous": false,
      "inputs": [
        {
          "indexed": false,
          "internalType": "uint256",
          "name": "releaseId",
          "type": "uint256"
        },
        {
          "indexed": false,
          "internalType": "bool",
          "name": "pauseStatus",
          "type": "bool"
        }
      ],
      "name": "OnPauseChange",
      "type": "event"
    },
    {
      "anonymous": false,
      "inputs": [
        {
          "indexed": true,
          "internalType": "address",
          "name": "previousOwner",
          "type": "address"
        },
        {
          "indexed": true,
          "internalType": "address",
          "name": "newOwner",
          "type": "address"
        }
      ],
      "name": "OwnershipTransferred",
      "type": "event"
    },
    {
      "inputs": [
        {
          "internalType": "bool",
          "name": "isPaused",
          "type": "bool"
        },
        {
          "internalType": "uint256",
          "name": "maxAllowed",
          "type": "uint256"
        },
        {
          "internalType": "uint256",
          "name": "ethPrice",
          "type": "uint256"
        },
        {
          "internalType": "address payable",
          "name": "recipient",
          "type": "address"
        },
        {
          "internalType": "address",
          "name": "mintableAddress",
          "type": "address"
        },
        {
          "internalType": "uint256",
          "name": "mintableCollection",
          "type": "uint256"
        }
      ],
      "name": "createRelease",
      "outputs": [],
      "stateMutability": "nonpayable",
      "type": "function"
    },
    {
      "inputs": [
        {
          "internalType": "uint256",
          "name": "releaseId",
          "type": "uint256"
        }
      ],
      "name": "getRelease",
      "outputs": [
        {
          "components": [
            {
              "internalType": "bool",
              "name": "isPaused",
              "type": "bool"
            },
            {
              "internalType": "uint256",
              "name": "maxAllowed",
              "type": "uint256"
            },
            {
              "internalType": "uint256",
              "name": "currentReleased",
              "type": "uint256"
            },
            {
              "internalType": "uint256",
              "name": "ethPrice",
              "type": "uint256"
            },
            {
              "internalType": "address payable",
              "name": "recipient",
              "type": "address"
            },
            {
              "internalType": "address",
              "name": "mintableAddress",
              "type": "address"
            },
            {
              "internalType": "uint256",
              "name": "mintableCollection",
              "type": "uint256"
            }
          ],
          "internalType": "struct SeriesSale.SketchRelease",
          "name": "",
          "type": "tuple"
        }
      ],
      "stateMutability": "view",
      "type": "function"
    },
    {
      "inputs": [
        {
          "internalType": "uint256",
          "name": "releaseId",
          "type": "uint256"
        }
      ],
      "name": "mint",
      "outputs": [
        {
          "internalType": "uint256",
          "name": "",
          "type": "uint256"
        }
      ],
      "stateMutability": "payable",
      "type": "function"
    },
    {
      "inputs": [],
      "name": "owner",
      "outputs": [
        {
          "internalType": "address",
          "name": "",
          "type": "address"
        }
      ],
      "stateMutability": "view",
      "type": "function"
    },
    {
      "inputs": [
        {
          "internalType": "address",
          "name": "tokenAddress",
          "type": "address"
        },
        {
          "internalType": "uint256",
          "name": "tokenAmount",
          "type": "uint256"
        }
      ],
      "name": "recoverERC20",
      "outputs": [],
      "stateMutability": "nonpayable",
      "type": "function"
    },
    {
      "inputs": [],
      "name": "recoverETH",
      "outputs": [],
      "stateMutability": "nonpayable",
      "type": "function"
    },
    {
      "inputs": [],
      "name": "renounceOwnership",
      "outputs": [],
      "stateMutability": "nonpayable",
      "type": "function"
    },
    {
      "inputs": [
        {
          "internalType": "uint256",
          "name": "releaseId",
          "type": "uint256"
        },
        {
          "internalType": "bool",
          "name": "isPaused",
          "type": "bool"
        }
      ],
      "name": "setPaused",
      "outputs": [],
      "stateMutability": "nonpayable",
      "type": "function"
    },
    {
      "inputs": [
        {
          "internalType": "address",
          "name": "newOwner",
          "type": "address"
        }
      ],
      "name": "transferOwnership",
      "outputs": [],
      "stateMutability": "nonpayable",
      "type": "function"
    }
  ],
  "transactionHash": "0xbab63677a8a54348bd4538b82008be11b75dfec6a21d881838d8e4d7660fdc95",
  "args": [],
  "solcInputHash": "26bc9eaa72bafdec360511c19de0b3e5",
  "bytecode": "0x608060405234801561001057600080fd5b50610ce1806100206000396000f3fe6080604052600436106100765760003560e01c80630614117a1461007b578063715018a61461009257806379af2b9a146100a75780638219e69c146101365780638980f11f146101565780638da5cb5b14610176578063a0712d68146101a3578063daff97b5146101c4578063f2fde38b146101e4575b600080fd5b34801561008757600080fd5b50610090610204565b005b34801561009e57600080fd5b506100906102cb565b3480156100b357600080fd5b506100c76100c2366004610bb5565b610306565b60405161012d9190600060e082019050825115158252602083015160208301526040830151604083015260608301516060830152608083015160018060a01b0380821660808501528060a08601511660a0850152505060c083015160c083015292915050565b60405180910390f35b34801561014257600080fd5b50610090610151366004610b4e565b610397565b34801561016257600080fd5b50610090610171366004610b05565b6105a6565b34801561018257600080fd5b5061018b61065a565b6040516001600160a01b03909116815260200161012d565b6101b66101b1366004610bb5565b610669565b60405190815260200161012d565b3480156101d057600080fd5b506100906101df366004610be7565b6108fa565b3480156101f057600080fd5b506100906101ff366004610ae1565b61099e565b3361020d61065a565b6001600160a01b03161461023c5760405162461bcd60e51b815260040161023390610c17565b60405180910390fd5b6040514790600090339083908381818185875af1925050503d8060008114610280576040519150601f19603f3d011682016040523d82523d6000602084013e610285565b606091505b50509050806102c75760405162461bcd60e51b815260206004820152600e60248201526d151c985b9cd9995c91985a5b195960921b6044820152606401610233565b5050565b336102d461065a565b6001600160a01b0316146102fa5760405162461bcd60e51b815260040161023390610c17565b6103046000610a3e565b565b61030e610a90565b6097828154811061032157610321610c72565b60009182526020918290206040805160e0810182526007909302909101805460ff16151583526001810154938301939093526002830154908201526003820154606082015260048201546001600160a01b03908116608083015260058301541660a082015260069091015460c082015292915050565b336103a061065a565b6001600160a01b0316146103c65760405162461bcd60e51b815260040161023390610c17565b6103ce610a90565b861515815260208082018790526001600160a01b03858116608084015260608301879052841660a083015260c082018390526097546040519081527f05d69bbffed50f16c489779926c29eaf0a74ad3b9cc7714c7b00a064350ef420910160405180910390a160978054600181018255600091909152815160079091027f354a83ed9988f79f6038d4c7a7dadbad8af32f4ad6df893e0e5807a1b1944ff98101805492151560ff199093169290921790915560208201517f354a83ed9988f79f6038d4c7a7dadbad8af32f4ad6df893e0e5807a1b1944ffa82015560408201517f354a83ed9988f79f6038d4c7a7dadbad8af32f4ad6df893e0e5807a1b1944ffb82015560608201517f354a83ed9988f79f6038d4c7a7dadbad8af32f4ad6df893e0e5807a1b1944ffc82015560808201517f354a83ed9988f79f6038d4c7a7dadbad8af32f4ad6df893e0e5807a1b1944ffd820180546001600160a01b039283166001600160a01b03199182161790915560a08401517f354a83ed9988f79f6038d4c7a7dadbad8af32f4ad6df893e0e5807a1b1944ffe8401805491909316911617905560c0909101517f354a83ed9988f79f6038d4c7a7dadbad8af32f4ad6df893e0e5807a1b1944fff90910155505050505050565b336105af61065a565b6001600160a01b0316146105d55760405162461bcd60e51b815260040161023390610c17565b60405163a9059cbb60e01b8152336004820152602481018290526001600160a01b0383169063a9059cbb90604401602060405180830381600087803b15801561061d57600080fd5b505af1158015610631573d6000803e3d6000fd5b505050506040513d601f19601f820116820180604052508101906106559190610b31565b505050565b6065546001600160a01b031690565b6000600260015414156106be5760405162461bcd60e51b815260206004820152601f60248201527f5265656e7472616e637947756172643a207265656e7472616e742063616c6c006044820152606401610233565b600260015560006106ce83610306565b905080602001518160400151106107125760405162461bcd60e51b81526020600482015260086024820152671192539254d2115160c21b6044820152606401610233565b80511561074a5760405162461bcd60e51b815260206004820152600660248201526514105554d15160d21b6044820152606401610233565b606081015115610834573481606001511461078f5760405162461bcd60e51b8152602060048201526005602482015264505249434560d81b6044820152606401610233565b600081608001516001600160a01b03163461753090604051600060405180830381858888f193505050503d80600081146107e5576040519150601f19603f3d011682016040523d82523d6000602084013e6107ea565b606091505b50509050806108325760405162461bcd60e51b81526020600482015260146024820152732330b4b632b2103a379039b2b7321022ba3432b960611b6044820152606401610233565b505b60016097848154811061084957610849610c72565b906000526020600020906007020160020160008282546108699190610c4c565b909155505060a0810151604051630acfae8960e11b81523360048201526000916001600160a01b03169063159f5d1290602401602060405180830381600087803b1580156108b657600080fd5b505af11580156108ca573d6000803e3d6000fd5b505050506040513d601f19601f820116820180604052508101906108ee9190610bce565b60018055949350505050565b3361090361065a565b6001600160a01b0316146109295760405162461bcd60e51b815260040161023390610c17565b806097838154811061093d5761093d610c72565b6000918252602091829020600790910201805460ff19169215159290921790915560408051848152831515928101929092527f644c35128b2d45fe1b834c79f4920da74938730dc54ca1bc0e7cba46b303a01a910160405180910390a15050565b336109a761065a565b6001600160a01b0316146109cd5760405162461bcd60e51b815260040161023390610c17565b6001600160a01b038116610a325760405162461bcd60e51b815260206004820152602660248201527f4f776e61626c653a206e6577206f776e657220697320746865207a65726f206160448201526564647265737360d01b6064820152608401610233565b610a3b81610a3e565b50565b606580546001600160a01b038381166001600160a01b0319831681179093556040519116919082907f8be0079c531659141344cd1fd0a4f28419497f9722a3daafe3b4186f6b6457e090600090a35050565b6040518060e0016040528060001515815260200160008152602001600081526020016000815260200160006001600160a01b0316815260200160006001600160a01b03168152602001600081525090565b600060208284031215610af357600080fd5b8135610afe81610c88565b9392505050565b60008060408385031215610b1857600080fd5b8235610b2381610c88565b946020939093013593505050565b600060208284031215610b4357600080fd5b8151610afe81610c9d565b60008060008060008060c08789031215610b6757600080fd5b8635610b7281610c9d565b955060208701359450604087013593506060870135610b9081610c88565b92506080870135610ba081610c88565b8092505060a087013590509295509295509295565b600060208284031215610bc757600080fd5b5035919050565b600060208284031215610be057600080fd5b5051919050565b60008060408385031215610bfa57600080fd5b823591506020830135610c0c81610c9d565b809150509250929050565b6020808252818101527f4f776e61626c653a2063616c6c6572206973206e6f7420746865206f776e6572604082015260600190565b60008219821115610c6d57634e487b7160e01b600052601160045260246000fd5b500190565b634e487b7160e01b600052603260045260246000fd5b6001600160a01b0381168114610a3b57600080fd5b8015158114610a3b57600080fdfea2646970667358221220b463e002e6a6ede047f1da67d88b665887b74f0d788cfaba304765344fbf6ab164736f6c63430008060033",
  "devdoc": {
    "kind": "dev",
    "methods": {
      "owner()": {
        "details": "Returns the address of the current owner."
      },
      "renounceOwnership()": {
        "details": "Leaves the contract without owner. It will not be possible to call `onlyOwner` functions anymore. Can only be called by the current owner. NOTE: Renouncing ownership will leave the contract without an owner, thereby removing any functionality that is only available to the owner."
      },
      "transferOwnership(address)": {
        "details": "Transfers ownership of the contract to a new account (`newOwner`). Can only be called by the current owner."
      }
    },
    "version": 1
  },
  "userdoc": {
    "kind": "user",
    "methods": {
      "recoverERC20(address,uint256)": {
        "notice": "Recover accidental tokens sent to contract"
      },
      "recoverETH()": {
        "notice": "Recover accidental ETH sent to contract"
      }
    },
    "version": 1
  },
  "storageLayout": {
    "storage": [
      {
        "astId": 232,
        "contract": "contracts/SeriesSale.sol:SeriesSale",
        "label": "_initialized",
        "offset": 0,
        "slot": "0",
        "type": "t_bool"
      },
      {
        "astId": 235,
        "contract": "contracts/SeriesSale.sol:SeriesSale",
        "label": "_initializing",
        "offset": 1,
        "slot": "0",
        "type": "t_bool"
      },
      {
        "astId": 286,
        "contract": "contracts/SeriesSale.sol:SeriesSale",
        "label": "_status",
        "offset": 0,
        "slot": "1",
        "type": "t_uint256"
      },
      {
        "astId": 329,
        "contract": "contracts/SeriesSale.sol:SeriesSale",
        "label": "__gap",
        "offset": 0,
        "slot": "2",
        "type": "t_array(t_uint256)49_storage"
      },
      {
        "astId": 1703,
        "contract": "contracts/SeriesSale.sol:SeriesSale",
        "label": "__gap",
        "offset": 0,
        "slot": "51",
        "type": "t_array(t_uint256)50_storage"
      },
      {
        "astId": 10,
        "contract": "contracts/SeriesSale.sol:SeriesSale",
        "label": "_owner",
        "offset": 0,
        "slot": "101",
        "type": "t_address"
      },
      {
        "astId": 123,
        "contract": "contracts/SeriesSale.sol:SeriesSale",
        "label": "__gap",
        "offset": 0,
        "slot": "102",
        "type": "t_array(t_uint256)49_storage"
      },
      {
        "astId": 3711,
        "contract": "contracts/SeriesSale.sol:SeriesSale",
        "label": "releases",
        "offset": 0,
        "slot": "151",
        "type": "t_array(t_struct(SketchRelease)3707_storage)dyn_storage"
      }
    ],
    "types": {
      "t_address": {
        "encoding": "inplace",
        "label": "address",
        "numberOfBytes": "20"
      },
      "t_address_payable": {
        "encoding": "inplace",
        "label": "address payable",
        "numberOfBytes": "20"
      },
      "t_array(t_struct(SketchRelease)3707_storage)dyn_storage": {
        "base": "t_struct(SketchRelease)3707_storage",
        "encoding": "dynamic_array",
        "label": "struct SeriesSale.SketchRelease[]",
        "numberOfBytes": "32"
      },
      "t_array(t_uint256)49_storage": {
        "base": "t_uint256",
        "encoding": "inplace",
        "label": "uint256[49]",
        "numberOfBytes": "1568"
      },
      "t_array(t_uint256)50_storage": {
        "base": "t_uint256",
        "encoding": "inplace",
        "label": "uint256[50]",
        "numberOfBytes": "1600"
      },
      "t_bool": {
        "encoding": "inplace",
        "label": "bool",
        "numberOfBytes": "1"
      },
      "t_struct(SketchRelease)3707_storage": {
        "encoding": "inplace",
        "label": "struct SeriesSale.SketchRelease",
        "members": [
          {
            "astId": 3694,
            "contract": "contracts/SeriesSale.sol:SeriesSale",
            "label": "isPaused",
            "offset": 0,
            "slot": "0",
            "type": "t_bool"
          },
          {
            "astId": 3696,
            "contract": "contracts/SeriesSale.sol:SeriesSale",
            "label": "maxAllowed",
            "offset": 0,
            "slot": "1",
            "type": "t_uint256"
          },
          {
            "astId": 3698,
            "contract": "contracts/SeriesSale.sol:SeriesSale",
            "label": "currentReleased",
            "offset": 0,
            "slot": "2",
            "type": "t_uint256"
          },
          {
            "astId": 3700,
            "contract": "contracts/SeriesSale.sol:SeriesSale",
            "label": "ethPrice",
            "offset": 0,
            "slot": "3",
            "type": "t_uint256"
          },
          {
            "astId": 3702,
            "contract": "contracts/SeriesSale.sol:SeriesSale",
            "label": "recipient",
            "offset": 0,
            "slot": "4",
            "type": "t_address_payable"
          },
          {
            "astId": 3704,
            "contract": "contracts/SeriesSale.sol:SeriesSale",
            "label": "mintableAddress",
            "offset": 0,
            "slot": "5",
            "type": "t_address"
          },
          {
            "astId": 3706,
            "contract": "contracts/SeriesSale.sol:SeriesSale",
            "label": "mintableCollection",
            "offset": 0,
            "slot": "6",
            "type": "t_uint256"
          }
        ],
        "numberOfBytes": "224"
      },
      "t_uint256": {
        "encoding": "inplace",
        "label": "uint256",
        "numberOfBytes": "32"
      }
    }
  }
}