{
  "address": "0x2EC997641F8A5BE200d4c1E14e02d67E89D22AEA",
  "abi": [
    {
      "inputs": [
        {
          "internalType": "string",
          "name": "name",
          "type": "string"
        },
        {
          "internalType": "string",
          "name": "symbol",
          "type": "string"
        },
        {
          "internalType": "contract SharedNFTLogic",
          "name": "_sharedNFTLogic",
          "type": "address"
        },
        {
          "internalType": "address",
          "name": "_allowedCreator",
          "type": "address"
        }
      ],
      "stateMutability": "nonpayable",
      "type": "constructor"
    },
    {
      "anonymous": false,
      "inputs": [
        {
          "indexed": true,
          "internalType": "address",
          "name": "owner",
          "type": "address"
        },
        {
          "indexed": true,
          "internalType": "address",
          "name": "approved",
          "type": "address"
        },
        {
          "indexed": true,
          "internalType": "uint256",
          "name": "tokenId",
          "type": "uint256"
        }
      ],
      "name": "Approval",
      "type": "event"
    },
    {
      "anonymous": false,
      "inputs": [
        {
          "indexed": true,
          "internalType": "address",
          "name": "owner",
          "type": "address"
        },
        {
          "indexed": true,
          "internalType": "address",
          "name": "operator",
          "type": "address"
        },
        {
          "indexed": false,
          "internalType": "bool",
          "name": "approved",
          "type": "bool"
        }
      ],
      "name": "ApprovalForAll",
      "type": "event"
    },
    {
      "anonymous": false,
      "inputs": [
        {
          "indexed": false,
          "internalType": "uint256",
          "name": "serialId",
          "type": "uint256"
        },
        {
          "indexed": false,
          "internalType": "address",
          "name": "creator",
          "type": "address"
        },
        {
          "indexed": false,
          "internalType": "uint256",
          "name": "startToken",
          "type": "uint256"
        },
        {
          "indexed": false,
          "internalType": "uint256",
          "name": "serialSize",
          "type": "uint256"
        }
      ],
      "name": "CreatedSerial",
      "type": "event"
    },
    {
      "anonymous": false,
      "inputs": [
        {
          "indexed": false,
          "internalType": "uint256",
          "name": "serialId",
          "type": "uint256"
        },
        {
          "indexed": false,
          "internalType": "uint256",
          "name": "tokenId",
          "type": "uint256"
        },
        {
          "indexed": false,
          "internalType": "address",
          "name": "minter",
          "type": "address"
        }
      ],
      "name": "MintedSerial",
      "type": "event"
    },
    {
      "anonymous": false,
      "inputs": [
        {
          "indexed": true,
          "internalType": "address",
          "name": "from",
          "type": "address"
        },
        {
          "indexed": true,
          "internalType": "address",
          "name": "to",
          "type": "address"
        },
        {
          "indexed": true,
          "internalType": "uint256",
          "name": "tokenId",
          "type": "uint256"
        }
      ],
      "name": "Transfer",
      "type": "event"
    },
    {
      "inputs": [],
      "name": "allowedCreator",
      "outputs": [
        {
          "internalType": "address",
          "name": "",
          "type": "address"
        }
      ],
      "stateMutability": "view",
      "type": "function"
    },
    {
      "inputs": [
        {
          "internalType": "address",
          "name": "to",
          "type": "address"
        },
        {
          "internalType": "uint256",
          "name": "tokenId",
          "type": "uint256"
        }
      ],
      "name": "approve",
      "outputs": [],
      "stateMutability": "nonpayable",
      "type": "function"
    },
    {
      "inputs": [
        {
          "internalType": "address",
          "name": "owner",
          "type": "address"
        }
      ],
      "name": "balanceOf",
      "outputs": [
        {
          "internalType": "uint256",
          "name": "",
          "type": "uint256"
        }
      ],
      "stateMutability": "view",
      "type": "function"
    },
    {
      "inputs": [
        {
          "internalType": "string",
          "name": "name",
          "type": "string"
        },
        {
          "internalType": "string",
          "name": "description",
          "type": "string"
        },
        {
          "internalType": "string",
          "name": "imageUrl",
          "type": "string"
        },
        {
          "internalType": "bytes32",
          "name": "imageHash",
          "type": "bytes32"
        },
        {
          "internalType": "string",
          "name": "animationUrl",
          "type": "string"
        },
        {
          "internalType": "bytes32",
          "name": "animationHash",
          "type": "bytes32"
        },
        {
          "internalType": "uint256",
          "name": "serialSize",
          "type": "uint256"
        },
        {
          "internalType": "uint256",
          "name": "royaltyBPS",
          "type": "uint256"
        },
        {
          "internalType": "address payable",
          "name": "royaltyRecipient",
          "type": "address"
        }
      ],
      "name": "createSerial",
      "outputs": [],
      "stateMutability": "nonpayable",
      "type": "function"
    },
    {
      "inputs": [
        {
          "internalType": "uint256",
          "name": "tokenId",
          "type": "uint256"
        }
      ],
      "name": "creator",
      "outputs": [
        {
          "internalType": "address",
          "name": "",
          "type": "address"
        }
      ],
      "stateMutability": "view",
      "type": "function"
    },
    {
      "inputs": [],
      "name": "currentSerial",
      "outputs": [
        {
          "internalType": "uint256",
          "name": "",
          "type": "uint256"
        }
      ],
      "stateMutability": "view",
      "type": "function"
    },
    {
      "inputs": [
        {
          "internalType": "uint256",
          "name": "tokenId",
          "type": "uint256"
        }
      ],
      "name": "getApproved",
      "outputs": [
        {
          "internalType": "address",
          "name": "",
          "type": "address"
        }
      ],
      "stateMutability": "view",
      "type": "function"
    },
    {
      "inputs": [
        {
          "internalType": "uint256",
          "name": "serialId",
          "type": "uint256"
        }
      ],
      "name": "getSerial",
      "outputs": [
        {
          "components": [
            {
              "internalType": "string",
              "name": "name",
              "type": "string"
            },
            {
              "internalType": "string",
              "name": "description",
              "type": "string"
            },
            {
              "internalType": "string",
              "name": "animationUrl",
              "type": "string"
            },
            {
              "internalType": "bytes32",
              "name": "animationHash",
              "type": "bytes32"
            },
            {
              "internalType": "string",
              "name": "imageUrl",
              "type": "string"
            },
            {
              "internalType": "bytes32",
              "name": "imageHash",
              "type": "bytes32"
            },
            {
              "internalType": "address",
              "name": "owner",
              "type": "address"
            },
            {
              "internalType": "uint256",
              "name": "serialSize",
              "type": "uint256"
            },
            {
              "internalType": "uint256",
              "name": "atSerialId",
              "type": "uint256"
            },
            {
              "internalType": "uint256",
              "name": "firstReservedToken",
              "type": "uint256"
            },
            {
              "internalType": "address payable",
              "name": "royaltyRecipient",
              "type": "address"
            },
            {
              "internalType": "uint256",
              "name": "royaltyBPS",
              "type": "uint256"
            },
            {
              "internalType": "address[]",
              "name": "allowedMinters",
              "type": "address[]"
            }
          ],
          "internalType": "struct SharedEditionsMintable.SerialConfig",
          "name": "",
          "type": "tuple"
        }
      ],
      "stateMutability": "view",
      "type": "function"
    },
    {
      "inputs": [
        {
          "internalType": "uint256",
          "name": "tokenId",
          "type": "uint256"
        }
      ],
      "name": "getSerialByToken",
      "outputs": [
        {
          "components": [
            {
              "internalType": "string",
              "name": "name",
              "type": "string"
            },
            {
              "internalType": "string",
              "name": "description",
              "type": "string"
            },
            {
              "internalType": "string",
              "name": "animationUrl",
              "type": "string"
            },
            {
              "internalType": "bytes32",
              "name": "animationHash",
              "type": "bytes32"
            },
            {
              "internalType": "string",
              "name": "imageUrl",
              "type": "string"
            },
            {
              "internalType": "bytes32",
              "name": "imageHash",
              "type": "bytes32"
            },
            {
              "internalType": "address",
              "name": "owner",
              "type": "address"
            },
            {
              "internalType": "uint256",
              "name": "serialSize",
              "type": "uint256"
            },
            {
              "internalType": "uint256",
              "name": "atSerialId",
              "type": "uint256"
            },
            {
              "internalType": "uint256",
              "name": "firstReservedToken",
              "type": "uint256"
            },
            {
              "internalType": "address payable",
              "name": "royaltyRecipient",
              "type": "address"
            },
            {
              "internalType": "uint256",
              "name": "royaltyBPS",
              "type": "uint256"
            },
            {
              "internalType": "address[]",
              "name": "allowedMinters",
              "type": "address[]"
            }
          ],
          "internalType": "struct SharedEditionsMintable.SerialConfig",
          "name": "",
          "type": "tuple"
        }
      ],
      "stateMutability": "view",
      "type": "function"
    },
    {
      "inputs": [
        {
          "internalType": "uint256",
          "name": "tokenId",
          "type": "uint256"
        }
      ],
      "name": "getURIs",
      "outputs": [
        {
          "internalType": "string",
          "name": "",
          "type": "string"
        },
        {
          "internalType": "bytes32",
          "name": "",
          "type": "bytes32"
        },
        {
          "internalType": "string",
          "name": "",
          "type": "string"
        },
        {
          "internalType": "bytes32",
          "name": "",
          "type": "bytes32"
        }
      ],
      "stateMutability": "view",
      "type": "function"
    },
    {
      "inputs": [
        {
          "internalType": "address",
          "name": "owner",
          "type": "address"
        },
        {
          "internalType": "address",
          "name": "operator",
          "type": "address"
        }
      ],
      "name": "isApprovedForAll",
      "outputs": [
        {
          "internalType": "bool",
          "name": "",
          "type": "bool"
        }
      ],
      "stateMutability": "view",
      "type": "function"
    },
    {
      "inputs": [
        {
          "internalType": "uint256",
          "name": "serialId",
          "type": "uint256"
        },
        {
          "internalType": "address",
          "name": "to",
          "type": "address"
        }
      ],
      "name": "mintSerial",
      "outputs": [
        {
          "internalType": "uint256",
          "name": "",
          "type": "uint256"
        }
      ],
      "stateMutability": "nonpayable",
      "type": "function"
    },
    {
      "inputs": [
        {
          "internalType": "uint256",
          "name": "serialId",
          "type": "uint256"
        },
        {
          "internalType": "address[]",
          "name": "recipients",
          "type": "address[]"
        }
      ],
      "name": "mintSerials",
      "outputs": [
        {
          "internalType": "uint256",
          "name": "",
          "type": "uint256"
        }
      ],
      "stateMutability": "nonpayable",
      "type": "function"
    },
    {
      "inputs": [],
      "name": "name",
      "outputs": [
        {
          "internalType": "string",
          "name": "",
          "type": "string"
        }
      ],
      "stateMutability": "view",
      "type": "function"
    },
    {
      "inputs": [
        {
          "internalType": "uint256",
          "name": "tokenId",
          "type": "uint256"
        }
      ],
      "name": "ownerOf",
      "outputs": [
        {
          "internalType": "address",
          "name": "",
          "type": "address"
        }
      ],
      "stateMutability": "view",
      "type": "function"
    },
    {
      "inputs": [
        {
          "internalType": "uint256",
          "name": "_tokenId",
          "type": "uint256"
        },
        {
          "internalType": "uint256",
          "name": "_salePrice",
          "type": "uint256"
        }
      ],
      "name": "royaltyInfo",
      "outputs": [
        {
          "internalType": "address",
          "name": "receiver",
          "type": "address"
        },
        {
          "internalType": "uint256",
          "name": "royaltyAmount",
          "type": "uint256"
        }
      ],
      "stateMutability": "view",
      "type": "function"
    },
    {
      "inputs": [
        {
          "internalType": "address",
          "name": "from",
          "type": "address"
        },
        {
          "internalType": "address",
          "name": "to",
          "type": "address"
        },
        {
          "internalType": "uint256",
          "name": "tokenId",
          "type": "uint256"
        }
      ],
      "name": "safeTransferFrom",
      "outputs": [],
      "stateMutability": "nonpayable",
      "type": "function"
    },
    {
      "inputs": [
        {
          "internalType": "address",
          "name": "from",
          "type": "address"
        },
        {
          "internalType": "address",
          "name": "to",
          "type": "address"
        },
        {
          "internalType": "uint256",
          "name": "tokenId",
          "type": "uint256"
        },
        {
          "internalType": "bytes",
          "name": "_data",
          "type": "bytes"
        }
      ],
      "name": "safeTransferFrom",
      "outputs": [],
      "stateMutability": "nonpayable",
      "type": "function"
    },
    {
      "inputs": [
        {
          "internalType": "address",
          "name": "newCreator",
          "type": "address"
        }
      ],
      "name": "setAllowedCreator",
      "outputs": [],
      "stateMutability": "nonpayable",
      "type": "function"
    },
    {
      "inputs": [
        {
          "internalType": "uint256",
          "name": "serialId",
          "type": "uint256"
        },
        {
          "internalType": "address[]",
          "name": "allowedMinters",
          "type": "address[]"
        }
      ],
      "name": "setAllowedMinters",
      "outputs": [],
      "stateMutability": "nonpayable",
      "type": "function"
    },
    {
      "inputs": [
        {
          "internalType": "address",
          "name": "operator",
          "type": "address"
        },
        {
          "internalType": "bool",
          "name": "approved",
          "type": "bool"
        }
      ],
      "name": "setApprovalForAll",
      "outputs": [],
      "stateMutability": "nonpayable",
      "type": "function"
    },
    {
      "inputs": [
        {
          "internalType": "uint256",
          "name": "serialId",
          "type": "uint256"
        },
        {
          "internalType": "address",
          "name": "owner",
          "type": "address"
        }
      ],
      "name": "setOwner",
      "outputs": [],
      "stateMutability": "nonpayable",
      "type": "function"
    },
    {
      "inputs": [
        {
          "internalType": "bytes4",
          "name": "interfaceId",
          "type": "bytes4"
        }
      ],
      "name": "supportsInterface",
      "outputs": [
        {
          "internalType": "bool",
          "name": "",
          "type": "bool"
        }
      ],
      "stateMutability": "view",
      "type": "function"
    },
    {
      "inputs": [],
      "name": "symbol",
      "outputs": [
        {
          "internalType": "string",
          "name": "",
          "type": "string"
        }
      ],
      "stateMutability": "view",
      "type": "function"
    },
    {
      "inputs": [],
      "name": "tokenIdsReserved",
      "outputs": [
        {
          "internalType": "uint256",
          "name": "",
          "type": "uint256"
        }
      ],
      "stateMutability": "view",
      "type": "function"
    },
    {
      "inputs": [
        {
          "internalType": "uint256",
          "name": "tokenId",
          "type": "uint256"
        }
      ],
      "name": "tokenURI",
      "outputs": [
        {
          "internalType": "string",
          "name": "",
          "type": "string"
        }
      ],
      "stateMutability": "view",
      "type": "function"
    },
    {
      "inputs": [
        {
          "internalType": "address",
          "name": "from",
          "type": "address"
        },
        {
          "internalType": "address",
          "name": "to",
          "type": "address"
        },
        {
          "internalType": "uint256",
          "name": "tokenId",
          "type": "uint256"
        }
      ],
      "name": "transferFrom",
      "outputs": [],
      "stateMutability": "nonpayable",
      "type": "function"
    },
    {
      "inputs": [
        {
          "internalType": "uint256",
          "name": "serialId",
          "type": "uint256"
        },
        {
          "internalType": "address payable",
          "name": "newRecipient",
          "type": "address"
        }
      ],
      "name": "updateRoyaltyRecipient",
      "outputs": [],
      "stateMutability": "nonpayable",
      "type": "function"
    },
    {
      "inputs": [
        {
          "internalType": "uint256",
          "name": "serialId",
          "type": "uint256"
        },
        {
          "internalType": "string",
          "name": "imageUrl",
          "type": "string"
        },
        {
          "internalType": "string",
          "name": "animationUrl",
          "type": "string"
        }
      ],
      "name": "updateSerialURLs",
      "outputs": [],
      "stateMutability": "nonpayable",
      "type": "function"
    }
  ],
  "transactionHash": "0xffd36ef5ffe7d24df695845c989a6ce0ddc9aa16401e9311d279f151adfe47fd",
  "args": [
    "Zora Shared Editions Mintable",
    "ZORAEDITIONS",
    "0x3d8D4c9C0Fc75ec38A7E6169742Ad98A9Ea31960",
    "0x9444390c01Dd5b7249E53FAc31290F7dFF53450D"
  ],
  "solcInputHash": "26bc9eaa72bafdec360511c19de0b3e5",
  "bytecode": "0x60a0604052600160065560006007553480156200001b57600080fd5b50604051620030aa380380620030aa8339810160408190526200003e9162000207565b83518490849062000057906000906020850190620000aa565b5080516200006d906001906020840190620000aa565b5050600880546001600160a01b0319166001600160a01b0393909316929092179091555060601b6001600160601b03191660805250620003079050565b828054620000b8906200029b565b90600052602060002090601f016020900481019282620000dc576000855562000127565b82601f10620000f757805160ff191683800117855562000127565b8280016001018555821562000127579182015b82811115620001275782518255916020019190600101906200010a565b506200013592915062000139565b5090565b5b808211156200013557600081556001016200013a565b600082601f8301126200016257600080fd5b81516001600160401b03808211156200017f576200017f620002d8565b604051601f8301601f19908116603f01168101908282118183101715620001aa57620001aa620002d8565b81604052838152602092508683858801011115620001c757600080fd5b600091505b83821015620001eb5785820183015181830184015290820190620001cc565b83821115620001fd5760008385830101525b9695505050505050565b600080600080608085870312156200021e57600080fd5b84516001600160401b03808211156200023657600080fd5b620002448883890162000150565b955060208701519150808211156200025b57600080fd5b506200026a8782880162000150565b93505060408501516200027d81620002ee565b60608601519092506200029081620002ee565b939692955090935050565b600181811c90821680620002b057607f821691505b60208210811415620002d257634e487b7160e01b600052602260045260246000fd5b50919050565b634e487b7160e01b600052604160045260246000fd5b6001600160a01b03811681146200030457600080fd5b50565b60805160601c612d8462000326600039600061184f0152612d846000f3fe608060405234801561001057600080fd5b506004361061018f5760003560e01c806370a08231116100e45780639e6dd88e116100925780639e6dd88e14610393578063a22cb4651461039c578063b84e4384146103af578063b88d4fde146103c2578063c87b56dd146103d5578063c8b4215b146103e8578063d639ba91146103fb578063e985e9c51461040457600080fd5b806370a082311461030c578063729fed2e1461031f5780637b62518c146103325780637fd3924714610345578063836860f01461035857806395d89b41146103785780639b5bfb9e1461038057600080fd5b80632a55205a116101415780632a55205a1461025857806342842e0e1461028a578063510b51581461029d578063512d2183146102b057806363407e65146102c35780636352211e146102d657806364e9293e146102e957600080fd5b806301ffc9a71461019457806306fdde03146101bc578063081812fc146101d1578063095ea7b3146101fc57806317c986901461021157806318ab307d1461023257806323b872dd14610245575b600080fd5b6101a76101a23660046124d1565b610417565b60405190151581526020015b60405180910390f35b6101c461045d565b6040516101b39190612899565b6101e46101df36600461265c565b6104ef565b6040516001600160a01b0390911681526020016101b3565b61020f61020a3660046124a5565b61057c565b005b61022461021f366004612675565b61068d565b6040519081526020016101b3565b61020f61024036600461275e565b610762565b61020f6102533660046123b2565b61086f565b61026b6102663660046127ca565b6108a0565b604080516001600160a01b0390931683526020830191909152016101b3565b61020f6102983660046123b2565b6108e0565b6101e46102ab36600461265c565b6108fb565b6102246102be36600461269a565b610910565b61020f6102d136600461269a565b61098e565b6101e46102e436600461265c565b610a61565b6102fc6102f736600461265c565b610ad8565b6040516101b394939291906128ac565b61022461031a36600461235c565b610b0f565b6008546101e4906001600160a01b031681565b61020f610340366004612675565b610b96565b61020f610353366004612675565b610c79565b61036b61036636600461265c565b610d5c565b6040516101b39190612a81565b6101c46110a8565b61036b61038e36600461265c565b6110b7565b61022460065481565b61020f6103aa366004612472565b6110e3565b61020f6103bd366004612578565b6111a4565b61020f6103d03660046123f3565b611463565b6101c46103e336600461265c565b61149b565b61020f6103f636600461235c565b61190b565b61022460075481565b6101a7610412366004612379565b61197c565b60006346e4a71360e01b6001600160e01b031983161480610448575063152a902d60e11b6001600160e01b03198316145b806104575750610457826119aa565b92915050565b60606000805461046c90612c88565b80601f016020809104026020016040519081016040528092919081815260200182805461049890612c88565b80156104e55780601f106104ba576101008083540402835291602001916104e5565b820191906000526020600020905b8154815290600101906020018083116104c857829003601f168201915b5050505050905090565b60006104fa826119fa565b6105605760405162461bcd60e51b815260206004820152602c60248201527f4552433732313a20617070726f76656420717565727920666f72206e6f6e657860448201526b34b9ba32b73a103a37b5b2b760a11b60648201526084015b60405180910390fd5b506000908152600460205260409020546001600160a01b031690565b600061058782610a61565b9050806001600160a01b0316836001600160a01b031614156105f55760405162461bcd60e51b815260206004820152602160248201527f4552433732313a20617070726f76616c20746f2063757272656e74206f776e656044820152603960f91b6064820152608401610557565b336001600160a01b03821614806106115750610611813361197c565b61067e5760405162461bcd60e51b815260206004820152603860248201527f4552433732313a20617070726f76652063616c6c6572206973206e6f74206f776044820152771b995c881b9bdc88185c1c1c9bdd995908199bdc88185b1b60421b6064820152608401610557565b6106888383611a17565b505050565b6000826000600982815481106106a5576106a5612cf4565b90600052602060002090600d020160070154116106d45760405162461bcd60e51b815260040161055790612a01565b6106dd84611a85565b6106f95760405162461bcd60e51b8152600401610557906129ca565b60408051600180825281830190925260009160208083019080368337019050509050838160008151811061072f5761072f612cf4565b60200260200101906001600160a01b031690816001600160a01b0316815250506107598582611b15565b95945050505050565b8260006009828154811061077857610778612cf4565b90600052602060002090600d020160070154116107a75760405162461bcd60e51b815260040161055790612a01565b83600981815481106107bb576107bb612cf4565b60009182526020909120600d90910201600601546001600160a01b031633146107f65760405162461bcd60e51b81526004016105579061299e565b836009868154811061080a5761080a612cf4565b90600052602060002090600d0201600401908051906020019061082e929190612179565b50826009868154811061084357610843612cf4565b90600052602060002090600d02016002019080519060200190610867929190612179565b505050505050565b6108793382611ca4565b6108955760405162461bcd60e51b815260040161055790612a30565b610688838383611d66565b60008060006108ae856110b7565b9050806101400151612710826101600151866108ca9190612c26565b6108d49190612c04565b92509250509250929050565b61068883838360405180602001604052806000815250611463565b6000610906826110b7565b60c0015192915050565b60008260006009828154811061092857610928612cf4565b90600052602060002090600d020160070154116109575760405162461bcd60e51b815260040161055790612a01565b61096084611a85565b61097c5760405162461bcd60e51b8152600401610557906129ca565b6109868484611b15565b949350505050565b816000600982815481106109a4576109a4612cf4565b90600052602060002090600d020160070154116109d35760405162461bcd60e51b815260040161055790612a01565b82600981815481106109e7576109e7612cf4565b60009182526020909120600d90910201600601546001600160a01b03163314610a225760405162461bcd60e51b81526004016105579061299e565b8260098581548110610a3657610a36612cf4565b90600052602060002090600d0201600c019080519060200190610a5a9291906121fd565b5050505050565b6000818152600260205260408120546001600160a01b0316806104575760405162461bcd60e51b815260206004820152602960248201527f4552433732313a206f776e657220717565727920666f72206e6f6e657869737460448201526832b73a103a37b5b2b760b91b6064820152608401610557565b606060006060600080610aea866110b7565b608081015160a082015160408301516060909301519199909850919650945092505050565b60006001600160a01b038216610b7a5760405162461bcd60e51b815260206004820152602a60248201527f4552433732313a2062616c616e636520717565727920666f7220746865207a65604482015269726f206164647265737360b01b6064820152608401610557565b506001600160a01b031660009081526003602052604090205490565b81600060098281548110610bac57610bac612cf4565b90600052602060002090600d02016007015411610bdb5760405162461bcd60e51b815260040161055790612a01565b8260098181548110610bef57610bef612cf4565b60009182526020909120600d90910201600601546001600160a01b03163314610c2a5760405162461bcd60e51b81526004016105579061299e565b8260098581548110610c3e57610c3e612cf4565b90600052602060002090600d0201600a0160006101000a8154816001600160a01b0302191690836001600160a01b0316021790555050505050565b81600060098281548110610c8f57610c8f612cf4565b90600052602060002090600d02016007015411610cbe5760405162461bcd60e51b815260040161055790612a01565b8260098181548110610cd257610cd2612cf4565b60009182526020909120600d90910201600601546001600160a01b03163314610d0d5760405162461bcd60e51b81526004016105579061299e565b8260098581548110610d2157610d21612cf4565b90600052602060002090600d020160060160006101000a8154816001600160a01b0302191690836001600160a01b0316021790555050505050565b610d64612252565b60098281548110610d7757610d77612cf4565b90600052602060002090600d0201604051806101a0016040529081600082018054610da190612c88565b80601f0160208091040260200160405190810160405280929190818152602001828054610dcd90612c88565b8015610e1a5780601f10610def57610100808354040283529160200191610e1a565b820191906000526020600020905b815481529060010190602001808311610dfd57829003601f168201915b50505050508152602001600182018054610e3390612c88565b80601f0160208091040260200160405190810160405280929190818152602001828054610e5f90612c88565b8015610eac5780601f10610e8157610100808354040283529160200191610eac565b820191906000526020600020905b815481529060010190602001808311610e8f57829003601f168201915b50505050508152602001600282018054610ec590612c88565b80601f0160208091040260200160405190810160405280929190818152602001828054610ef190612c88565b8015610f3e5780601f10610f1357610100808354040283529160200191610f3e565b820191906000526020600020905b815481529060010190602001808311610f2157829003601f168201915b5050505050815260200160038201548152602001600482018054610f6190612c88565b80601f0160208091040260200160405190810160405280929190818152602001828054610f8d90612c88565b8015610fda5780601f10610faf57610100808354040283529160200191610fda565b820191906000526020600020905b815481529060010190602001808311610fbd57829003601f168201915b5050509183525050600582015460208083019190915260068301546001600160a01b039081166040808501919091526007850154606085015260088501546080850152600985015460a0850152600a85015490911660c0840152600b84015460e0840152600c8401805482518185028101850190935280835261010090940193919290919083018282801561109857602002820191906000526020600020905b81546001600160a01b0316815260019091019060200180831161107a575b5050505050815250509050919050565b60606001805461046c90612c88565b6110bf612252565b6000828152600a6020526040902054600980549091908110610d7757610d77612cf4565b6001600160a01b0382163314156111385760405162461bcd60e51b815260206004820152601960248201527822a9219b99189d1030b8383937bb32903a379031b0b63632b960391b6044820152606401610557565b3360008181526005602090815260408083206001600160a01b03871680855290835292819020805460ff191686151590811790915590519081529192917f17307eab39ab6107e8899845ad3d59bd9653f200f220920489ca2b5937696c31910160405180910390a35050565b6008546001600160a01b031615806111c657506008546001600160a01b031633145b6112005760405162461bcd60e51b815260206004820152600b60248201526a13db9b1e48185d5d1a195960aa1b6044820152606401610557565b60408051600180825281830190925260009160208083019080368337019050509050338160008151811061123657611236612cf4565b6001600160a01b03928316602091820292909201810191909152604080516101a0810182528d81528083018d905290810189905260608101889052608081018b905260a081018a90523360c082015260e081018790526000610100820181905260065461012083015292851661014082015261016081018690526101808101849052600980546001810182559352805180519193600d027f6e1540171b6c0c960b71a7020d9f60077f6af931a8bbf590da0223dacf75c7af01926112ff92849290910190612179565b5060208281015180516113189260018501920190612179565b5060408201518051611334916002840191602090910190612179565b50606082015160038201556080820151805161135a916004840191602090910190612179565b5060a0820151600582015560c08201516006820180546001600160a01b039283166001600160a01b03199182161790915560e0840151600784015561010084015160088401556101208401516009840155610140840151600a84018054919093169116179055610160820151600b82015561018082015180516113e791600c8401916020909101906121fd565b50506009547f304edfc7a6ed6447c7453a7b1cf337fba55d44ce291f2e41c9711c2e93aafb81915061141b90600190612c45565b600654604080519283523360208401528201526060810186905260800160405180910390a183600660008282546114529190612bec565b909155505050505050505050505050565b61146d3383611ca4565b6114895760405162461bcd60e51b815260040161055790612a30565b61149584848484611f06565b50505050565b60606114a6826119fa565b6114dd5760405162461bcd60e51b81526020600482015260086024820152672727902a27a5a2a760c11b6044820152606401610557565b6000828152600a602052604081205460098054909190811061150157611501612cf4565b90600052602060002090600d0201604051806101a001604052908160008201805461152b90612c88565b80601f016020809104026020016040519081016040528092919081815260200182805461155790612c88565b80156115a45780601f10611579576101008083540402835291602001916115a4565b820191906000526020600020905b81548152906001019060200180831161158757829003601f168201915b505050505081526020016001820180546115bd90612c88565b80601f01602080910402602001604051908101604052809291908181526020018280546115e990612c88565b80156116365780601f1061160b57610100808354040283529160200191611636565b820191906000526020600020905b81548152906001019060200180831161161957829003601f168201915b5050505050815260200160028201805461164f90612c88565b80601f016020809104026020016040519081016040528092919081815260200182805461167b90612c88565b80156116c85780601f1061169d576101008083540402835291602001916116c8565b820191906000526020600020905b8154815290600101906020018083116116ab57829003601f168201915b50505050508152602001600382015481526020016004820180546116eb90612c88565b80601f016020809104026020016040519081016040528092919081815260200182805461171790612c88565b80156117645780601f1061173957610100808354040283529160200191611764565b820191906000526020600020905b81548152906001019060200180831161174757829003601f168201915b5050509183525050600582015460208083019190915260068301546001600160a01b039081166040808501919091526007850154606085015260088501546080850152600985015460a0850152600a85015490911660c0840152600b84015460e0840152600c8401805482518185028101850190935280835261010090940193919290919083018282801561182257602002820191906000526020600020905b81546001600160a01b03168152600190910190602001808311611804575b50505050508152505090506000816101200151846118409190612c45565b61184b906001612bec565b90507f00000000000000000000000000000000000000000000000000000000000000006001600160a01b031663d32a26238360000151846020015185608001518660400151868860e001516040518763ffffffff1660e01b81526004016118b7969594939291906128e9565b60006040518083038186803b1580156118cf57600080fd5b505afa1580156118e3573d6000803e3d6000fd5b505050506040513d6000823e601f3d908101601f19168201604052610986919081019061250b565b6008546001600160a01b0316331461195a5760405162461bcd60e51b81526020600482015260126024820152712bb937b7339039b2b934b0b61037bbb732b960711b6044820152606401610557565b600880546001600160a01b0319166001600160a01b0392909216919091179055565b6001600160a01b03918216600090815260056020908152604080832093909416825291909152205460ff1690565b60006001600160e01b031982166380ac58cd60e01b14806119db57506001600160e01b03198216635b5e139f60e01b145b8061045757506301ffc9a760e01b6001600160e01b0319831614610457565b6000908152600260205260409020546001600160a01b0316151590565b600081815260046020526040902080546001600160a01b0319166001600160a01b0384169081179091558190611a4c82610a61565b6001600160a01b03167f8c5be1e5ebec7d5bd14f71427d1e84f3dd0314c0f7b2291e5b200ac8c7c3b92560405160405180910390a45050565b600080611a9183610d5c565b6101808101515190915080611aaa575060019392505050565b60005b81811015611b0a57336001600160a01b03168361018001518281518110611ad657611ad6612cf4565b60200260200101516001600160a01b03161415611af857506001949350505050565b80611b0281612cc3565b915050611aad565b506000949350505050565b600080611b2184610d5c565b90506000816101000151826101200151611b3b9190612bec565b90508160e001518451836101000151611b549190612bec565b1115611b8d5760405162461bcd60e51b815260206004820152600860248201526714d3d3110813d55560c21b6044820152606401610557565b6000805b8551821015611c5f57611ba48284612bec565b9050611bc9868381518110611bbb57611bbb612cf4565b602002602001015182611f39565b6000818152600a6020526040902087905585517f324082de3a4de96b605b60a5caea156c737d3cabcd463779a47206a8d6e8c6c89088908390899086908110611c1457611c14612cf4565b6020026020010151604051611c459392919092835260208301919091526001600160a01b0316604082015260600190565b60405180910390a1611c58600183612bec565b9150611b91565b855160098881548110611c7457611c74612cf4565b90600052602060002090600d02016008016000828254611c949190612bec565b9091555090979650505050505050565b6000611caf826119fa565b611d105760405162461bcd60e51b815260206004820152602c60248201527f4552433732313a206f70657261746f7220717565727920666f72206e6f6e657860448201526b34b9ba32b73a103a37b5b2b760a11b6064820152608401610557565b6000611d1b83610a61565b9050806001600160a01b0316846001600160a01b03161480611d565750836001600160a01b0316611d4b846104ef565b6001600160a01b0316145b806109865750610986818561197c565b826001600160a01b0316611d7982610a61565b6001600160a01b031614611de15760405162461bcd60e51b815260206004820152602960248201527f4552433732313a207472616e73666572206f6620746f6b656e2074686174206960448201526839903737ba1037bbb760b91b6064820152608401610557565b6001600160a01b038216611e435760405162461bcd60e51b8152602060048201526024808201527f4552433732313a207472616e7366657220746f20746865207a65726f206164646044820152637265737360e01b6064820152608401610557565b611e4e600082611a17565b6001600160a01b0383166000908152600360205260408120805460019290611e77908490612c45565b90915550506001600160a01b0382166000908152600360205260408120805460019290611ea5908490612bec565b909155505060008181526002602052604080822080546001600160a01b0319166001600160a01b0386811691821790925591518493918716917fddf252ad1be2c89b69c2b068fc378daa952ba7f163c4a11628f55a4df523b3ef91a4505050565b611f11848484611d66565b611f1d8484848461206c565b6114955760405162461bcd60e51b81526004016105579061294c565b6001600160a01b038216611f8f5760405162461bcd60e51b815260206004820181905260248201527f4552433732313a206d696e7420746f20746865207a65726f20616464726573736044820152606401610557565b611f98816119fa565b15611fe55760405162461bcd60e51b815260206004820152601c60248201527f4552433732313a20746f6b656e20616c7265616479206d696e746564000000006044820152606401610557565b6001600160a01b038216600090815260036020526040812080546001929061200e908490612bec565b909155505060008181526002602052604080822080546001600160a01b0319166001600160a01b03861690811790915590518392907fddf252ad1be2c89b69c2b068fc378daa952ba7f163c4a11628f55a4df523b3ef908290a45050565b60006001600160a01b0384163b1561216e57604051630a85bd0160e11b81526001600160a01b0385169063150b7a02906120b090339089908890889060040161285c565b602060405180830381600087803b1580156120ca57600080fd5b505af19250505080156120fa575060408051601f3d908101601f191682019092526120f7918101906124ee565b60015b612154573d808015612128576040519150601f19603f3d011682016040523d82523d6000602084013e61212d565b606091505b50805161214c5760405162461bcd60e51b81526004016105579061294c565b805181602001fd5b6001600160e01b031916630a85bd0160e11b149050610986565b506001949350505050565b82805461218590612c88565b90600052602060002090601f0160209004810192826121a757600085556121ed565b82601f106121c057805160ff19168380011785556121ed565b828001600101855582156121ed579182015b828111156121ed5782518255916020019190600101906121d2565b506121f99291506122d2565b5090565b8280548282559060005260206000209081019282156121ed579160200282015b828111156121ed57825182546001600160a01b0319166001600160a01b0390911617825560209092019160019091019061221d565b604051806101a0016040528060608152602001606081526020016060815260200160008019168152602001606081526020016000801916815260200160006001600160a01b0316815260200160008152602001600081526020016000815260200160006001600160a01b0316815260200160008152602001606081525090565b5b808211156121f957600081556001016122d3565b60006122fa6122f584612bc5565b612b95565b905082815283838301111561230e57600080fd5b828260208301376000602084830101529392505050565b803561233081612d20565b919050565b600082601f83011261234657600080fd5b612355838335602085016122e7565b9392505050565b60006020828403121561236e57600080fd5b813561235581612d20565b6000806040838503121561238c57600080fd5b823561239781612d20565b915060208301356123a781612d20565b809150509250929050565b6000806000606084860312156123c757600080fd5b83356123d281612d20565b925060208401356123e281612d20565b929592945050506040919091013590565b6000806000806080858703121561240957600080fd5b843561241481612d20565b9350602085013561242481612d20565b92506040850135915060608501356001600160401b0381111561244657600080fd5b8501601f8101871361245757600080fd5b612466878235602084016122e7565b91505092959194509250565b6000806040838503121561248557600080fd5b823561249081612d20565b9150602083013580151581146123a757600080fd5b600080604083850312156124b857600080fd5b82356124c381612d20565b946020939093013593505050565b6000602082840312156124e357600080fd5b813561235581612d38565b60006020828403121561250057600080fd5b815161235581612d38565b60006020828403121561251d57600080fd5b81516001600160401b0381111561253357600080fd5b8201601f8101841361254457600080fd5b80516125526122f582612bc5565b81815285602083850101111561256757600080fd5b610759826020830160208601612c5c565b60008060008060008060008060006101208a8c03121561259757600080fd5b89356001600160401b03808211156125ae57600080fd5b6125ba8d838e01612335565b9a5060208c01359150808211156125d057600080fd5b6125dc8d838e01612335565b995060408c01359150808211156125f257600080fd5b6125fe8d838e01612335565b985060608c0135975060808c013591508082111561261b57600080fd5b506126288c828d01612335565b95505060a08a0135935060c08a0135925060e08a0135915061264d6101008b01612325565b90509295985092959850929598565b60006020828403121561266e57600080fd5b5035919050565b6000806040838503121561268857600080fd5b8235915060208301356123a781612d20565b600080604083850312156126ad57600080fd5b823591506020808401356001600160401b03808211156126cc57600080fd5b818601915086601f8301126126e057600080fd5b8135818111156126f2576126f2612d0a565b8060051b9150612703848301612b95565b8181528481019084860184860187018b101561271e57600080fd5b600095505b8386101561274d578035945061273885612d20565b84835260019590950194918601918601612723565b508096505050505050509250929050565b60008060006060848603121561277357600080fd5b8335925060208401356001600160401b038082111561279157600080fd5b61279d87838801612335565b935060408601359150808211156127b357600080fd5b506127c086828701612335565b9150509250925092565b600080604083850312156127dd57600080fd5b50508035926020909101359150565b600081518084526020808501945080840160005b838110156128255781516001600160a01b031687529582019590820190600101612800565b509495945050505050565b60008151808452612848816020860160208601612c5c565b601f01601f19169290920160200192915050565b6001600160a01b038581168252841660208201526040810183905260806060820181905260009061288f90830184612830565b9695505050505050565b6020815260006123556020830184612830565b6080815260006128bf6080830187612830565b85602084015282810360408401526128d78186612830565b91505082606083015295945050505050565b60c0815260006128fc60c0830189612830565b828103602084015261290e8189612830565b905082810360408401526129228188612830565b905082810360608401526129368187612830565b6080840195909552505060a00152949350505050565b60208082526032908201527f4552433732313a207472616e7366657220746f206e6f6e20455243373231526560408201527131b2b4bb32b91034b6b83632b6b2b73a32b960711b606082015260800190565b60208082526012908201527129b2b934b0b6103bb937b7339037bbb732b960711b604082015260600190565b6020808252601d908201527f4e6565647320746f20626520616e20616c6c6f776564206d696e746572000000604082015260600190565b60208082526015908201527414d95c9a585b081b9959591cc81d1bc8195e1a5cdd605a1b604082015260600190565b60208082526031908201527f4552433732313a207472616e736665722063616c6c6572206973206e6f74206f6040820152701ddb995c881b9bdc88185c1c1c9bdd9959607a1b606082015260800190565b60208152600082516101a0806020850152612aa06101c0850183612830565b91506020850151601f1980868503016040870152612abe8483612830565b93506040870151915080868503016060870152612adb8483612830565b93506060870151608087015260808701519150808685030160a0870152612b028483612830565b935060a087015160c087015260c08701519150612b2a60e08701836001600160a01b03169052565b60e08701516101008781019190915287015161012080880191909152870151610140808801919091528701519150610160612b6f818801846001600160a01b03169052565b8701516101808781019190915287015186850390910183870152905061288f83826127ec565b604051601f8201601f191681016001600160401b0381118282101715612bbd57612bbd612d0a565b604052919050565b60006001600160401b03821115612bde57612bde612d0a565b50601f01601f191660200190565b60008219821115612bff57612bff612cde565b500190565b600082612c2157634e487b7160e01b600052601260045260246000fd5b500490565b6000816000190483118215151615612c4057612c40612cde565b500290565b600082821015612c5757612c57612cde565b500390565b60005b83811015612c77578181015183820152602001612c5f565b838111156114955750506000910152565b600181811c90821680612c9c57607f821691505b60208210811415612cbd57634e487b7160e01b600052602260045260246000fd5b50919050565b6000600019821415612cd757612cd7612cde565b5060010190565b634e487b7160e01b600052601160045260246000fd5b634e487b7160e01b600052603260045260246000fd5b634e487b7160e01b600052604160045260246000fd5b6001600160a01b0381168114612d3557600080fd5b50565b6001600160e01b031981168114612d3557600080fdfea2646970667358221220ffd6995eb8028d582e8e26715b3169e5246ef1b9563fca7014b11cec749990b364736f6c63430008060033",
  "devdoc": {
    "author": "iain nash Repository: https://github.com/ourzora/nft-serial-contracts/",
    "details": "This allows creators to mint a series ",
    "kind": "dev",
    "methods": {
      "approve(address,uint256)": {
        "details": "See {IERC721-approve}."
      },
      "balanceOf(address)": {
        "details": "See {IERC721-balanceOf}."
      },
      "constructor": {
        "details": "Sets up the serial contract with a name, symbol, and an initial allowed creator.",
        "params": {
          "_allowedCreator": "address allowed to create new Serials (aka Owner)",
          "name": "Name of NFT contract",
          "symbol": "Symbol of NFT contract"
        }
      },
      "createSerial(string,string,string,bytes32,string,bytes32,uint256,uint256,address)": {
        "details": "Function to create a new serial. Can only be called by the allowed creator Sets the only allowed minter to the address that creates/owns the serial. This can be re-assigned or updated later",
        "params": {
          "animationHash": "The associated hash of the animation in sha-256 bytes32 format. If animation is omitted ",
          "animationUrl": "Animation URL of the serial. Not required, but if omitted image URL needs to be included. This follows the opensea spec for NFTs",
          "description": "Description of serial, used in the description field of the NFT",
          "imageHash": "SHA256 of the given image in bytes32 format (0xHASH). If no image is included, the hash can be zero (bytes32 type)",
          "imageUrl": "Image URL of the serial. Strongly encouraged to be used, if necessary, only animation URL can be used. One of animation and image url need to exist in a serial to render the NFT.",
          "name": "Name of serial, used in the title as \"$NAME NUMBER/TOTAL\"",
          "royaltyBPS": "BPS of the royalty set on the contract. Can be 0 for no royalty.",
          "royaltyRecipient": "Recipient address of the royalty for resales",
          "serialSize": "Number of serials that can be minted in total."
        }
      },
      "creator(uint256)": {
        "details": "This retrieves the original owner/creator of the serial for a given tokenId",
        "params": {
          "tokenId": "token id to retrieve the owner for"
        }
      },
      "getApproved(uint256)": {
        "details": "See {IERC721-getApproved}."
      },
      "isApprovedForAll(address,address)": {
        "details": "See {IERC721-isApprovedForAll}."
      },
      "mintSerial(uint256,address)": {
        "details": "This mints one serial to the given address by an allowed minter on the serial instance.",
        "params": {
          "serialId": "ID of the serial to mint",
          "to": "address to send the newly minted serial to"
        }
      },
      "mintSerials(uint256,address[])": {
        "details": "This mints multiple serials to the given list of addresses.",
        "params": {
          "recipients": "list of addresses to send the newly minted serials to",
          "serialId": "ID of the serial to mint"
        }
      },
      "name()": {
        "details": "See {IERC721Metadata-name}."
      },
      "ownerOf(uint256)": {
        "details": "See {IERC721-ownerOf}."
      },
      "safeTransferFrom(address,address,uint256)": {
        "details": "See {IERC721-safeTransferFrom}."
      },
      "safeTransferFrom(address,address,uint256,bytes)": {
        "details": "See {IERC721-safeTransferFrom}."
      },
      "setAllowedCreator(address)": {
        "details": "This re-assigns the ethereum address that is allowed to create serials on this contract. To \"freeze\" a contract to prevent any more serials being created, this can be set to 0x0.",
        "params": {
          "newCreator": "address to re-assign the creator permission to"
        }
      },
      "setAllowedMinters(uint256,address[])": {
        "details": "Set the allowed minters array for a given serial id This requires that msg.sender is the owner of the given serial id.",
        "params": {
          "allowedMinters": "list of addresses allowed to mint this serial",
          "serialId": "serial to to update the minters for"
        }
      },
      "setApprovalForAll(address,bool)": {
        "details": "See {IERC721-setApprovalForAll}."
      },
      "setOwner(uint256,address)": {
        "details": "Reassigns the serial id to a new owners. Owners can update allowed minters and update URLs of a serial.",
        "params": {
          "owner": "Owner to reassign serial of",
          "serialId": "id of the serial to re-assign owner of"
        }
      },
      "symbol()": {
        "details": "See {IERC721Metadata-symbol}."
      },
      "tokenURI(uint256)": {
        "details": "See {IERC721Metadata-tokenURI}."
      },
      "transferFrom(address,address,uint256)": {
        "details": "See {IERC721-transferFrom}."
      },
      "updateRoyaltyRecipient(uint256,address)": {
        "details": "Update the royalty recipient address Can only be called by the serial owner."
      },
      "updateSerialURLs(uint256,string,string)": {
        "details": "Allows for updates of serial urls by the owner of the serial. Only URLs can be updated (data-uris are supported), hashes cannot be updated."
      }
    },
    "version": 1
  },
  "userdoc": {
    "kind": "user",
    "methods": {},
    "notice": "This is a smart contract for handling dynamic contract minting.",
    "version": 1
  },
  "storageLayout": {
    "storage": [
      {
        "astId": 2013,
        "contract": "contracts/SharedEditionsMintable.sol:SharedEditionsMintable",
        "label": "_name",
        "offset": 0,
        "slot": "0",
        "type": "t_string_storage"
      },
      {
        "astId": 2015,
        "contract": "contracts/SharedEditionsMintable.sol:SharedEditionsMintable",
        "label": "_symbol",
        "offset": 0,
        "slot": "1",
        "type": "t_string_storage"
      },
      {
        "astId": 2019,
        "contract": "contracts/SharedEditionsMintable.sol:SharedEditionsMintable",
        "label": "_owners",
        "offset": 0,
        "slot": "2",
        "type": "t_mapping(t_uint256,t_address)"
      },
      {
        "astId": 2023,
        "contract": "contracts/SharedEditionsMintable.sol:SharedEditionsMintable",
        "label": "_balances",
        "offset": 0,
        "slot": "3",
        "type": "t_mapping(t_address,t_uint256)"
      },
      {
        "astId": 2027,
        "contract": "contracts/SharedEditionsMintable.sol:SharedEditionsMintable",
        "label": "_tokenApprovals",
        "offset": 0,
        "slot": "4",
        "type": "t_mapping(t_uint256,t_address)"
      },
      {
        "astId": 2033,
        "contract": "contracts/SharedEditionsMintable.sol:SharedEditionsMintable",
        "label": "_operatorApprovals",
        "offset": 0,
        "slot": "5",
        "type": "t_mapping(t_address,t_mapping(t_address,t_bool))"
      },
      {
        "astId": 3968,
        "contract": "contracts/SharedEditionsMintable.sol:SharedEditionsMintable",
        "label": "tokenIdsReserved",
        "offset": 0,
        "slot": "6",
        "type": "t_uint256"
      },
      {
        "astId": 3971,
        "contract": "contracts/SharedEditionsMintable.sol:SharedEditionsMintable",
        "label": "currentSerial",
        "offset": 0,
        "slot": "7",
        "type": "t_uint256"
      },
      {
        "astId": 3973,
        "contract": "contracts/SharedEditionsMintable.sol:SharedEditionsMintable",
        "label": "allowedCreator",
        "offset": 0,
        "slot": "8",
        "type": "t_address"
      },
      {
        "astId": 3980,
        "contract": "contracts/SharedEditionsMintable.sol:SharedEditionsMintable",
        "label": "serials",
        "offset": 0,
        "slot": "9",
        "type": "t_array(t_struct(SerialConfig)3947_storage)dyn_storage"
      },
      {
        "astId": 3984,
        "contract": "contracts/SharedEditionsMintable.sol:SharedEditionsMintable",
        "label": "tokenIdToSerialId",
        "offset": 0,
        "slot": "10",
        "type": "t_mapping(t_uint256,t_uint256)"
      }
    ],
    "types": {
      "t_address": {
        "encoding": "inplace",
        "label": "address",
        "numberOfBytes": "20"
      },
      "t_address_payable": {
        "encoding": "inplace",
        "label": "address payable",
        "numberOfBytes": "20"
      },
      "t_array(t_address)dyn_storage": {
        "base": "t_address",
        "encoding": "dynamic_array",
        "label": "address[]",
        "numberOfBytes": "32"
      },
      "t_array(t_struct(SerialConfig)3947_storage)dyn_storage": {
        "base": "t_struct(SerialConfig)3947_storage",
        "encoding": "dynamic_array",
        "label": "struct SharedEditionsMintable.SerialConfig[]",
        "numberOfBytes": "32"
      },
      "t_bool": {
        "encoding": "inplace",
        "label": "bool",
        "numberOfBytes": "1"
      },
      "t_bytes32": {
        "encoding": "inplace",
        "label": "bytes32",
        "numberOfBytes": "32"
      },
      "t_mapping(t_address,t_bool)": {
        "encoding": "mapping",
        "key": "t_address",
        "label": "mapping(address => bool)",
        "numberOfBytes": "32",
        "value": "t_bool"
      },
      "t_mapping(t_address,t_mapping(t_address,t_bool))": {
        "encoding": "mapping",
        "key": "t_address",
        "label": "mapping(address => mapping(address => bool))",
        "numberOfBytes": "32",
        "value": "t_mapping(t_address,t_bool)"
      },
      "t_mapping(t_address,t_uint256)": {
        "encoding": "mapping",
        "key": "t_address",
        "label": "mapping(address => uint256)",
        "numberOfBytes": "32",
        "value": "t_uint256"
      },
      "t_mapping(t_uint256,t_address)": {
        "encoding": "mapping",
        "key": "t_uint256",
        "label": "mapping(uint256 => address)",
        "numberOfBytes": "32",
        "value": "t_address"
      },
      "t_mapping(t_uint256,t_uint256)": {
        "encoding": "mapping",
        "key": "t_uint256",
        "label": "mapping(uint256 => uint256)",
        "numberOfBytes": "32",
        "value": "t_uint256"
      },
      "t_string_storage": {
        "encoding": "bytes",
        "label": "string",
        "numberOfBytes": "32"
      },
      "t_struct(SerialConfig)3947_storage": {
        "encoding": "inplace",
        "label": "struct SharedEditionsMintable.SerialConfig",
        "members": [
          {
            "astId": 3921,
            "contract": "contracts/SharedEditionsMintable.sol:SharedEditionsMintable",
            "label": "name",
            "offset": 0,
            "slot": "0",
            "type": "t_string_storage"
          },
          {
            "astId": 3923,
            "contract": "contracts/SharedEditionsMintable.sol:SharedEditionsMintable",
            "label": "description",
            "offset": 0,
            "slot": "1",
            "type": "t_string_storage"
          },
          {
            "astId": 3925,
            "contract": "contracts/SharedEditionsMintable.sol:SharedEditionsMintable",
            "label": "animationUrl",
            "offset": 0,
            "slot": "2",
            "type": "t_string_storage"
          },
          {
            "astId": 3927,
            "contract": "contracts/SharedEditionsMintable.sol:SharedEditionsMintable",
            "label": "animationHash",
            "offset": 0,
            "slot": "3",
            "type": "t_bytes32"
          },
          {
            "astId": 3929,
            "contract": "contracts/SharedEditionsMintable.sol:SharedEditionsMintable",
            "label": "imageUrl",
            "offset": 0,
            "slot": "4",
            "type": "t_string_storage"
          },
          {
            "astId": 3931,
            "contract": "contracts/SharedEditionsMintable.sol:SharedEditionsMintable",
            "label": "imageHash",
            "offset": 0,
            "slot": "5",
            "type": "t_bytes32"
          },
          {
            "astId": 3933,
            "contract": "contracts/SharedEditionsMintable.sol:SharedEditionsMintable",
            "label": "owner",
            "offset": 0,
            "slot": "6",
            "type": "t_address"
          },
          {
            "astId": 3935,
            "contract": "contracts/SharedEditionsMintable.sol:SharedEditionsMintable",
            "label": "serialSize",
            "offset": 0,
            "slot": "7",
            "type": "t_uint256"
          },
          {
            "astId": 3937,
            "contract": "contracts/SharedEditionsMintable.sol:SharedEditionsMintable",
            "label": "atSerialId",
            "offset": 0,
            "slot": "8",
            "type": "t_uint256"
          },
          {
            "astId": 3939,
            "contract": "contracts/SharedEditionsMintable.sol:SharedEditionsMintable",
            "label": "firstReservedToken",
            "offset": 0,
            "slot": "9",
            "type": "t_uint256"
          },
          {
            "astId": 3941,
            "contract": "contracts/SharedEditionsMintable.sol:SharedEditionsMintable",
            "label": "royaltyRecipient",
            "offset": 0,
            "slot": "10",
            "type": "t_address_payable"
          },
          {
            "astId": 3943,
            "contract": "contracts/SharedEditionsMintable.sol:SharedEditionsMintable",
            "label": "royaltyBPS",
            "offset": 0,
            "slot": "11",
            "type": "t_uint256"
          },
          {
            "astId": 3946,
            "contract": "contracts/SharedEditionsMintable.sol:SharedEditionsMintable",
            "label": "allowedMinters",
            "offset": 0,
            "slot": "12",
            "type": "t_array(t_address)dyn_storage"
          }
        ],
        "numberOfBytes": "416"
      },
      "t_uint256": {
        "encoding": "inplace",
        "label": "uint256",
        "numberOfBytes": "32"
      }
    }
  }
}