{
  "address": "0x3d8D4c9C0Fc75ec38A7E6169742Ad98A9Ea31960",
  "abi": [
    {
      "inputs": [
        {
          "internalType": "bytes",
          "name": "args",
          "type": "bytes"
        }
      ],
      "name": "base64Encode",
      "outputs": [
        {
          "internalType": "string",
          "name": "",
          "type": "string"
        }
      ],
      "stateMutability": "pure",
      "type": "function"
    },
    {
      "inputs": [
        {
          "internalType": "string",
          "name": "name",
          "type": "string"
        },
        {
          "internalType": "string",
          "name": "description",
          "type": "string"
        },
        {
          "internalType": "string",
          "name": "mediaData",
          "type": "string"
        },
        {
          "internalType": "uint256",
          "name": "tokenOfSerial",
          "type": "uint256"
        },
        {
          "internalType": "uint256",
          "name": "serialSize",
          "type": "uint256"
        }
      ],
      "name": "createMetadataJSON",
      "outputs": [
        {
          "internalType": "bytes",
          "name": "",
          "type": "bytes"
        }
      ],
      "stateMutability": "pure",
      "type": "function"
    },
    {
      "inputs": [
        {
          "internalType": "string",
          "name": "name",
          "type": "string"
        },
        {
          "internalType": "string",
          "name": "description",
          "type": "string"
        },
        {
          "internalType": "string",
          "name": "imageUrl",
          "type": "string"
        },
        {
          "internalType": "string",
          "name": "animationUrl",
          "type": "string"
        },
        {
          "internalType": "uint256",
          "name": "tokenOfSerial",
          "type": "uint256"
        },
        {
          "internalType": "uint256",
          "name": "serialSize",
          "type": "uint256"
        }
      ],
      "name": "createMetadataSerial",
      "outputs": [
        {
          "internalType": "string",
          "name": "",
          "type": "string"
        }
      ],
      "stateMutability": "pure",
      "type": "function"
    },
    {
      "inputs": [
        {
          "internalType": "bytes",
          "name": "json",
          "type": "bytes"
        }
      ],
      "name": "encodeMetadataJSON",
      "outputs": [
        {
          "internalType": "string",
          "name": "",
          "type": "string"
        }
      ],
      "stateMutability": "pure",
      "type": "function"
    },
    {
      "inputs": [
        {
          "internalType": "uint256",
          "name": "value",
          "type": "uint256"
        }
      ],
      "name": "numberToString",
      "outputs": [
        {
          "internalType": "string",
          "name": "",
          "type": "string"
        }
      ],
      "stateMutability": "pure",
      "type": "function"
    },
    {
      "inputs": [
        {
          "internalType": "string",
          "name": "imageUrl",
          "type": "string"
        },
        {
          "internalType": "string",
          "name": "animationUrl",
          "type": "string"
        },
        {
          "internalType": "uint256",
          "name": "tokenOfSerial",
          "type": "uint256"
        }
      ],
      "name": "tokenMediaData",
      "outputs": [
        {
          "internalType": "string",
          "name": "",
          "type": "string"
        }
      ],
      "stateMutability": "pure",
      "type": "function"
    }
  ],
  "transactionHash": "0x703535c7446f9fe6f0d96b6a68be39f0d1e28c6651f409a75864844ca0769947",
  "args": [],
  "solcInputHash": "ecadc066bcc7f55d10951ad2559b5bdb",
  "bytecode": "0x608060405234801561001057600080fd5b50610c9d806100206000396000f3fe608060405234801561001057600080fd5b50600436106100625760003560e01c8063170dc6601461006757806358464f3014610090578063d01fde8c146100a3578063d32a2623146100b6578063d5fb1b19146100c9578063eb111ab6146100dc575b600080fd5b61007a61007536600461078a565b6100ef565b6040516100879190610afb565b60405180910390f35b61007a61009e366004610685565b610100565b61007a6100b136600461057f565b610151565b61007a6100c43660046105c7565b610182565b61007a6100d736600461057f565b6101ba565b61007a6100ea36600461071e565b6101c5565b60606100fa8261027e565b92915050565b60608561010c8461027e565b6101158461027e565b87876101208861027e565b8b604051602001610137979695949392919061090c565b604051602081830303815290604052905095945050505050565b606061015c826101ba565b60405160200161016c9190610a48565b6040516020818303038152906040529050919050565b606060006101918686866101c5565b905060006101a28989848888610100565b90506101ad81610151565b9998505050505050505050565b60606100fa82610383565b825182516060911580159115159082906101dc5750805b1561022057856101eb856100ef565b866101f5876100ef565b6040516020016102089493929190610851565b60405160208183030381529060405292505050610277565b81156102415785610230856100ef565b6040516020016102089291906107eb565b80156102625784610251856100ef565b604051602001610208929190610a8d565b60405180602001604052806000815250925050505b9392505050565b6060816102a25750506040805180820190915260018152600360fc1b602082015290565b8160005b81156102cc57806102b681610ba0565b91506102c59050600a83610b26565b91506102a6565b6000816001600160401b038111156102e6576102e6610c11565b6040519080825280601f01601f191660200182016040528015610310576020820181803683370190505b5090505b841561037b57610325600183610b59565b9150610332600a86610bbb565b61033d906030610b0e565b60f81b81838151811061035257610352610bfb565b60200101906001600160f81b031916908160001a905350610374600a86610b26565b9450610314565b949350505050565b60608151600014156103a357505060408051602081019091526000815290565b6000604051806060016040528060408152602001610c2860409139905060006003845160026103d29190610b0e565b6103dc9190610b26565b6103e7906004610b3a565b905060006103f6826020610b0e565b6001600160401b0381111561040d5761040d610c11565b6040519080825280601f01601f191660200182016040528015610437576020820181803683370190505b509050818152600183018586518101602084015b818310156104a55760039283018051603f601282901c811687015160f890811b8552600c83901c8216880151811b6001860152600683901c8216880151811b60028601529116860151901b9382019390935260040161044b565b6003895106600181146104bf57600281146104d0576104dc565b613d3d60f01b6001198301526104dc565b603d60f81b6000198301525b509398975050505050505050565b60006001600160401b038084111561050457610504610c11565b604051601f8501601f19908116603f0116810190828211818310171561052c5761052c610c11565b8160405280935085815286868601111561054557600080fd5b858560208301376000602087830101525050509392505050565b600082601f83011261057057600080fd5b610277838335602085016104ea565b60006020828403121561059157600080fd5b81356001600160401b038111156105a757600080fd5b8201601f810184136105b857600080fd5b61037b848235602084016104ea565b60008060008060008060c087890312156105e057600080fd5b86356001600160401b03808211156105f757600080fd5b6106038a838b0161055f565b9750602089013591508082111561061957600080fd5b6106258a838b0161055f565b9650604089013591508082111561063b57600080fd5b6106478a838b0161055f565b9550606089013591508082111561065d57600080fd5b5061066a89828a0161055f565b9350506080870135915060a087013590509295509295509295565b600080600080600060a0868803121561069d57600080fd5b85356001600160401b03808211156106b457600080fd5b6106c089838a0161055f565b965060208801359150808211156106d657600080fd5b6106e289838a0161055f565b955060408801359150808211156106f857600080fd5b506107058882890161055f565b9598949750949560608101359550608001359392505050565b60008060006060848603121561073357600080fd5b83356001600160401b038082111561074a57600080fd5b6107568783880161055f565b9450602086013591508082111561076c57600080fd5b506107798682870161055f565b925050604084013590509250925092565b60006020828403121561079c57600080fd5b5035919050565b600081518084526107bb816020860160208601610b70565b601f01601f19169290920160200192915050565b600081516107e1818560208601610b70565b9290920192915050565b6834b6b0b3b2911d101160b91b81528251600090610810816009850160208801610b70565b633f69643d60e01b600991840191820152835161083481600d840160208801610b70565b631116101160e11b600d9290910191820152601101949350505050565b6834b6b0b3b2911d101160b91b81528451600090610876816009850160208a01610b70565b8083019050633f69643d60e01b806009830152865161089c81600d850160208b01610b70565b741116101130b734b6b0ba34b7b72fbab936111d101160591b600d939091019283015285516108d2816022850160208a01610b70565b602292019182015283516108ed816026840160208801610b70565b631116101160e11b60269290910191820152602a019695505050505050565b693d913730b6b2911d101160b11b8152875160009061093281600a850160208d01610b70565b600160fd1b600a91840191820152885161095381600b840160208d01610b70565b602f60f81b600b9290910191820152875161097581600c840160208c01610b70565b631116101160e11b600c92909101918201526e3232b9b1b934b83a34b7b7111d101160891b601082015286516109b281601f840160208b01610b70565b610a39610a2a610a24610a0d610a076109e36109dd601f888a0101631116101160e11b815260040190565b8d6107cf565b770383937b832b93a34b2b9911d103d91373ab6b132b9111d160451b815260180190565b8a6107cf565b6a1610113730b6b2911d101160a91b8152600b0190565b876107cf565b62227d7d60e81b815260030190565b9b9a5050505050505050505050565b7f646174613a6170706c69636174696f6e2f6a736f6e3b6261736536342c000000815260008251610a8081601d850160208701610b70565b91909101601d0192915050565b7030b734b6b0ba34b7b72fbab936111d101160791b81528251600090610aba816011850160208801610b70565b633f69643d60e01b6011918401918201528351610ade816015840160208801610b70565b631116101160e11b60159290910191820152601901949350505050565b60208152600061027760208301846107a3565b60008219821115610b2157610b21610bcf565b500190565b600082610b3557610b35610be5565b500490565b6000816000190483118215151615610b5457610b54610bcf565b500290565b600082821015610b6b57610b6b610bcf565b500390565b60005b83811015610b8b578181015183820152602001610b73565b83811115610b9a576000848401525b50505050565b6000600019821415610bb457610bb4610bcf565b5060010190565b600082610bca57610bca610be5565b500690565b634e487b7160e01b600052601160045260246000fd5b634e487b7160e01b600052601260045260246000fd5b634e487b7160e01b600052603260045260246000fd5b634e487b7160e01b600052604160045260246000fdfe4142434445464748494a4b4c4d4e4f505152535455565758595a6162636465666768696a6b6c6d6e6f707172737475767778797a303132333435363738392b2fa2646970667358221220dd251e5c1660dd5a32620a2308b684b2ac120f9bb282b80347c9f7d8623391e864736f6c63430008060033",
  "devdoc": {
    "kind": "dev",
    "methods": {},
    "version": 1
  },
  "userdoc": {
    "kind": "user",
    "methods": {},
    "version": 1
  },
  "storageLayout": {
    "storage": [],
    "types": null
  }
}