{
  "abi": [
    {
      "inputs": [
        {
          "internalType": "address",
          "name": "_sharedNFTLogic",
          "type": "address"
        }
      ],
      "stateMutability": "nonpayable",
      "type": "constructor"
    },
    {
      "inputs": [],
      "name": "contractURI",
      "outputs": [
        {
          "internalType": "string",
          "name": "",
          "type": "string"
        }
      ],
      "stateMutability": "view",
      "type": "function"
    },
    {
      "inputs": [
        {
          "internalType": "bytes",
          "name": "data",
          "type": "bytes"
        }
      ],
      "name": "initializeWithData",
      "outputs": [],
      "stateMutability": "nonpayable",
      "type": "function"
    },
    {
      "inputs": [
        {
          "internalType": "address",
          "name": "",
          "type": "address"
        }
      ],
      "name": "tokenInfos",
      "outputs": [
        {
          "internalType": "string",
          "name": "description",
          "type": "string"
        },
        {
          "internalType": "string",
          "name": "imageURI",
          "type": "string"
        },
        {
          "internalType": "string",
          "name": "animationURI",
          "type": "string"
        }
      ],
      "stateMutability": "view",
      "type": "function"
    },
    {
      "inputs": [
        {
          "internalType": "uint256",
          "name": "tokenId",
          "type": "uint256"
        }
      ],
      "name": "tokenURI",
      "outputs": [
        {
          "internalType": "string",
          "name": "",
          "type": "string"
        }
      ],
      "stateMutability": "view",
      "type": "function"
    },
    {
      "inputs": [
        {
          "internalType": "address",
          "name": "target",
          "type": "address"
        },
        {
          "internalType": "string",
          "name": "imageURI",
          "type": "string"
        },
        {
          "internalType": "string",
          "name": "animationURI",
          "type": "string"
        }
      ],
      "name": "updateMediaURIs",
      "outputs": [],
      "stateMutability": "nonpayable",
      "type": "function"
    }
  ],
  "bytecode": {
    "object": "0x60a060405234801561001057600080fd5b506040516111dd3803806111dd83398101604081905261002f91610040565b6001600160a01b0316608052610070565b60006020828403121561005257600080fd5b81516001600160a01b038116811461006957600080fd5b9392505050565b60805161114b610092600039600081816106ff0152610902015261114b6000f3fe608060405234801561001057600080fd5b50600436106100675760003560e01c8063ba46ae7211610050578063ba46ae7214610094578063c87b56dd146100bf578063e8a3d485146100df57600080fd5b80632f17b8f01461006c578063856a7ffa14610081575b600080fd5b61007f61007a366004610b69565b6100e7565b005b61007f61008f366004610bdd565b610247565b6100a76100a2366004610c2e565b6102e6565b6040516100b693929190610ca5565b60405180910390f35b6100d26100cd366004610cde565b6104a0565b6040516100b69190610cf7565b6100d261087a565b826001600160a01b03811633148061017b57506040517f24d7806c0000000000000000000000000000000000000000000000000000000081523360048201526001600160a01b038216906324d7806c90602401602060405180830381865afa158015610157573d6000803e3d6000fd5b505050506040513d601f19601f8201168201806040525081019061017b9190610d1a565b6101e5576040517f08c379a000000000000000000000000000000000000000000000000000000000815260206004820152600a60248201527f4f6e6c792061646d696e00000000000000000000000000000000000000000000604482015260640160405180910390fd5b6001600160a01b0384166000908152602081815260409091208451610212926001909201918601906109b6565b506001600160a01b0384166000908152602081815260409091208351610240926002909201918501906109b6565b5050505050565b6000806000838060200190518101906102609190610d7a565b60408051606081018252848152602080820185905281830184905233600090815280825292909220815180519699509497509295509391926102a892849291909101906109b6565b5060208281015180516102c192600185019201906109b6565b50604082015180516102dd9160028401916020909101906109b6565b50505050505050565b60006020819052908152604090208054819061030190610df8565b80601f016020809104026020016040519081016040528092919081815260200182805461032d90610df8565b801561037a5780601f1061034f5761010080835404028352916020019161037a565b820191906000526020600020905b81548152906001019060200180831161035d57829003601f168201915b50505050509080600101805461038f90610df8565b80601f01602080910402602001604051908101604052809291908181526020018280546103bb90610df8565b80156104085780601f106103dd57610100808354040283529160200191610408565b820191906000526020600020905b8154815290600101906020018083116103eb57829003601f168201915b50505050509080600201805461041d90610df8565b80601f016020809104026020016040519081016040528092919081815260200182805461044990610df8565b80156104965780601f1061046b57610100808354040283529160200191610496565b820191906000526020600020905b81548152906001019060200180831161047957829003601f168201915b5050505050905083565b3360008181526020819052604080822081516060818101909352815492949392909190829082906104d090610df8565b80601f01602080910402602001604051908101604052809291908181526020018280546104fc90610df8565b80156105495780601f1061051e57610100808354040283529160200191610549565b820191906000526020600020905b81548152906001019060200180831161052c57829003601f168201915b5050505050815260200160018201805461056290610df8565b80601f016020809104026020016040519081016040528092919081815260200182805461058e90610df8565b80156105db5780601f106105b0576101008083540402835291602001916105db565b820191906000526020600020905b8154815290600101906020018083116105be57829003601f168201915b505050505081526020016002820180546105f490610df8565b80601f016020809104026020016040519081016040528092919081815260200182805461062090610df8565b801561066d5780601f106106425761010080835404028352916020019161066d565b820191906000526020600020905b81548152906001019060200180831161065057829003601f168201915b505050505081525050905060008290506000816001600160a01b0316633474a4a66040518163ffffffff1660e01b815260040161016060405180830381865afa1580156106be573d6000803e3d6000fd5b505050506040513d601f19601f820116820180604052508101906106e29190610e4a565b6101400151905067fffffffffffffffe1981016106fd575060005b7f00000000000000000000000000000000000000000000000000000000000000006001600160a01b031663df30dba0836001600160a01b03166306fdde036040518163ffffffff1660e01b8152600401600060405180830381865afa15801561076a573d6000803e3d6000fd5b505050506040513d6000823e601f3d908101601f191682016040526107929190810190610f03565b8560000151866020015187604001518b886001600160a01b0316633474a4a66040518163ffffffff1660e01b815260040161016060405180830381865afa1580156107e1573d6000803e3d6000fd5b505050506040513d601f19601f820116820180604052508101906108059190610e4a565b61014001516040518763ffffffff1660e01b815260040161082b96959493929190610f38565b600060405180830381865afa158015610848573d6000803e3d6000fd5b505050506040513d6000823e601f3d908101601f191682016040526108709190810190610f03565b9695505050505050565b3360008181526020819052604081206001018054606093928492909161089f90610df8565b905011156108e3576001600160a01b0382166000908152602081815260409182902091516108d1926001019101611034565b60405160208183030381529060405290505b6001600160a01b038281166000818152602081815260409182902091517f00000000000000000000000000000000000000000000000000000000000000009094169363d01fde8c9361093f9390926306fdde0392889101611066565b6040516020818303038152906040526040518263ffffffff1660e01b815260040161096a9190610cf7565b600060405180830381865afa158015610987573d6000803e3d6000fd5b505050506040513d6000823e601f3d908101601f191682016040526109af9190810190610f03565b9250505090565b8280546109c290610df8565b90600052602060002090601f0160209004810192826109e45760008555610a2a565b82601f106109fd57805160ff1916838001178555610a2a565b82800160010185558215610a2a579182015b82811115610a2a578251825591602001919060010190610a0f565b50610a36929150610a3a565b5090565b5b80821115610a365760008155600101610a3b565b80356001600160a01b0381168114610a6657600080fd5b919050565b634e487b7160e01b600052604160045260246000fd5b604051610160810167ffffffffffffffff81118282101715610aa557610aa5610a6b565b60405290565b604051601f8201601f1916810167ffffffffffffffff81118282101715610ad457610ad4610a6b565b604052919050565b600067ffffffffffffffff821115610af657610af6610a6b565b50601f01601f191660200190565b6000610b17610b1284610adc565b610aab565b9050828152838383011115610b2b57600080fd5b828260208301376000602084830101529392505050565b600082601f830112610b5357600080fd5b610b6283833560208501610b04565b9392505050565b600080600060608486031215610b7e57600080fd5b610b8784610a4f565b9250602084013567ffffffffffffffff80821115610ba457600080fd5b610bb087838801610b42565b93506040860135915080821115610bc657600080fd5b50610bd386828701610b42565b9150509250925092565b600060208284031215610bef57600080fd5b813567ffffffffffffffff811115610c0657600080fd5b8201601f81018413610c1757600080fd5b610c2684823560208401610b04565b949350505050565b600060208284031215610c4057600080fd5b610b6282610a4f565b60005b83811015610c64578181015183820152602001610c4c565b83811115610c73576000848401525b50505050565b60008151808452610c91816020860160208601610c49565b601f01601f19169290920160200192915050565b606081526000610cb86060830186610c79565b8281036020840152610cca8186610c79565b905082810360408401526108708185610c79565b600060208284031215610cf057600080fd5b5035919050565b602081526000610b626020830184610c79565b80518015158114610a6657600080fd5b600060208284031215610d2c57600080fd5b610b6282610d0a565b600082601f830112610d4657600080fd5b8151610d54610b1282610adc565b818152846020838601011115610d6957600080fd5b610c26826020830160208701610c49565b600080600060608486031215610d8f57600080fd5b835167ffffffffffffffff80821115610da757600080fd5b610db387838801610d35565b94506020860151915080821115610dc957600080fd5b610dd587838801610d35565b93506040860151915080821115610deb57600080fd5b50610bd386828701610d35565b600181811c90821680610e0c57607f821691505b602082108103610e2c57634e487b7160e01b600052602260045260246000fd5b50919050565b805167ffffffffffffffff81168114610a6657600080fd5b60006101608284031215610e5d57600080fd5b610e65610a81565b610e6e83610d0a565b8152610e7c60208401610d0a565b6020820152610e8d60408401610e32565b6040820152610e9e60608401610e32565b606082015260808301516080820152610eb960a08401610e32565b60a0820152610eca60c08401610e32565b60c082015260e0838101519082015261010080840151908201526101208084015190820152610140928301519281019290925250919050565b600060208284031215610f1557600080fd5b815167ffffffffffffffff811115610f2c57600080fd5b610c2684828501610d35565b60c081526000610f4b60c0830189610c79565b8281036020840152610f5d8189610c79565b90508281036040840152610f718188610c79565b90508281036060840152610f858187610c79565b6080840195909552505060a00152949350505050565b8054600090600181811c9080831680610fb557607f831692505b60208084108203610fd657634e487b7160e01b600052602260045260246000fd5b818015610fea5760018114610ffb57611028565b60ff19861689528489019650611028565b60008881526020902060005b868110156110205781548b820152908501908301611007565b505084890196505b50505050505092915050565b7f222c2022696d616765223a20220000000000000000000000000000000000000081526000610b62600d830184610f9b565b7f7b226e616d65223a202200000000000000000000000000000000000000000000815263ffffffff84168560201b1760401b600a8201527f222c20226465736372697074696f6e223a202200000000000000000000000000602282015260006110d26035830185610f9b565b83516110e2818360208801610c49565b7f227d0000000000000000000000000000000000000000000000000000000000009101908152600201969550505050505056fea26469706673582212201f4f6dcf346747631f16245e6863195ecc30e5b0db538907b23d47297415ff8164736f6c634300080d0033",
    "linkReferences": {}
  },
  "methodIdentifiers": {
    "contractURI()": "e8a3d485",
    "initializeWithData(bytes)": "856a7ffa",
    "tokenInfos(address)": "ba46ae72",
    "tokenURI(uint256)": "c87b56dd",
    "updateMediaURIs(address,string,string)": "2f17b8f0"
  },
  "userdoc": {
    "version": 1,
    "kind": "user",
    "notice": "EditionMetadataRenderer for editions support"
  },
  "devdoc": {
    "version": 1,
    "kind": "dev"
  }
}