{
  "address": "0x8A1f554AE3DD2d760A72E236A3246661DB4010e1",
  "abi": [
    {
      "inputs": [
        {
          "internalType": "string",
          "name": "name",
          "type": "string"
        },
        {
          "internalType": "string",
          "name": "symbol",
          "type": "string"
        },
        {
          "internalType": "address",
          "name": "_allowedCreator",
          "type": "address"
        }
      ],
      "stateMutability": "nonpayable",
      "type": "constructor"
    },
    {
      "anonymous": false,
      "inputs": [
        {
          "indexed": true,
          "internalType": "address",
          "name": "owner",
          "type": "address"
        },
        {
          "indexed": true,
          "internalType": "address",
          "name": "approved",
          "type": "address"
        },
        {
          "indexed": true,
          "internalType": "uint256",
          "name": "tokenId",
          "type": "uint256"
        }
      ],
      "name": "Approval",
      "type": "event"
    },
    {
      "anonymous": false,
      "inputs": [
        {
          "indexed": true,
          "internalType": "address",
          "name": "owner",
          "type": "address"
        },
        {
          "indexed": true,
          "internalType": "address",
          "name": "operator",
          "type": "address"
        },
        {
          "indexed": false,
          "internalType": "bool",
          "name": "approved",
          "type": "bool"
        }
      ],
      "name": "ApprovalForAll",
      "type": "event"
    },
    {
      "anonymous": false,
      "inputs": [
        {
          "indexed": false,
          "internalType": "uint256",
          "name": "serialId",
          "type": "uint256"
        },
        {
          "indexed": false,
          "internalType": "address",
          "name": "creator",
          "type": "address"
        },
        {
          "indexed": false,
          "internalType": "uint256",
          "name": "startToken",
          "type": "uint256"
        },
        {
          "indexed": false,
          "internalType": "uint256",
          "name": "serialSize",
          "type": "uint256"
        }
      ],
      "name": "CreatedSerial",
      "type": "event"
    },
    {
      "anonymous": false,
      "inputs": [
        {
          "indexed": false,
          "internalType": "uint256",
          "name": "serialId",
          "type": "uint256"
        },
        {
          "indexed": false,
          "internalType": "uint256",
          "name": "tokenId",
          "type": "uint256"
        },
        {
          "indexed": false,
          "internalType": "address",
          "name": "minter",
          "type": "address"
        }
      ],
      "name": "MintedSerial",
      "type": "event"
    },
    {
      "anonymous": false,
      "inputs": [
        {
          "indexed": true,
          "internalType": "address",
          "name": "from",
          "type": "address"
        },
        {
          "indexed": true,
          "internalType": "address",
          "name": "to",
          "type": "address"
        },
        {
          "indexed": true,
          "internalType": "uint256",
          "name": "tokenId",
          "type": "uint256"
        }
      ],
      "name": "Transfer",
      "type": "event"
    },
    {
      "inputs": [],
      "name": "allowedCreator",
      "outputs": [
        {
          "internalType": "address",
          "name": "",
          "type": "address"
        }
      ],
      "stateMutability": "view",
      "type": "function"
    },
    {
      "inputs": [
        {
          "internalType": "address",
          "name": "to",
          "type": "address"
        },
        {
          "internalType": "uint256",
          "name": "tokenId",
          "type": "uint256"
        }
      ],
      "name": "approve",
      "outputs": [],
      "stateMutability": "nonpayable",
      "type": "function"
    },
    {
      "inputs": [
        {
          "internalType": "address",
          "name": "owner",
          "type": "address"
        }
      ],
      "name": "balanceOf",
      "outputs": [
        {
          "internalType": "uint256",
          "name": "",
          "type": "uint256"
        }
      ],
      "stateMutability": "view",
      "type": "function"
    },
    {
      "inputs": [
        {
          "internalType": "string",
          "name": "name",
          "type": "string"
        },
        {
          "internalType": "string",
          "name": "description",
          "type": "string"
        },
        {
          "internalType": "string",
          "name": "imageUrl",
          "type": "string"
        },
        {
          "internalType": "bytes32",
          "name": "imageHash",
          "type": "bytes32"
        },
        {
          "internalType": "string",
          "name": "animationUrl",
          "type": "string"
        },
        {
          "internalType": "bytes32",
          "name": "animationHash",
          "type": "bytes32"
        },
        {
          "internalType": "uint256",
          "name": "serialSize",
          "type": "uint256"
        },
        {
          "internalType": "uint256",
          "name": "royaltyBPS",
          "type": "uint256"
        },
        {
          "internalType": "address payable",
          "name": "royaltyRecipient",
          "type": "address"
        }
      ],
      "name": "createSerial",
      "outputs": [],
      "stateMutability": "nonpayable",
      "type": "function"
    },
    {
      "inputs": [
        {
          "internalType": "uint256",
          "name": "tokenId",
          "type": "uint256"
        }
      ],
      "name": "creator",
      "outputs": [
        {
          "internalType": "address",
          "name": "",
          "type": "address"
        }
      ],
      "stateMutability": "view",
      "type": "function"
    },
    {
      "inputs": [],
      "name": "currentSerial",
      "outputs": [
        {
          "internalType": "uint256",
          "name": "",
          "type": "uint256"
        }
      ],
      "stateMutability": "view",
      "type": "function"
    },
    {
      "inputs": [
        {
          "internalType": "uint256",
          "name": "tokenId",
          "type": "uint256"
        }
      ],
      "name": "getApproved",
      "outputs": [
        {
          "internalType": "address",
          "name": "",
          "type": "address"
        }
      ],
      "stateMutability": "view",
      "type": "function"
    },
    {
      "inputs": [
        {
          "internalType": "uint256",
          "name": "serialId",
          "type": "uint256"
        }
      ],
      "name": "getSerial",
      "outputs": [
        {
          "components": [
            {
              "internalType": "string",
              "name": "name",
              "type": "string"
            },
            {
              "internalType": "string",
              "name": "description",
              "type": "string"
            },
            {
              "internalType": "string",
              "name": "animationUrl",
              "type": "string"
            },
            {
              "internalType": "bytes32",
              "name": "animationHash",
              "type": "bytes32"
            },
            {
              "internalType": "string",
              "name": "imageUrl",
              "type": "string"
            },
            {
              "internalType": "bytes32",
              "name": "imageHash",
              "type": "bytes32"
            },
            {
              "internalType": "address",
              "name": "owner",
              "type": "address"
            },
            {
              "internalType": "uint256",
              "name": "serialSize",
              "type": "uint256"
            },
            {
              "internalType": "uint256",
              "name": "atSerialId",
              "type": "uint256"
            },
            {
              "internalType": "uint256",
              "name": "firstReservedToken",
              "type": "uint256"
            },
            {
              "internalType": "address payable",
              "name": "royaltyRecipient",
              "type": "address"
            },
            {
              "internalType": "uint256",
              "name": "royaltyBPS",
              "type": "uint256"
            },
            {
              "internalType": "address[]",
              "name": "allowedMinters",
              "type": "address[]"
            }
          ],
          "internalType": "struct DynamicSerialMintable.SerialConfig",
          "name": "",
          "type": "tuple"
        }
      ],
      "stateMutability": "view",
      "type": "function"
    },
    {
      "inputs": [
        {
          "internalType": "uint256",
          "name": "tokenId",
          "type": "uint256"
        }
      ],
      "name": "getSerialByToken",
      "outputs": [
        {
          "components": [
            {
              "internalType": "string",
              "name": "name",
              "type": "string"
            },
            {
              "internalType": "string",
              "name": "description",
              "type": "string"
            },
            {
              "internalType": "string",
              "name": "animationUrl",
              "type": "string"
            },
            {
              "internalType": "bytes32",
              "name": "animationHash",
              "type": "bytes32"
            },
            {
              "internalType": "string",
              "name": "imageUrl",
              "type": "string"
            },
            {
              "internalType": "bytes32",
              "name": "imageHash",
              "type": "bytes32"
            },
            {
              "internalType": "address",
              "name": "owner",
              "type": "address"
            },
            {
              "internalType": "uint256",
              "name": "serialSize",
              "type": "uint256"
            },
            {
              "internalType": "uint256",
              "name": "atSerialId",
              "type": "uint256"
            },
            {
              "internalType": "uint256",
              "name": "firstReservedToken",
              "type": "uint256"
            },
            {
              "internalType": "address payable",
              "name": "royaltyRecipient",
              "type": "address"
            },
            {
              "internalType": "uint256",
              "name": "royaltyBPS",
              "type": "uint256"
            },
            {
              "internalType": "address[]",
              "name": "allowedMinters",
              "type": "address[]"
            }
          ],
          "internalType": "struct DynamicSerialMintable.SerialConfig",
          "name": "",
          "type": "tuple"
        }
      ],
      "stateMutability": "view",
      "type": "function"
    },
    {
      "inputs": [
        {
          "internalType": "uint256",
          "name": "tokenId",
          "type": "uint256"
        }
      ],
      "name": "getURIs",
      "outputs": [
        {
          "internalType": "string",
          "name": "",
          "type": "string"
        },
        {
          "internalType": "bytes32",
          "name": "",
          "type": "bytes32"
        },
        {
          "internalType": "string",
          "name": "",
          "type": "string"
        },
        {
          "internalType": "bytes32",
          "name": "",
          "type": "bytes32"
        }
      ],
      "stateMutability": "view",
      "type": "function"
    },
    {
      "inputs": [
        {
          "internalType": "address",
          "name": "owner",
          "type": "address"
        },
        {
          "internalType": "address",
          "name": "operator",
          "type": "address"
        }
      ],
      "name": "isApprovedForAll",
      "outputs": [
        {
          "internalType": "bool",
          "name": "",
          "type": "bool"
        }
      ],
      "stateMutability": "view",
      "type": "function"
    },
    {
      "inputs": [
        {
          "internalType": "uint256",
          "name": "serialId",
          "type": "uint256"
        },
        {
          "internalType": "address",
          "name": "to",
          "type": "address"
        }
      ],
      "name": "mintSerial",
      "outputs": [
        {
          "internalType": "uint256",
          "name": "",
          "type": "uint256"
        }
      ],
      "stateMutability": "nonpayable",
      "type": "function"
    },
    {
      "inputs": [
        {
          "internalType": "uint256",
          "name": "serialId",
          "type": "uint256"
        },
        {
          "internalType": "address[]",
          "name": "recipients",
          "type": "address[]"
        }
      ],
      "name": "mintSerials",
      "outputs": [
        {
          "internalType": "uint256",
          "name": "",
          "type": "uint256"
        }
      ],
      "stateMutability": "nonpayable",
      "type": "function"
    },
    {
      "inputs": [],
      "name": "name",
      "outputs": [
        {
          "internalType": "string",
          "name": "",
          "type": "string"
        }
      ],
      "stateMutability": "view",
      "type": "function"
    },
    {
      "inputs": [
        {
          "internalType": "uint256",
          "name": "tokenId",
          "type": "uint256"
        }
      ],
      "name": "ownerOf",
      "outputs": [
        {
          "internalType": "address",
          "name": "",
          "type": "address"
        }
      ],
      "stateMutability": "view",
      "type": "function"
    },
    {
      "inputs": [
        {
          "internalType": "uint256",
          "name": "_tokenId",
          "type": "uint256"
        },
        {
          "internalType": "uint256",
          "name": "_salePrice",
          "type": "uint256"
        }
      ],
      "name": "royaltyInfo",
      "outputs": [
        {
          "internalType": "address",
          "name": "receiver",
          "type": "address"
        },
        {
          "internalType": "uint256",
          "name": "royaltyAmount",
          "type": "uint256"
        }
      ],
      "stateMutability": "view",
      "type": "function"
    },
    {
      "inputs": [
        {
          "internalType": "address",
          "name": "from",
          "type": "address"
        },
        {
          "internalType": "address",
          "name": "to",
          "type": "address"
        },
        {
          "internalType": "uint256",
          "name": "tokenId",
          "type": "uint256"
        }
      ],
      "name": "safeTransferFrom",
      "outputs": [],
      "stateMutability": "nonpayable",
      "type": "function"
    },
    {
      "inputs": [
        {
          "internalType": "address",
          "name": "from",
          "type": "address"
        },
        {
          "internalType": "address",
          "name": "to",
          "type": "address"
        },
        {
          "internalType": "uint256",
          "name": "tokenId",
          "type": "uint256"
        },
        {
          "internalType": "bytes",
          "name": "_data",
          "type": "bytes"
        }
      ],
      "name": "safeTransferFrom",
      "outputs": [],
      "stateMutability": "nonpayable",
      "type": "function"
    },
    {
      "inputs": [
        {
          "internalType": "uint256",
          "name": "serialId",
          "type": "uint256"
        },
        {
          "internalType": "address[]",
          "name": "allowedMinters",
          "type": "address[]"
        }
      ],
      "name": "setAllowedMinters",
      "outputs": [],
      "stateMutability": "nonpayable",
      "type": "function"
    },
    {
      "inputs": [
        {
          "internalType": "address",
          "name": "operator",
          "type": "address"
        },
        {
          "internalType": "bool",
          "name": "approved",
          "type": "bool"
        }
      ],
      "name": "setApprovalForAll",
      "outputs": [],
      "stateMutability": "nonpayable",
      "type": "function"
    },
    {
      "inputs": [
        {
          "internalType": "uint256",
          "name": "serialId",
          "type": "uint256"
        },
        {
          "internalType": "address",
          "name": "owner",
          "type": "address"
        }
      ],
      "name": "setOwner",
      "outputs": [],
      "stateMutability": "nonpayable",
      "type": "function"
    },
    {
      "inputs": [
        {
          "internalType": "bytes4",
          "name": "interfaceId",
          "type": "bytes4"
        }
      ],
      "name": "supportsInterface",
      "outputs": [
        {
          "internalType": "bool",
          "name": "",
          "type": "bool"
        }
      ],
      "stateMutability": "view",
      "type": "function"
    },
    {
      "inputs": [],
      "name": "symbol",
      "outputs": [
        {
          "internalType": "string",
          "name": "",
          "type": "string"
        }
      ],
      "stateMutability": "view",
      "type": "function"
    },
    {
      "inputs": [],
      "name": "tokenIdsReserved",
      "outputs": [
        {
          "internalType": "uint256",
          "name": "",
          "type": "uint256"
        }
      ],
      "stateMutability": "view",
      "type": "function"
    },
    {
      "inputs": [
        {
          "internalType": "uint256",
          "name": "tokenId",
          "type": "uint256"
        }
      ],
      "name": "tokenURI",
      "outputs": [
        {
          "internalType": "string",
          "name": "",
          "type": "string"
        }
      ],
      "stateMutability": "view",
      "type": "function"
    },
    {
      "inputs": [
        {
          "internalType": "address",
          "name": "from",
          "type": "address"
        },
        {
          "internalType": "address",
          "name": "to",
          "type": "address"
        },
        {
          "internalType": "uint256",
          "name": "tokenId",
          "type": "uint256"
        }
      ],
      "name": "transferFrom",
      "outputs": [],
      "stateMutability": "nonpayable",
      "type": "function"
    },
    {
      "inputs": [
        {
          "internalType": "uint256",
          "name": "serialId",
          "type": "uint256"
        },
        {
          "internalType": "address payable",
          "name": "newRecipient",
          "type": "address"
        }
      ],
      "name": "updateRoyaltyRecipient",
      "outputs": [],
      "stateMutability": "nonpayable",
      "type": "function"
    },
    {
      "inputs": [
        {
          "internalType": "uint256",
          "name": "serialId",
          "type": "uint256"
        },
        {
          "internalType": "string",
          "name": "imageUrl",
          "type": "string"
        },
        {
          "internalType": "string",
          "name": "animationUrl",
          "type": "string"
        }
      ],
      "name": "updateSerialURLs",
      "outputs": [],
      "stateMutability": "nonpayable",
      "type": "function"
    }
  ],
  "transactionHash": "0xa62390854df812995768ac9725e9b1a7633ccae0f6f6e91c44ee9c5cc7636d47",
  "args": [
    "Dynamic Mint",
    "DYNSKCH",
    "0x0000000000000000000000000000000000000000"
  ],
  "solcInputHash": "8c2ecab8ba36b23baf0273c6aab85d33",
  "bytecode": "0x6080604052600160075560006008553480156200001b57600080fd5b50604051620035e8380380620035e88339810160408190526200003e91620001fb565b825183908390620000579060009060208501906200009e565b5080516200006d9060019060208401906200009e565b5050600160065550600980546001600160a01b0319166001600160a01b039290921691909117905550620002db9050565b828054620000ac9062000288565b90600052602060002090601f016020900481019282620000d057600085556200011b565b82601f10620000eb57805160ff19168380011785556200011b565b828001600101855582156200011b579182015b828111156200011b578251825591602001919060010190620000fe565b50620001299291506200012d565b5090565b5b808211156200012957600081556001016200012e565b600082601f8301126200015657600080fd5b81516001600160401b0380821115620001735762000173620002c5565b604051601f8301601f19908116603f011681019082821181831017156200019e576200019e620002c5565b81604052838152602092508683858801011115620001bb57600080fd5b600091505b83821015620001df5785820183015181830184015290820190620001c0565b83821115620001f15760008385830101525b9695505050505050565b6000806000606084860312156200021157600080fd5b83516001600160401b03808211156200022957600080fd5b620002378783880162000144565b945060208601519150808211156200024e57600080fd5b506200025d8682870162000144565b604086015190935090506001600160a01b03811681146200027d57600080fd5b809150509250925092565b600181811c908216806200029d57607f821691505b60208210811415620002bf57634e487b7160e01b600052602260045260246000fd5b50919050565b634e487b7160e01b600052604160045260246000fd5b6132fd80620002eb6000396000f3fe608060405234801561001057600080fd5b50600436106101845760003560e01c806370a08231116100d95780639e6dd88e116100875780639e6dd88e14610388578063a22cb46514610391578063b84e4384146103a4578063b88d4fde146103b7578063c87b56dd146103ca578063d639ba91146103dd578063e985e9c5146103e657600080fd5b806370a0823114610301578063729fed2e146103145780637b62518c146103275780637fd392471461033a578063836860f01461034d57806395d89b411461036d5780639b5bfb9e1461037557600080fd5b80632a55205a116101365780632a55205a1461024d57806342842e0e1461027f578063510b515814610292578063512d2183146102a557806363407e65146102b85780636352211e146102cb57806364e9293e146102de57600080fd5b806301ffc9a71461018957806306fdde03146101b1578063081812fc146101c6578063095ea7b3146101f157806317c986901461020657806318ab307d1461022757806323b872dd1461023a575b600080fd5b61019c61019736600461279b565b6103f9565b60405190151581526020015b60405180910390f35b6101b9610424565b6040516101a89190612e09565b6101d96101d43660046128b9565b6104b6565b6040516001600160a01b0390911681526020016101a8565b6102046101ff36600461276f565b610543565b005b6102196102143660046128d2565b610654565b6040519081526020016101a8565b6102046102353660046129bb565b610759565b61020461024836600461267c565b610866565b61026061025b366004612a27565b610897565b604080516001600160a01b0390931683526020830191909152016101a8565b61020461028d36600461267c565b6108d7565b6101d96102a03660046128b9565b6108f2565b6102196102b33660046128f7565b610907565b6102046102c63660046128f7565b6109b5565b6101d96102d93660046128b9565b610a88565b6102f16102ec3660046128b9565b610aff565b6040516101a89493929190612e1c565b61021961030f366004612626565b610b36565b6009546101d9906001600160a01b031681565b6102046103353660046128d2565b610bbd565b6102046103483660046128d2565b610ca0565b61036061035b3660046128b9565b610d83565b6040516101a89190612fc5565b6101b96110cf565b6103606103833660046128b9565b6110de565b61021960075481565b61020461039f36600461273c565b61110a565b6102046103b23660046127d5565b6111cb565b6102046103c53660046126bd565b61148a565b6101b96103d83660046128b9565b6114c2565b61021960085481565b61019c6103f4366004612643565b6118fe565b600063152a902d60e11b6001600160e01b03198316148061041e575061041e8261192c565b92915050565b60606000805461043390613197565b80601f016020809104026020016040519081016040528092919081815260200182805461045f90613197565b80156104ac5780601f10610481576101008083540402835291602001916104ac565b820191906000526020600020905b81548152906001019060200180831161048f57829003601f168201915b5050505050905090565b60006104c18261197c565b6105275760405162461bcd60e51b815260206004820152602c60248201527f4552433732313a20617070726f76656420717565727920666f72206e6f6e657860448201526b34b9ba32b73a103a37b5b2b760a11b60648201526084015b60405180910390fd5b506000908152600460205260409020546001600160a01b031690565b600061054e82610a88565b9050806001600160a01b0316836001600160a01b031614156105bc5760405162461bcd60e51b815260206004820152602160248201527f4552433732313a20617070726f76616c20746f2063757272656e74206f776e656044820152603960f91b606482015260840161051e565b336001600160a01b03821614806105d857506105d881336118fe565b6106455760405162461bcd60e51b815260206004820152603860248201527f4552433732313a20617070726f76652063616c6c6572206973206e6f74206f776044820152771b995c881b9bdc88185c1c1c9bdd995908199bdc88185b1b60421b606482015260840161051e565b61064f8383611999565b505050565b6000600260065414156106795760405162461bcd60e51b815260040161051e90612f8e565b6002600681905550826000600a82815481106106975761069761322d565b90600052602060002090600d020160070154116106c65760405162461bcd60e51b815260040161051e90612f0e565b6106cf84611a07565b6106eb5760405162461bcd60e51b815260040161051e90612ed7565b6040805160018082528183019092526000916020808301908036833701905050905083816000815181106107215761072161322d565b60200260200101906001600160a01b031690816001600160a01b03168152505061074b8582611a97565b600160065595945050505050565b826000600a828154811061076f5761076f61322d565b90600052602060002090600d0201600701541161079e5760405162461bcd60e51b815260040161051e90612f0e565b83600a81815481106107b2576107b261322d565b60009182526020909120600d90910201600601546001600160a01b031633146107ed5760405162461bcd60e51b815260040161051e90612eab565b83600a86815481106108015761080161322d565b90600052602060002090600d0201600401908051906020019061082592919061242a565b5082600a868154811061083a5761083a61322d565b90600052602060002090600d0201600201908051906020019061085e92919061242a565b505050505050565b6108703382611c26565b61088c5760405162461bcd60e51b815260040161051e90612f3d565b61064f838383611cf0565b60008060006108a5856110de565b9050806101400151612710826101600151866108c19190613135565b6108cb9190613121565b92509250509250929050565b61064f8383836040518060200160405280600081525061148a565b60006108fd826110de565b60c0015192915050565b60006002600654141561092c5760405162461bcd60e51b815260040161051e90612f8e565b6002600681905550826000600a828154811061094a5761094a61322d565b90600052602060002090600d020160070154116109795760405162461bcd60e51b815260040161051e90612f0e565b61098284611a07565b61099e5760405162461bcd60e51b815260040161051e90612ed7565b6109a88484611a97565b6001600655949350505050565b816000600a82815481106109cb576109cb61322d565b90600052602060002090600d020160070154116109fa5760405162461bcd60e51b815260040161051e90612f0e565b82600a8181548110610a0e57610a0e61322d565b60009182526020909120600d90910201600601546001600160a01b03163314610a495760405162461bcd60e51b815260040161051e90612eab565b82600a8581548110610a5d57610a5d61322d565b90600052602060002090600d0201600c019080519060200190610a819291906124ae565b5050505050565b6000818152600260205260408120546001600160a01b03168061041e5760405162461bcd60e51b815260206004820152602960248201527f4552433732313a206f776e657220717565727920666f72206e6f6e657869737460448201526832b73a103a37b5b2b760b91b606482015260840161051e565b606060006060600080610b11866110de565b608081015160a082015160408301516060909301519199909850919650945092505050565b60006001600160a01b038216610ba15760405162461bcd60e51b815260206004820152602a60248201527f4552433732313a2062616c616e636520717565727920666f7220746865207a65604482015269726f206164647265737360b01b606482015260840161051e565b506001600160a01b031660009081526003602052604090205490565b816000600a8281548110610bd357610bd361322d565b90600052602060002090600d02016007015411610c025760405162461bcd60e51b815260040161051e90612f0e565b82600a8181548110610c1657610c1661322d565b60009182526020909120600d90910201600601546001600160a01b03163314610c515760405162461bcd60e51b815260040161051e90612eab565b82600a8581548110610c6557610c6561322d565b90600052602060002090600d0201600a0160006101000a8154816001600160a01b0302191690836001600160a01b0316021790555050505050565b816000600a8281548110610cb657610cb661322d565b90600052602060002090600d02016007015411610ce55760405162461bcd60e51b815260040161051e90612f0e565b82600a8181548110610cf957610cf961322d565b60009182526020909120600d90910201600601546001600160a01b03163314610d345760405162461bcd60e51b815260040161051e90612eab565b82600a8581548110610d4857610d4861322d565b90600052602060002090600d020160060160006101000a8154816001600160a01b0302191690836001600160a01b0316021790555050505050565b610d8b612503565b600a8281548110610d9e57610d9e61322d565b90600052602060002090600d0201604051806101a0016040529081600082018054610dc890613197565b80601f0160208091040260200160405190810160405280929190818152602001828054610df490613197565b8015610e415780601f10610e1657610100808354040283529160200191610e41565b820191906000526020600020905b815481529060010190602001808311610e2457829003601f168201915b50505050508152602001600182018054610e5a90613197565b80601f0160208091040260200160405190810160405280929190818152602001828054610e8690613197565b8015610ed35780601f10610ea857610100808354040283529160200191610ed3565b820191906000526020600020905b815481529060010190602001808311610eb657829003601f168201915b50505050508152602001600282018054610eec90613197565b80601f0160208091040260200160405190810160405280929190818152602001828054610f1890613197565b8015610f655780601f10610f3a57610100808354040283529160200191610f65565b820191906000526020600020905b815481529060010190602001808311610f4857829003601f168201915b5050505050815260200160038201548152602001600482018054610f8890613197565b80601f0160208091040260200160405190810160405280929190818152602001828054610fb490613197565b80156110015780601f10610fd657610100808354040283529160200191611001565b820191906000526020600020905b815481529060010190602001808311610fe457829003601f168201915b5050509183525050600582015460208083019190915260068301546001600160a01b039081166040808501919091526007850154606085015260088501546080850152600985015460a0850152600a85015490911660c0840152600b84015460e0840152600c840180548251818502810185019093528083526101009094019391929091908301828280156110bf57602002820191906000526020600020905b81546001600160a01b031681526001909101906020018083116110a1575b5050505050815250509050919050565b60606001805461043390613197565b6110e6612503565b6000828152600b6020526040902054600a80549091908110610d9e57610d9e61322d565b6001600160a01b03821633141561115f5760405162461bcd60e51b815260206004820152601960248201527822a9219b99189d1030b8383937bb32903a379031b0b63632b960391b604482015260640161051e565b3360008181526005602090815260408083206001600160a01b03871680855290835292819020805460ff191686151590811790915590519081529192917f17307eab39ab6107e8899845ad3d59bd9653f200f220920489ca2b5937696c31910160405180910390a35050565b6009546001600160a01b031615806111ed57506009546001600160a01b031633145b6112275760405162461bcd60e51b815260206004820152600b60248201526a13db9b1e48185d5d1a195960aa1b604482015260640161051e565b60408051600180825281830190925260009160208083019080368337019050509050338160008151811061125d5761125d61322d565b6001600160a01b03928316602091820292909201810191909152604080516101a0810182528d81528083018d905290810189905260608101889052608081018b905260a081018a90523360c082015260e081018790526000610100820181905260075461012083015292851661014082015261016081018690526101808101849052600a80546001810182559352805180519193600d027fc65a7bb8d6351c1cf70c95a316cc6a92839c986682d98bc35f958f4883f9d2a801926113269284929091019061242a565b50602082810151805161133f926001850192019061242a565b506040820151805161135b91600284019160209091019061242a565b50606082015160038201556080820151805161138191600484019160209091019061242a565b5060a0820151600582015560c08201516006820180546001600160a01b039283166001600160a01b03199182161790915560e0840151600784015561010084015160088401556101208401516009840155610140840151600a84018054919093169116179055610160820151600b820155610180820151805161140e91600c8401916020909101906124ae565b5050600a547f304edfc7a6ed6447c7453a7b1cf337fba55d44ce291f2e41c9711c2e93aafb81915061144290600190613154565b600754604080519283523360208401528201526060810186905260800160405180910390a183600760008282546114799190613109565b909155505050505050505050505050565b6114943383611c26565b6114b05760405162461bcd60e51b815260040161051e90612f3d565b6114bc84848484611e90565b50505050565b60606114cd8261197c565b6115045760405162461bcd60e51b81526020600482015260086024820152672727902a27a5a2a760c11b604482015260640161051e565b6000828152600b6020526040812054600a805490919081106115285761152861322d565b90600052602060002090600d0201604051806101a001604052908160008201805461155290613197565b80601f016020809104026020016040519081016040528092919081815260200182805461157e90613197565b80156115cb5780601f106115a0576101008083540402835291602001916115cb565b820191906000526020600020905b8154815290600101906020018083116115ae57829003601f168201915b505050505081526020016001820180546115e490613197565b80601f016020809104026020016040519081016040528092919081815260200182805461161090613197565b801561165d5780601f106116325761010080835404028352916020019161165d565b820191906000526020600020905b81548152906001019060200180831161164057829003601f168201915b5050505050815260200160028201805461167690613197565b80601f01602080910402602001604051908101604052809291908181526020018280546116a290613197565b80156116ef5780601f106116c4576101008083540402835291602001916116ef565b820191906000526020600020905b8154815290600101906020018083116116d257829003601f168201915b505050505081526020016003820154815260200160048201805461171290613197565b80601f016020809104026020016040519081016040528092919081815260200182805461173e90613197565b801561178b5780601f106117605761010080835404028352916020019161178b565b820191906000526020600020905b81548152906001019060200180831161176e57829003601f168201915b5050509183525050600582015460208083019190915260068301546001600160a01b039081166040808501919091526007850154606085015260088501546080850152600985015460a0850152600a85015490911660c0840152600b84015460e0840152600c8401805482518185028101850190935280835261010090940193919290919083018282801561184957602002820191906000526020600020905b81546001600160a01b0316815260019091019060200180831161182b575b50505050508152505090506000816101200151846118679190613154565b611872906001613109565b90506118d6826000015161188583611ec3565b6118928560e00151611ec3565b85602001516118a18787611fc0565b6118aa87611ec3565b88516040516118c29796959493929190602001612bf6565b604051602081830303815290604052612083565b6040516020016118e69190612d32565b60405160208183030381529060405292505050919050565b6001600160a01b03918216600090815260056020908152604080832093909416825291909152205460ff1690565b60006001600160e01b031982166380ac58cd60e01b148061195d57506001600160e01b03198216635b5e139f60e01b145b8061041e57506301ffc9a760e01b6001600160e01b031983161461041e565b6000908152600260205260409020546001600160a01b0316151590565b600081815260046020526040902080546001600160a01b0319166001600160a01b03841690811790915581906119ce82610a88565b6001600160a01b03167f8c5be1e5ebec7d5bd14f71427d1e84f3dd0314c0f7b2291e5b200ac8c7c3b92560405160405180910390a45050565b600080611a1383610d83565b6101808101515190915080611a2c575060019392505050565b60005b81811015611a8c57336001600160a01b03168361018001518281518110611a5857611a5861322d565b60200260200101516001600160a01b03161415611a7a57506001949350505050565b80611a84816131d2565b915050611a2f565b506000949350505050565b600080611aa384610d83565b90506000816101000151826101200151611abd9190613109565b90508160e001518451836101000151611ad69190613109565b1115611b0f5760405162461bcd60e51b815260206004820152600860248201526714d3d3110813d55560c21b604482015260640161051e565b6000805b8551821015611be157611b268284613109565b9050611b4b868381518110611b3d57611b3d61322d565b6020026020010151826121ea565b6000818152600b6020526040902087905585517f324082de3a4de96b605b60a5caea156c737d3cabcd463779a47206a8d6e8c6c89088908390899086908110611b9657611b9661322d565b6020026020010151604051611bc79392919092835260208301919091526001600160a01b0316604082015260600190565b60405180910390a1611bda600183613109565b9150611b13565b8551600a8881548110611bf657611bf661322d565b90600052602060002090600d02016008016000828254611c169190613109565b9091555090979650505050505050565b6000611c318261197c565b611c925760405162461bcd60e51b815260206004820152602c60248201527f4552433732313a206f70657261746f7220717565727920666f72206e6f6e657860448201526b34b9ba32b73a103a37b5b2b760a11b606482015260840161051e565b6000611c9d83610a88565b9050806001600160a01b0316846001600160a01b03161480611cd85750836001600160a01b0316611ccd846104b6565b6001600160a01b0316145b80611ce85750611ce881856118fe565b949350505050565b826001600160a01b0316611d0382610a88565b6001600160a01b031614611d6b5760405162461bcd60e51b815260206004820152602960248201527f4552433732313a207472616e73666572206f6620746f6b656e2074686174206960448201526839903737ba1037bbb760b91b606482015260840161051e565b6001600160a01b038216611dcd5760405162461bcd60e51b8152602060048201526024808201527f4552433732313a207472616e7366657220746f20746865207a65726f206164646044820152637265737360e01b606482015260840161051e565b611dd8600082611999565b6001600160a01b0383166000908152600360205260408120805460019290611e01908490613154565b90915550506001600160a01b0382166000908152600360205260408120805460019290611e2f908490613109565b909155505060008181526002602052604080822080546001600160a01b0319166001600160a01b0386811691821790925591518493918716917fddf252ad1be2c89b69c2b068fc378daa952ba7f163c4a11628f55a4df523b3ef91a4505050565b611e9b848484611cf0565b611ea78484848461231d565b6114bc5760405162461bcd60e51b815260040161051e90612e59565b606081611ee75750506040805180820190915260018152600360fc1b602082015290565b8160005b8115611f115780611efb816131d2565b9150611f0a9050600a83613121565b9150611eeb565b6000816001600160401b03811115611f2b57611f2b613243565b6040519080825280601f01601f191660200182016040528015611f55576020820181803683370190505b5090505b8415611ce857611f6a600183613154565b9150611f77600a866131ed565b611f82906030613109565b60f81b818381518110611f9757611f9761322d565b60200101906001600160f81b031916908160001a905350611fb9600a86613121565b9450611f59565b608082015151604083015151606091158015911515908290611fdf5750805b1561202b578460800151611ff285611ec3565b866040015161200087611ec3565b6040516020016120139493929190612b3b565b6040516020818303038152906040529250505061041e565b811561205057846080015161203f85611ec3565b604051602001612013929190612ad5565b801561206b5784604001516040516020016120139190612d77565b50506040805160208101909152600081529392505050565b60608151600014156120a357505060408051602081019091526000815290565b600060405180606001604052806040815260200161328860409139905060006003845160026120d29190613109565b6120dc9190613121565b6120e7906004613135565b905060006120f6826020613109565b6001600160401b0381111561210d5761210d613243565b6040519080825280601f01601f191660200182016040528015612137576020820181803683370190505b509050818152600183018586518101602084015b818310156121a55760039283018051603f601282901c811687015160f890811b8552600c83901c8216880151811b6001860152600683901c8216880151811b60028601529116860151901b9382019390935260040161214b565b6003895106600181146121bf57600281146121d0576121dc565b613d3d60f01b6001198301526121dc565b603d60f81b6000198301525b509398975050505050505050565b6001600160a01b0382166122405760405162461bcd60e51b815260206004820181905260248201527f4552433732313a206d696e7420746f20746865207a65726f2061646472657373604482015260640161051e565b6122498161197c565b156122965760405162461bcd60e51b815260206004820152601c60248201527f4552433732313a20746f6b656e20616c7265616479206d696e74656400000000604482015260640161051e565b6001600160a01b03821660009081526003602052604081208054600192906122bf908490613109565b909155505060008181526002602052604080822080546001600160a01b0319166001600160a01b03861690811790915590518392907fddf252ad1be2c89b69c2b068fc378daa952ba7f163c4a11628f55a4df523b3ef908290a45050565b60006001600160a01b0384163b1561241f57604051630a85bd0160e11b81526001600160a01b0385169063150b7a0290612361903390899088908890600401612dcc565b602060405180830381600087803b15801561237b57600080fd5b505af19250505080156123ab575060408051601f3d908101601f191682019092526123a8918101906127b8565b60015b612405573d8080156123d9576040519150601f19603f3d011682016040523d82523d6000602084013e6123de565b606091505b5080516123fd5760405162461bcd60e51b815260040161051e90612e59565b805181602001fd5b6001600160e01b031916630a85bd0160e11b149050611ce8565b506001949350505050565b82805461243690613197565b90600052602060002090601f016020900481019282612458576000855561249e565b82601f1061247157805160ff191683800117855561249e565b8280016001018555821561249e579182015b8281111561249e578251825591602001919060010190612483565b506124aa929150612583565b5090565b82805482825590600052602060002090810192821561249e579160200282015b8281111561249e57825182546001600160a01b0319166001600160a01b039091161782556020909201916001909101906124ce565b604051806101a0016040528060608152602001606081526020016060815260200160008019168152602001606081526020016000801916815260200160006001600160a01b0316815260200160008152602001600081526020016000815260200160006001600160a01b0316815260200160008152602001606081525090565b5b808211156124aa5760008155600101612584565b60006001600160401b038311156125b1576125b1613243565b6125c4601f8401601f19166020016130d9565b90508281528383830111156125d857600080fd5b828260208301376000602084830101529392505050565b80356125fa81613259565b919050565b600082601f83011261261057600080fd5b61261f83833560208501612598565b9392505050565b60006020828403121561263857600080fd5b813561261f81613259565b6000806040838503121561265657600080fd5b823561266181613259565b9150602083013561267181613259565b809150509250929050565b60008060006060848603121561269157600080fd5b833561269c81613259565b925060208401356126ac81613259565b929592945050506040919091013590565b600080600080608085870312156126d357600080fd5b84356126de81613259565b935060208501356126ee81613259565b92506040850135915060608501356001600160401b0381111561271057600080fd5b8501601f8101871361272157600080fd5b61273087823560208401612598565b91505092959194509250565b6000806040838503121561274f57600080fd5b823561275a81613259565b91506020830135801515811461267157600080fd5b6000806040838503121561278257600080fd5b823561278d81613259565b946020939093013593505050565b6000602082840312156127ad57600080fd5b813561261f81613271565b6000602082840312156127ca57600080fd5b815161261f81613271565b60008060008060008060008060006101208a8c0312156127f457600080fd5b89356001600160401b038082111561280b57600080fd5b6128178d838e016125ff565b9a5060208c013591508082111561282d57600080fd5b6128398d838e016125ff565b995060408c013591508082111561284f57600080fd5b61285b8d838e016125ff565b985060608c0135975060808c013591508082111561287857600080fd5b506128858c828d016125ff565b95505060a08a0135935060c08a0135925060e08a013591506128aa6101008b016125ef565b90509295985092959850929598565b6000602082840312156128cb57600080fd5b5035919050565b600080604083850312156128e557600080fd5b82359150602083013561267181613259565b6000806040838503121561290a57600080fd5b823591506020808401356001600160401b038082111561292957600080fd5b818601915086601f83011261293d57600080fd5b81358181111561294f5761294f613243565b8060051b91506129608483016130d9565b8181528481019084860184860187018b101561297b57600080fd5b600095505b838610156129aa578035945061299585613259565b84835260019590950194918601918601612980565b508096505050505050509250929050565b6000806000606084860312156129d057600080fd5b8335925060208401356001600160401b03808211156129ee57600080fd5b6129fa878388016125ff565b93506040860135915080821115612a1057600080fd5b50612a1d868287016125ff565b9150509250925092565b60008060408385031215612a3a57600080fd5b50508035926020909101359150565b600081518084526020808501945080840160005b83811015612a825781516001600160a01b031687529582019590820190600101612a5d565b509495945050505050565b60008151808452612aa581602086016020860161316b565b601f01601f19169290920160200192915050565b60008151612acb81856020860161316b565b9290920192915050565b6834b6b0b3b2911d101160b91b81528251600090612afa81600985016020880161316b565b633f69643d60e01b6009918401918201528351612b1e81600d84016020880161316b565b631116101160e11b600d9290910191820152601101949350505050565b6834b6b0b3b2911d101160b91b81528451600090612b60816009850160208a0161316b565b8083019050633f69643d60e01b8060098301528651612b8681600d850160208b0161316b565b741116101130b734b6b0ba34b7b72fbab936111d101160591b600d93909101928301528551612bbc816022850160208a0161316b565b60229201918201528351612bd781602684016020880161316b565b631116101160e11b60269290910191820152602a019695505050505050565b693d913730b6b2911d101160b11b81528751600090612c1c81600a850160208d0161316b565b600160fd1b600a918401918201528851612c3d81600b840160208d0161316b565b602f60f81b600b92909101918201528751612c5f81600c840160208c0161316b565b631116101160e11b600c92909101918201526e3232b9b1b934b83a34b7b7111d101160891b60108201528651612c9c81601f840160208b0161316b565b612d23612d14612d0e612cf7612cf1612ccd612cc7601f888a0101631116101160e11b815260040190565b8d612ab9565b770383937b832b93a34b2b9911d103d91373ab6b132b9111d160451b815260180190565b8a612ab9565b6a1610113730b6b2911d101160a91b8152600b0190565b87612ab9565b62227d7d60e81b815260030190565b9b9a5050505050505050505050565b7f646174613a6170706c69636174696f6e2f6a736f6e3b6261736536342c000000815260008251612d6a81601d85016020870161316b565b91909101601d0192915050565b7030b734b6b0ba34b7b72fbab936111d101160791b81528151600090612da481601185016020870161316b565b633f69643d60e01b6011939091019283015250631116101160e11b6015820152601901919050565b6001600160a01b0385811682528416602082015260408101839052608060608201819052600090612dff90830184612a8d565b9695505050505050565b60208152600061261f6020830184612a8d565b608081526000612e2f6080830187612a8d565b8560208401528281036040840152612e478186612a8d565b91505082606083015295945050505050565b60208082526032908201527f4552433732313a207472616e7366657220746f206e6f6e20455243373231526560408201527131b2b4bb32b91034b6b83632b6b2b73a32b960711b606082015260800190565b60208082526012908201527129b2b934b0b6103bb937b7339037bbb732b960711b604082015260600190565b6020808252601d908201527f4e6565647320746f20626520616e20616c6c6f776564206d696e746572000000604082015260600190565b60208082526015908201527414d95c9a585b081b9959591cc81d1bc8195e1a5cdd605a1b604082015260600190565b60208082526031908201527f4552433732313a207472616e736665722063616c6c6572206973206e6f74206f6040820152701ddb995c881b9bdc88185c1c1c9bdd9959607a1b606082015260800190565b6020808252601f908201527f5265656e7472616e637947756172643a207265656e7472616e742063616c6c00604082015260600190565b60208152600082516101a0806020850152612fe46101c0850183612a8d565b91506020850151601f19808685030160408701526130028483612a8d565b9350604087015191508086850301606087015261301f8483612a8d565b93506060870151608087015260808701519150808685030160a08701526130468483612a8d565b935060a087015160c087015260c0870151915061306e60e08701836001600160a01b03169052565b60e087015161010087810191909152870151610120808801919091528701516101408088019190915287015191506101606130b3818801846001600160a01b03169052565b87015161018087810191909152870151868503909101838701529050612dff8382612a49565b604051601f8201601f191681016001600160401b038111828210171561310157613101613243565b604052919050565b6000821982111561311c5761311c613201565b500190565b60008261313057613130613217565b500490565b600081600019048311821515161561314f5761314f613201565b500290565b60008282101561316657613166613201565b500390565b60005b8381101561318657818101518382015260200161316e565b838111156114bc5750506000910152565b600181811c908216806131ab57607f821691505b602082108114156131cc57634e487b7160e01b600052602260045260246000fd5b50919050565b60006000198214156131e6576131e6613201565b5060010190565b6000826131fc576131fc613217565b500690565b634e487b7160e01b600052601160045260246000fd5b634e487b7160e01b600052601260045260246000fd5b634e487b7160e01b600052603260045260246000fd5b634e487b7160e01b600052604160045260246000fd5b6001600160a01b038116811461326e57600080fd5b50565b6001600160e01b03198116811461326e57600080fdfe4142434445464748494a4b4c4d4e4f505152535455565758595a6162636465666768696a6b6c6d6e6f707172737475767778797a303132333435363738392b2fa26469706673582212208131193a55a590db34cd108bf5878166cc127dd40924d2358f6848fc3063c4e164736f6c63430008060033",
  "devdoc": {
    "kind": "dev",
    "methods": {
      "approve(address,uint256)": {
        "details": "See {IERC721-approve}."
      },
      "balanceOf(address)": {
        "details": "See {IERC721-balanceOf}."
      },
      "getApproved(uint256)": {
        "details": "See {IERC721-getApproved}."
      },
      "isApprovedForAll(address,address)": {
        "details": "See {IERC721-isApprovedForAll}."
      },
      "name()": {
        "details": "See {IERC721Metadata-name}."
      },
      "ownerOf(uint256)": {
        "details": "See {IERC721-ownerOf}."
      },
      "royaltyInfo(uint256,uint256)": {
        "params": {
          "_salePrice": "- the sale price of the NFT asset specified by _tokenId",
          "_tokenId": "- the NFT asset queried for royalty information"
        },
        "returns": {
          "receiver": "- address of who should be sent the royalty payment",
          "royaltyAmount": "- the royalty payment amount for _salePrice"
        }
      },
      "safeTransferFrom(address,address,uint256)": {
        "details": "See {IERC721-safeTransferFrom}."
      },
      "safeTransferFrom(address,address,uint256,bytes)": {
        "details": "See {IERC721-safeTransferFrom}."
      },
      "setApprovalForAll(address,bool)": {
        "details": "See {IERC721-setApprovalForAll}."
      },
      "symbol()": {
        "details": "See {IERC721Metadata-symbol}."
      },
      "tokenURI(uint256)": {
        "details": "See {IERC721Metadata-tokenURI}."
      },
      "transferFrom(address,address,uint256)": {
        "details": "See {IERC721-transferFrom}."
      }
    },
    "version": 1
  },
  "userdoc": {
    "kind": "user",
    "methods": {},
    "notice": "This is a smart contract for handling dynamic contract minting.",
    "version": 1
  },
  "storageLayout": {
    "storage": [
      {
        "astId": 247,
        "contract": "contracts/DynamicSerialMintable.sol:DynamicSerialMintable",
        "label": "_name",
        "offset": 0,
        "slot": "0",
        "type": "t_string_storage"
      },
      {
        "astId": 249,
        "contract": "contracts/DynamicSerialMintable.sol:DynamicSerialMintable",
        "label": "_symbol",
        "offset": 0,
        "slot": "1",
        "type": "t_string_storage"
      },
      {
        "astId": 253,
        "contract": "contracts/DynamicSerialMintable.sol:DynamicSerialMintable",
        "label": "_owners",
        "offset": 0,
        "slot": "2",
        "type": "t_mapping(t_uint256,t_address)"
      },
      {
        "astId": 257,
        "contract": "contracts/DynamicSerialMintable.sol:DynamicSerialMintable",
        "label": "_balances",
        "offset": 0,
        "slot": "3",
        "type": "t_mapping(t_address,t_uint256)"
      },
      {
        "astId": 261,
        "contract": "contracts/DynamicSerialMintable.sol:DynamicSerialMintable",
        "label": "_tokenApprovals",
        "offset": 0,
        "slot": "4",
        "type": "t_mapping(t_uint256,t_address)"
      },
      {
        "astId": 267,
        "contract": "contracts/DynamicSerialMintable.sol:DynamicSerialMintable",
        "label": "_operatorApprovals",
        "offset": 0,
        "slot": "5",
        "type": "t_mapping(t_address,t_mapping(t_address,t_bool))"
      },
      {
        "astId": 114,
        "contract": "contracts/DynamicSerialMintable.sol:DynamicSerialMintable",
        "label": "_status",
        "offset": 0,
        "slot": "6",
        "type": "t_uint256"
      },
      {
        "astId": 1873,
        "contract": "contracts/DynamicSerialMintable.sol:DynamicSerialMintable",
        "label": "tokenIdsReserved",
        "offset": 0,
        "slot": "7",
        "type": "t_uint256"
      },
      {
        "astId": 1876,
        "contract": "contracts/DynamicSerialMintable.sol:DynamicSerialMintable",
        "label": "currentSerial",
        "offset": 0,
        "slot": "8",
        "type": "t_uint256"
      },
      {
        "astId": 1878,
        "contract": "contracts/DynamicSerialMintable.sol:DynamicSerialMintable",
        "label": "allowedCreator",
        "offset": 0,
        "slot": "9",
        "type": "t_address"
      },
      {
        "astId": 1882,
        "contract": "contracts/DynamicSerialMintable.sol:DynamicSerialMintable",
        "label": "serials",
        "offset": 0,
        "slot": "10",
        "type": "t_array(t_struct(SerialConfig)1852_storage)dyn_storage"
      },
      {
        "astId": 1886,
        "contract": "contracts/DynamicSerialMintable.sol:DynamicSerialMintable",
        "label": "tokenIdToSerialId",
        "offset": 0,
        "slot": "11",
        "type": "t_mapping(t_uint256,t_uint256)"
      }
    ],
    "types": {
      "t_address": {
        "encoding": "inplace",
        "label": "address",
        "numberOfBytes": "20"
      },
      "t_address_payable": {
        "encoding": "inplace",
        "label": "address payable",
        "numberOfBytes": "20"
      },
      "t_array(t_address)dyn_storage": {
        "base": "t_address",
        "encoding": "dynamic_array",
        "label": "address[]",
        "numberOfBytes": "32"
      },
      "t_array(t_struct(SerialConfig)1852_storage)dyn_storage": {
        "base": "t_struct(SerialConfig)1852_storage",
        "encoding": "dynamic_array",
        "label": "struct DynamicSerialMintable.SerialConfig[]",
        "numberOfBytes": "32"
      },
      "t_bool": {
        "encoding": "inplace",
        "label": "bool",
        "numberOfBytes": "1"
      },
      "t_bytes32": {
        "encoding": "inplace",
        "label": "bytes32",
        "numberOfBytes": "32"
      },
      "t_mapping(t_address,t_bool)": {
        "encoding": "mapping",
        "key": "t_address",
        "label": "mapping(address => bool)",
        "numberOfBytes": "32",
        "value": "t_bool"
      },
      "t_mapping(t_address,t_mapping(t_address,t_bool))": {
        "encoding": "mapping",
        "key": "t_address",
        "label": "mapping(address => mapping(address => bool))",
        "numberOfBytes": "32",
        "value": "t_mapping(t_address,t_bool)"
      },
      "t_mapping(t_address,t_uint256)": {
        "encoding": "mapping",
        "key": "t_address",
        "label": "mapping(address => uint256)",
        "numberOfBytes": "32",
        "value": "t_uint256"
      },
      "t_mapping(t_uint256,t_address)": {
        "encoding": "mapping",
        "key": "t_uint256",
        "label": "mapping(uint256 => address)",
        "numberOfBytes": "32",
        "value": "t_address"
      },
      "t_mapping(t_uint256,t_uint256)": {
        "encoding": "mapping",
        "key": "t_uint256",
        "label": "mapping(uint256 => uint256)",
        "numberOfBytes": "32",
        "value": "t_uint256"
      },
      "t_string_storage": {
        "encoding": "bytes",
        "label": "string",
        "numberOfBytes": "32"
      },
      "t_struct(SerialConfig)1852_storage": {
        "encoding": "inplace",
        "label": "struct DynamicSerialMintable.SerialConfig",
        "members": [
          {
            "astId": 1826,
            "contract": "contracts/DynamicSerialMintable.sol:DynamicSerialMintable",
            "label": "name",
            "offset": 0,
            "slot": "0",
            "type": "t_string_storage"
          },
          {
            "astId": 1828,
            "contract": "contracts/DynamicSerialMintable.sol:DynamicSerialMintable",
            "label": "description",
            "offset": 0,
            "slot": "1",
            "type": "t_string_storage"
          },
          {
            "astId": 1830,
            "contract": "contracts/DynamicSerialMintable.sol:DynamicSerialMintable",
            "label": "animationUrl",
            "offset": 0,
            "slot": "2",
            "type": "t_string_storage"
          },
          {
            "astId": 1832,
            "contract": "contracts/DynamicSerialMintable.sol:DynamicSerialMintable",
            "label": "animationHash",
            "offset": 0,
            "slot": "3",
            "type": "t_bytes32"
          },
          {
            "astId": 1834,
            "contract": "contracts/DynamicSerialMintable.sol:DynamicSerialMintable",
            "label": "imageUrl",
            "offset": 0,
            "slot": "4",
            "type": "t_string_storage"
          },
          {
            "astId": 1836,
            "contract": "contracts/DynamicSerialMintable.sol:DynamicSerialMintable",
            "label": "imageHash",
            "offset": 0,
            "slot": "5",
            "type": "t_bytes32"
          },
          {
            "astId": 1838,
            "contract": "contracts/DynamicSerialMintable.sol:DynamicSerialMintable",
            "label": "owner",
            "offset": 0,
            "slot": "6",
            "type": "t_address"
          },
          {
            "astId": 1840,
            "contract": "contracts/DynamicSerialMintable.sol:DynamicSerialMintable",
            "label": "serialSize",
            "offset": 0,
            "slot": "7",
            "type": "t_uint256"
          },
          {
            "astId": 1842,
            "contract": "contracts/DynamicSerialMintable.sol:DynamicSerialMintable",
            "label": "atSerialId",
            "offset": 0,
            "slot": "8",
            "type": "t_uint256"
          },
          {
            "astId": 1844,
            "contract": "contracts/DynamicSerialMintable.sol:DynamicSerialMintable",
            "label": "firstReservedToken",
            "offset": 0,
            "slot": "9",
            "type": "t_uint256"
          },
          {
            "astId": 1846,
            "contract": "contracts/DynamicSerialMintable.sol:DynamicSerialMintable",
            "label": "royaltyRecipient",
            "offset": 0,
            "slot": "10",
            "type": "t_address_payable"
          },
          {
            "astId": 1848,
            "contract": "contracts/DynamicSerialMintable.sol:DynamicSerialMintable",
            "label": "royaltyBPS",
            "offset": 0,
            "slot": "11",
            "type": "t_uint256"
          },
          {
            "astId": 1851,
            "contract": "contracts/DynamicSerialMintable.sol:DynamicSerialMintable",
            "label": "allowedMinters",
            "offset": 0,
            "slot": "12",
            "type": "t_array(t_address)dyn_storage"
          }
        ],
        "numberOfBytes": "416"
      },
      "t_uint256": {
        "encoding": "inplace",
        "label": "uint256",
        "numberOfBytes": "32"
      }
    }
  }
}