{
  "address": "0x9c4a0E6783D43fD66Fed35Eb7140544f2700d8fe",
  "abi": [
    {
      "inputs": [
        {
          "internalType": "contract SharedNFTLogic",
          "name": "_sharedNFTLogic",
          "type": "address"
        }
      ],
      "stateMutability": "nonpayable",
      "type": "constructor"
    },
    {
      "anonymous": false,
      "inputs": [
        {
          "indexed": true,
          "internalType": "address",
          "name": "owner",
          "type": "address"
        },
        {
          "indexed": true,
          "internalType": "address",
          "name": "approved",
          "type": "address"
        },
        {
          "indexed": true,
          "internalType": "uint256",
          "name": "tokenId",
          "type": "uint256"
        }
      ],
      "name": "Approval",
      "type": "event"
    },
    {
      "anonymous": false,
      "inputs": [
        {
          "indexed": true,
          "internalType": "address",
          "name": "owner",
          "type": "address"
        },
        {
          "indexed": true,
          "internalType": "address",
          "name": "operator",
          "type": "address"
        },
        {
          "indexed": false,
          "internalType": "bool",
          "name": "approved",
          "type": "bool"
        }
      ],
      "name": "ApprovalForAll",
      "type": "event"
    },
    {
      "anonymous": false,
      "inputs": [
        {
          "indexed": false,
          "internalType": "uint256",
          "name": "price",
          "type": "uint256"
        },
        {
          "indexed": false,
          "internalType": "address",
          "name": "owner",
          "type": "address"
        }
      ],
      "name": "EditionSold",
      "type": "event"
    },
    {
      "anonymous": false,
      "inputs": [
        {
          "indexed": true,
          "internalType": "address",
          "name": "previousOwner",
          "type": "address"
        },
        {
          "indexed": true,
          "internalType": "address",
          "name": "newOwner",
          "type": "address"
        }
      ],
      "name": "OwnershipTransferred",
      "type": "event"
    },
    {
      "anonymous": false,
      "inputs": [
        {
          "indexed": false,
          "internalType": "uint256",
          "name": "amount",
          "type": "uint256"
        }
      ],
      "name": "PriceChanged",
      "type": "event"
    },
    {
      "anonymous": false,
      "inputs": [
        {
          "indexed": true,
          "internalType": "address",
          "name": "from",
          "type": "address"
        },
        {
          "indexed": true,
          "internalType": "address",
          "name": "to",
          "type": "address"
        },
        {
          "indexed": true,
          "internalType": "uint256",
          "name": "tokenId",
          "type": "uint256"
        }
      ],
      "name": "Transfer",
      "type": "event"
    },
    {
      "inputs": [
        {
          "internalType": "address",
          "name": "to",
          "type": "address"
        },
        {
          "internalType": "uint256",
          "name": "tokenId",
          "type": "uint256"
        }
      ],
      "name": "approve",
      "outputs": [],
      "stateMutability": "nonpayable",
      "type": "function"
    },
    {
      "inputs": [
        {
          "internalType": "address",
          "name": "owner",
          "type": "address"
        }
      ],
      "name": "balanceOf",
      "outputs": [
        {
          "internalType": "uint256",
          "name": "",
          "type": "uint256"
        }
      ],
      "stateMutability": "view",
      "type": "function"
    },
    {
      "inputs": [],
      "name": "editionSize",
      "outputs": [
        {
          "internalType": "uint256",
          "name": "",
          "type": "uint256"
        }
      ],
      "stateMutability": "view",
      "type": "function"
    },
    {
      "inputs": [
        {
          "internalType": "uint256",
          "name": "tokenId",
          "type": "uint256"
        }
      ],
      "name": "getApproved",
      "outputs": [
        {
          "internalType": "address",
          "name": "",
          "type": "address"
        }
      ],
      "stateMutability": "view",
      "type": "function"
    },
    {
      "inputs": [],
      "name": "getURIs",
      "outputs": [
        {
          "internalType": "string",
          "name": "",
          "type": "string"
        },
        {
          "internalType": "bytes32",
          "name": "",
          "type": "bytes32"
        },
        {
          "internalType": "string",
          "name": "",
          "type": "string"
        },
        {
          "internalType": "bytes32",
          "name": "",
          "type": "bytes32"
        }
      ],
      "stateMutability": "view",
      "type": "function"
    },
    {
      "inputs": [
        {
          "internalType": "address",
          "name": "_owner",
          "type": "address"
        },
        {
          "internalType": "string",
          "name": "_name",
          "type": "string"
        },
        {
          "internalType": "string",
          "name": "_symbol",
          "type": "string"
        },
        {
          "internalType": "string",
          "name": "_description",
          "type": "string"
        },
        {
          "internalType": "string",
          "name": "_animationUrl",
          "type": "string"
        },
        {
          "internalType": "bytes32",
          "name": "_animationHash",
          "type": "bytes32"
        },
        {
          "internalType": "string",
          "name": "_imageUrl",
          "type": "string"
        },
        {
          "internalType": "bytes32",
          "name": "_imageHash",
          "type": "bytes32"
        },
        {
          "internalType": "uint256",
          "name": "_editionSize",
          "type": "uint256"
        },
        {
          "internalType": "uint256",
          "name": "_royaltyBPS",
          "type": "uint256"
        }
      ],
      "name": "initialize",
      "outputs": [],
      "stateMutability": "nonpayable",
      "type": "function"
    },
    {
      "inputs": [
        {
          "internalType": "address",
          "name": "owner",
          "type": "address"
        },
        {
          "internalType": "address",
          "name": "operator",
          "type": "address"
        }
      ],
      "name": "isApprovedForAll",
      "outputs": [
        {
          "internalType": "bool",
          "name": "",
          "type": "bool"
        }
      ],
      "stateMutability": "view",
      "type": "function"
    },
    {
      "inputs": [
        {
          "internalType": "address",
          "name": "to",
          "type": "address"
        }
      ],
      "name": "mintEdition",
      "outputs": [
        {
          "internalType": "uint256",
          "name": "",
          "type": "uint256"
        }
      ],
      "stateMutability": "nonpayable",
      "type": "function"
    },
    {
      "inputs": [
        {
          "internalType": "address[]",
          "name": "recipients",
          "type": "address[]"
        }
      ],
      "name": "mintEditions",
      "outputs": [
        {
          "internalType": "uint256",
          "name": "",
          "type": "uint256"
        }
      ],
      "stateMutability": "nonpayable",
      "type": "function"
    },
    {
      "inputs": [],
      "name": "name",
      "outputs": [
        {
          "internalType": "string",
          "name": "",
          "type": "string"
        }
      ],
      "stateMutability": "view",
      "type": "function"
    },
    {
      "inputs": [],
      "name": "owner",
      "outputs": [
        {
          "internalType": "address",
          "name": "",
          "type": "address"
        }
      ],
      "stateMutability": "view",
      "type": "function"
    },
    {
      "inputs": [
        {
          "internalType": "uint256",
          "name": "tokenId",
          "type": "uint256"
        }
      ],
      "name": "ownerOf",
      "outputs": [
        {
          "internalType": "address",
          "name": "",
          "type": "address"
        }
      ],
      "stateMutability": "view",
      "type": "function"
    },
    {
      "inputs": [],
      "name": "purchase",
      "outputs": [
        {
          "internalType": "uint256",
          "name": "",
          "type": "uint256"
        }
      ],
      "stateMutability": "payable",
      "type": "function"
    },
    {
      "inputs": [],
      "name": "renounceOwnership",
      "outputs": [],
      "stateMutability": "nonpayable",
      "type": "function"
    },
    {
      "inputs": [
        {
          "internalType": "uint256",
          "name": "",
          "type": "uint256"
        },
        {
          "internalType": "uint256",
          "name": "_salePrice",
          "type": "uint256"
        }
      ],
      "name": "royaltyInfo",
      "outputs": [
        {
          "internalType": "address",
          "name": "receiver",
          "type": "address"
        },
        {
          "internalType": "uint256",
          "name": "royaltyAmount",
          "type": "uint256"
        }
      ],
      "stateMutability": "view",
      "type": "function"
    },
    {
      "inputs": [
        {
          "internalType": "address",
          "name": "from",
          "type": "address"
        },
        {
          "internalType": "address",
          "name": "to",
          "type": "address"
        },
        {
          "internalType": "uint256",
          "name": "tokenId",
          "type": "uint256"
        }
      ],
      "name": "safeTransferFrom",
      "outputs": [],
      "stateMutability": "nonpayable",
      "type": "function"
    },
    {
      "inputs": [
        {
          "internalType": "address",
          "name": "from",
          "type": "address"
        },
        {
          "internalType": "address",
          "name": "to",
          "type": "address"
        },
        {
          "internalType": "uint256",
          "name": "tokenId",
          "type": "uint256"
        },
        {
          "internalType": "bytes",
          "name": "_data",
          "type": "bytes"
        }
      ],
      "name": "safeTransferFrom",
      "outputs": [],
      "stateMutability": "nonpayable",
      "type": "function"
    },
    {
      "inputs": [],
      "name": "salePrice",
      "outputs": [
        {
          "internalType": "uint256",
          "name": "",
          "type": "uint256"
        }
      ],
      "stateMutability": "view",
      "type": "function"
    },
    {
      "inputs": [
        {
          "internalType": "address",
          "name": "operator",
          "type": "address"
        },
        {
          "internalType": "bool",
          "name": "approved",
          "type": "bool"
        }
      ],
      "name": "setApprovalForAll",
      "outputs": [],
      "stateMutability": "nonpayable",
      "type": "function"
    },
    {
      "inputs": [
        {
          "internalType": "address",
          "name": "minter",
          "type": "address"
        },
        {
          "internalType": "bool",
          "name": "allowed",
          "type": "bool"
        }
      ],
      "name": "setApprovedMinter",
      "outputs": [],
      "stateMutability": "nonpayable",
      "type": "function"
    },
    {
      "inputs": [
        {
          "internalType": "uint256",
          "name": "_salePrice",
          "type": "uint256"
        }
      ],
      "name": "setSalePrice",
      "outputs": [],
      "stateMutability": "nonpayable",
      "type": "function"
    },
    {
      "inputs": [
        {
          "internalType": "bytes4",
          "name": "interfaceId",
          "type": "bytes4"
        }
      ],
      "name": "supportsInterface",
      "outputs": [
        {
          "internalType": "bool",
          "name": "",
          "type": "bool"
        }
      ],
      "stateMutability": "view",
      "type": "function"
    },
    {
      "inputs": [],
      "name": "symbol",
      "outputs": [
        {
          "internalType": "string",
          "name": "",
          "type": "string"
        }
      ],
      "stateMutability": "view",
      "type": "function"
    },
    {
      "inputs": [
        {
          "internalType": "uint256",
          "name": "tokenId",
          "type": "uint256"
        }
      ],
      "name": "tokenURI",
      "outputs": [
        {
          "internalType": "string",
          "name": "",
          "type": "string"
        }
      ],
      "stateMutability": "view",
      "type": "function"
    },
    {
      "inputs": [
        {
          "internalType": "address",
          "name": "from",
          "type": "address"
        },
        {
          "internalType": "address",
          "name": "to",
          "type": "address"
        },
        {
          "internalType": "uint256",
          "name": "tokenId",
          "type": "uint256"
        }
      ],
      "name": "transferFrom",
      "outputs": [],
      "stateMutability": "nonpayable",
      "type": "function"
    },
    {
      "inputs": [
        {
          "internalType": "address",
          "name": "newOwner",
          "type": "address"
        }
      ],
      "name": "transferOwnership",
      "outputs": [],
      "stateMutability": "nonpayable",
      "type": "function"
    },
    {
      "inputs": [
        {
          "internalType": "string",
          "name": "_imageUrl",
          "type": "string"
        },
        {
          "internalType": "string",
          "name": "_animationUrl",
          "type": "string"
        }
      ],
      "name": "updateEditionURLs",
      "outputs": [],
      "stateMutability": "nonpayable",
      "type": "function"
    },
    {
      "inputs": [],
      "name": "withdraw",
      "outputs": [],
      "stateMutability": "nonpayable",
      "type": "function"
    }
  ],
  "transactionHash": "0xe60f04a082884a6ad0c9b766b4ae977191543d1c62ea606548eb957290643dbc",
  "args": [
    "0xBC0caabE68ABfe577cdB5412c8e1a34D257beEa7"
  ],
  "solcInputHash": "6f1fe1a2efe11809b5e940c5e33f4914",
  "bytecode": "0x60a06040523480156200001157600080fd5b50604051620026bb380380620026bb83398101604081905262000034916200004a565b60601b6001600160601b0319166080526200007c565b6000602082840312156200005d57600080fd5b81516001600160a01b03811681146200007557600080fd5b9392505050565b60805160601c6126206200009b600039600061103601526126206000f3fe6080604052600436106101775760003560e01c806364edfbf0116100cc578063b88d4fde1161007a578063b88d4fde1461043b578063c87b56dd1461045b578063e444bfcc1461047b578063e985e9c51461049b578063f2fde38b146104bb578063f4ed0f46146104db578063f51f96dd146104f157600080fd5b806364edfbf01461039457806370a082311461039c578063715018a6146103bc5780638da5cb5b146103d157806395d89b41146103e6578063a22cb465146103fb578063a66ff0af1461041b57600080fd5b806325f0ea901161012957806325f0ea901461029b57806328c5440f146102bb57806329ec16dd146102e05780632a55205a146103005780633ccfd60b1461033f57806342842e0e146103545780636352211e1461037457600080fd5b806301ffc9a71461017c57806306fdde03146101b1578063081812fc146101d3578063095ea7b31461020b5780630f6a93491461022d5780631919fed71461025b57806323b872dd1461027b575b600080fd5b34801561018857600080fd5b5061019c610197366004611fe2565b610507565b60405190151581526020015b60405180910390f35b3480156101bd57600080fd5b506101c6610532565b6040516101a89190612239565b3480156101df57600080fd5b506101f36101ee3660046120f5565b6105c4565b6040516001600160a01b0390911681526020016101a8565b34801561021757600080fd5b5061022b610226366004611f05565b610651565b005b34801561023957600080fd5b5061024d610248366004611f2f565b610762565b6040519081526020016101a8565b34801561026757600080fd5b5061022b6102763660046120f5565b610791565b34801561028757600080fd5b5061022b610296366004611d08565b6107fb565b3480156102a757600080fd5b5061022b6102b6366004611dfb565b61082c565b3480156102c757600080fd5b506102d0610912565b6040516101a8949392919061224c565b3480156102ec57600080fd5b5061022b6102fb366004611dbf565b610a4a565b34801561030c57600080fd5b5061032061031b36600461210e565b610aa4565b604080516001600160a01b0390931683526020830191909152016101a8565b34801561034b57600080fd5b5061022b610b01565b34801561036057600080fd5b5061022b61036f366004611d08565b610bd7565b34801561038057600080fd5b506101f361038f3660046120f5565b610bf2565b61024d610c69565b3480156103a857600080fd5b5061024d6103b7366004611cba565b610d83565b3480156103c857600080fd5b5061022b610e0a565b3480156103dd57600080fd5b506101f3610e45565b3480156103f257600080fd5b506101c6610e5e565b34801561040757600080fd5b5061022b610416366004611dbf565b610e6d565b34801561042757600080fd5b5061024d610436366004611cba565b610f2e565b34801561044757600080fd5b5061022b610456366004611d44565b610fba565b34801561046757600080fd5b506101c66104763660046120f5565b610ff2565b34801561048757600080fd5b5061022b610496366004612092565b6110ea565b3480156104a757600080fd5b5061019c6104b6366004611cd5565b611140565b3480156104c757600080fd5b5061022b6104d6366004611cba565b61116e565b3480156104e757600080fd5b5061024d60ce5481565b3480156104fd57600080fd5b5061024d60d25481565b600063152a902d60e11b6001600160e01b03198316148061052c575061052c8261120b565b92915050565b6060606580546105419061253c565b80601f016020809104026020016040519081016040528092919081815260200182805461056d9061253c565b80156105ba5780601f1061058f576101008083540402835291602001916105ba565b820191906000526020600020905b81548152906001019060200180831161059d57829003601f168201915b5050505050905090565b60006105cf8261125b565b6106355760405162461bcd60e51b815260206004820152602c60248201527f4552433732313a20617070726f76656420717565727920666f72206e6f6e657860448201526b34b9ba32b73a103a37b5b2b760a11b60648201526084015b60405180910390fd5b506000908152606960205260409020546001600160a01b031690565b600061065c82610bf2565b9050806001600160a01b0316836001600160a01b031614156106ca5760405162461bcd60e51b815260206004820152602160248201527f4552433732313a20617070726f76616c20746f2063757272656e74206f776e656044820152603960f91b606482015260840161062c565b336001600160a01b03821614806106e657506106e68133611140565b6107535760405162461bcd60e51b815260206004820152603860248201527f4552433732313a20617070726f76652063616c6c6572206973206e6f74206f776044820152771b995c881b9bdc88185c1c1c9bdd995908199bdc88185b1b60421b606482015260840161062c565b61075d8383611278565b505050565b600061076c6112e6565b6107885760405162461bcd60e51b815260040161062c906123c1565b61052c82611355565b3361079a610e45565b6001600160a01b0316146107c05760405162461bcd60e51b815260040161062c9061238c565b60d28190556040518181527fa6dc15bdb68da224c66db4b3838d9a2b205138e8cff6774e57d0af91e196d6229060200160405180910390a150565b6108053382611417565b6108215760405162461bcd60e51b815260040161062c906123f8565b61075d8383836114e1565b600054610100900460ff1680610845575060005460ff16155b6108615760405162461bcd60e51b815260040161062c9061233e565b600054610100900460ff16158015610883576000805461ffff19166101011790555b61088d8a8a611681565b610895611708565b61089e8b61116e565b87516108b19060c99060208b0190611ba7565b5086516108c59060ca9060208a0190611ba7565b5060cb86905584516108de9060cc906020880190611ba7565b5060cd84905560ce83905560d0829055600160cf558015610905576000805461ff00191690555b5050505050505050505050565b606060006060600060cc60cd5460ca60cb548380546109309061253c565b80601f016020809104026020016040519081016040528092919081815260200182805461095c9061253c565b80156109a95780601f1061097e576101008083540402835291602001916109a9565b820191906000526020600020905b81548152906001019060200180831161098c57829003601f168201915b505050505093508180546109bc9061253c565b80601f01602080910402602001604051908101604052809291908181526020018280546109e89061253c565b8015610a355780601f10610a0a57610100808354040283529160200191610a35565b820191906000526020600020905b815481529060010190602001808311610a1857829003601f168201915b50505050509150935093509350935090919293565b33610a53610e45565b6001600160a01b031614610a795760405162461bcd60e51b815260040161062c9061238c565b6001600160a01b0391909116600090815260d160205260409020805460ff1916911515919091179055565b60008080610ab0610e45565b6001600160a01b03161415610ad257610ac7610e45565b600091509150610afa565b610ada610e45565b61271060d05485610aeb91906124da565b610af591906124b8565b915091505b9250929050565b33610b0a610e45565b6001600160a01b031614610b305760405162461bcd60e51b815260040161062c9061238c565b6000610b3a610e45565b6001600160a01b0316476184d090604051600060405180830381858888f193505050503d8060008114610b89576040519150601f19603f3d011682016040523d82523d6000602084013e610b8e565b606091505b5050905080610bd45760405162461bcd60e51b815260206004820152601260248201527108cc2d2d8cac840e8de40e6cadcc8408ae8d60731b604482015260640161062c565b50565b61075d83838360405180602001604052806000815250610fba565b6000818152606760205260408120546001600160a01b03168061052c5760405162461bcd60e51b815260206004820152602960248201527f4552433732313a206f776e657220717565727920666f72206e6f6e657869737460448201526832b73a103a37b5b2b760b91b606482015260840161062c565b60008060d25411610cab5760405162461bcd60e51b815260206004820152600c60248201526b4e6f7420666f722073616c6560a01b604482015260640161062c565b60d2543414610cea5760405162461bcd60e51b815260206004820152600b60248201526a57726f6e6720707269636560a81b604482015260640161062c565b604080516001808252818301909252600091602080830190803683370190505090503381600081518110610d2057610d206125a8565b6001600160a01b0390921660209283029190910182015260d2546040805191825233928201929092527f60a6c75698fadb72223808131f9f9bb9db3afa32122db6d94fb8fc985a504baa910160405180910390a1610d7d81611355565b91505090565b60006001600160a01b038216610dee5760405162461bcd60e51b815260206004820152602a60248201527f4552433732313a2062616c616e636520717565727920666f7220746865207a65604482015269726f206164647265737360b01b606482015260840161062c565b506001600160a01b031660009081526068602052604090205490565b33610e13610e45565b6001600160a01b031614610e395760405162461bcd60e51b815260040161062c9061238c565b610e436000611783565b565b6000610e596097546001600160a01b031690565b905090565b6060606680546105419061253c565b6001600160a01b038216331415610ec25760405162461bcd60e51b815260206004820152601960248201527822a9219b99189d1030b8383937bb32903a379031b0b63632b960391b604482015260640161062c565b336000818152606a602090815260408083206001600160a01b03871680855290835292819020805460ff191686151590811790915590519081529192917f17307eab39ab6107e8899845ad3d59bd9653f200f220920489ca2b5937696c31910160405180910390a35050565b6000610f386112e6565b610f545760405162461bcd60e51b815260040161062c906123c1565b604080516001808252818301909252600091602080830190803683370190505090508281600081518110610f8a57610f8a6125a8565b60200260200101906001600160a01b031690816001600160a01b031681525050610fb381611355565b9392505050565b610fc43383611417565b610fe05760405162461bcd60e51b815260040161062c906123f8565b610fec848484846117d5565b50505050565b6060610ffd8261125b565b6110345760405162461bcd60e51b81526020600482015260086024820152672727902a27a5a2a760c11b604482015260640161062c565b7f00000000000000000000000000000000000000000000000000000000000000006001600160a01b031663df30dba061106b610532565b60c960cc60ca8760ce546040518763ffffffff1660e01b815260040161109696959493929190612289565b60006040518083038186803b1580156110ae57600080fd5b505afa1580156110c2573d6000803e3d6000fd5b505050506040513d6000823e601f3d908101601f1916820160405261052c919081019061201c565b336110f3610e45565b6001600160a01b0316146111195760405162461bcd60e51b815260040161062c9061238c565b815161112c9060cc906020850190611ba7565b50805161075d9060ca906020840190611ba7565b6001600160a01b039182166000908152606a6020908152604080832093909416825291909152205460ff1690565b33611177610e45565b6001600160a01b03161461119d5760405162461bcd60e51b815260040161062c9061238c565b6001600160a01b0381166112025760405162461bcd60e51b815260206004820152602660248201527f4f776e61626c653a206e6577206f776e657220697320746865207a65726f206160448201526564647265737360d01b606482015260840161062c565b610bd481611783565b60006001600160e01b031982166380ac58cd60e01b148061123c57506001600160e01b03198216635b5e139f60e01b145b8061052c57506301ffc9a760e01b6001600160e01b031983161461052c565b6000908152606760205260409020546001600160a01b0316151590565b600081815260696020526040902080546001600160a01b0319166001600160a01b03841690811790915581906112ad82610bf2565b6001600160a01b03167f8c5be1e5ebec7d5bd14f71427d1e84f3dd0314c0f7b2291e5b200ac8c7c3b92560405160405180910390a45050565b6000336112f1610e45565b6001600160a01b031614156113065750600190565b6000805260d16020527efa5413e7b01fc543d01f0911de573ace463b956369df4472f39030e8d98b775460ff161561133e5750600190565b5033600090815260d1602052604090205460ff1690565b60008060cf5490506000600184518361136e91906124a0565b61137891906124f9565b905060ce548111156113b75760405162461bcd60e51b815260206004820152600860248201526714d3d3110813d55560c21b604482015260640161062c565b8060cf541161140c576113f2848360cf546113d291906124f9565b815181106113e2576113e26125a8565b602002602001015160cf54611808565b60cf805490600061140283612577565b91905055506113b7565b505060cf5492915050565b60006114228261125b565b6114835760405162461bcd60e51b815260206004820152602c60248201527f4552433732313a206f70657261746f7220717565727920666f72206e6f6e657860448201526b34b9ba32b73a103a37b5b2b760a11b606482015260840161062c565b600061148e83610bf2565b9050806001600160a01b0316846001600160a01b031614806114c95750836001600160a01b03166114be846105c4565b6001600160a01b0316145b806114d957506114d98185611140565b949350505050565b826001600160a01b03166114f482610bf2565b6001600160a01b03161461155c5760405162461bcd60e51b815260206004820152602960248201527f4552433732313a207472616e73666572206f6620746f6b656e2074686174206960448201526839903737ba1037bbb760b91b606482015260840161062c565b6001600160a01b0382166115be5760405162461bcd60e51b8152602060048201526024808201527f4552433732313a207472616e7366657220746f20746865207a65726f206164646044820152637265737360e01b606482015260840161062c565b6115c9600082611278565b6001600160a01b03831660009081526068602052604081208054600192906115f29084906124f9565b90915550506001600160a01b03821660009081526068602052604081208054600192906116209084906124a0565b909155505060008181526067602052604080822080546001600160a01b0319166001600160a01b0386811691821790925591518493918716917fddf252ad1be2c89b69c2b068fc378daa952ba7f163c4a11628f55a4df523b3ef91a4505050565b600054610100900460ff168061169a575060005460ff16155b6116b65760405162461bcd60e51b815260040161062c9061233e565b600054610100900460ff161580156116d8576000805461ffff19166101011790555b6116e061193b565b6116e861193b565b6116f283836119a5565b801561075d576000805461ff0019169055505050565b600054610100900460ff1680611721575060005460ff16155b61173d5760405162461bcd60e51b815260040161062c9061233e565b600054610100900460ff1615801561175f576000805461ffff19166101011790555b61176761193b565b61176f611a3a565b8015610bd4576000805461ff001916905550565b609780546001600160a01b038381166001600160a01b0319831681179093556040519116919082907f8be0079c531659141344cd1fd0a4f28419497f9722a3daafe3b4186f6b6457e090600090a35050565b6117e08484846114e1565b6117ec84848484611a9a565b610fec5760405162461bcd60e51b815260040161062c906122ec565b6001600160a01b03821661185e5760405162461bcd60e51b815260206004820181905260248201527f4552433732313a206d696e7420746f20746865207a65726f2061646472657373604482015260640161062c565b6118678161125b565b156118b45760405162461bcd60e51b815260206004820152601c60248201527f4552433732313a20746f6b656e20616c7265616479206d696e74656400000000604482015260640161062c565b6001600160a01b03821660009081526068602052604081208054600192906118dd9084906124a0565b909155505060008181526067602052604080822080546001600160a01b0319166001600160a01b03861690811790915590518392907fddf252ad1be2c89b69c2b068fc378daa952ba7f163c4a11628f55a4df523b3ef908290a45050565b600054610100900460ff1680611954575060005460ff16155b6119705760405162461bcd60e51b815260040161062c9061233e565b600054610100900460ff1615801561176f576000805461ffff19166101011790558015610bd4576000805461ff001916905550565b600054610100900460ff16806119be575060005460ff16155b6119da5760405162461bcd60e51b815260040161062c9061233e565b600054610100900460ff161580156119fc576000805461ffff19166101011790555b8251611a0f906065906020860190611ba7565b508151611a23906066906020850190611ba7565b50801561075d576000805461ff0019169055505050565b600054610100900460ff1680611a53575060005460ff16155b611a6f5760405162461bcd60e51b815260040161062c9061233e565b600054610100900460ff16158015611a91576000805461ffff19166101011790555b61176f33611783565b60006001600160a01b0384163b15611b9c57604051630a85bd0160e11b81526001600160a01b0385169063150b7a0290611ade9033908990889088906004016121fc565b602060405180830381600087803b158015611af857600080fd5b505af1925050508015611b28575060408051601f3d908101601f19168201909252611b2591810190611fff565b60015b611b82573d808015611b56576040519150601f19603f3d011682016040523d82523d6000602084013e611b5b565b606091505b508051611b7a5760405162461bcd60e51b815260040161062c906122ec565b805181602001fd5b6001600160e01b031916630a85bd0160e11b1490506114d9565b506001949350505050565b828054611bb39061253c565b90600052602060002090601f016020900481019282611bd55760008555611c1b565b82601f10611bee57805160ff1916838001178555611c1b565b82800160010185558215611c1b579182015b82811115611c1b578251825591602001919060010190611c00565b50611c27929150611c2b565b5090565b5b80821115611c275760008155600101611c2c565b6000611c53611c4e84612479565b612449565b9050828152838383011115611c6757600080fd5b828260208301376000602084830101529392505050565b80356001600160a01b0381168114611c9557600080fd5b919050565b600082601f830112611cab57600080fd5b610fb383833560208501611c40565b600060208284031215611ccc57600080fd5b610fb382611c7e565b60008060408385031215611ce857600080fd5b611cf183611c7e565b9150611cff60208401611c7e565b90509250929050565b600080600060608486031215611d1d57600080fd5b611d2684611c7e565b9250611d3460208501611c7e565b9150604084013590509250925092565b60008060008060808587031215611d5a57600080fd5b611d6385611c7e565b9350611d7160208601611c7e565b92506040850135915060608501356001600160401b03811115611d9357600080fd5b8501601f81018713611da457600080fd5b611db387823560208401611c40565b91505092959194509250565b60008060408385031215611dd257600080fd5b611ddb83611c7e565b915060208301358015158114611df057600080fd5b809150509250929050565b6000806000806000806000806000806101408b8d031215611e1b57600080fd5b611e248b611c7e565b995060208b01356001600160401b0380821115611e4057600080fd5b611e4c8e838f01611c9a565b9a5060408d0135915080821115611e6257600080fd5b611e6e8e838f01611c9a565b995060608d0135915080821115611e8457600080fd5b611e908e838f01611c9a565b985060808d0135915080821115611ea657600080fd5b611eb28e838f01611c9a565b975060a08d0135965060c08d0135915080821115611ecf57600080fd5b50611edc8d828e01611c9a565b94505060e08b013592506101008b013591506101208b013590509295989b9194979a5092959850565b60008060408385031215611f1857600080fd5b611f2183611c7e565b946020939093013593505050565b60006020808385031215611f4257600080fd5b82356001600160401b0380821115611f5957600080fd5b818501915085601f830112611f6d57600080fd5b813581811115611f7f57611f7f6125be565b8060051b9150611f90848301612449565b8181528481019084860184860187018a1015611fab57600080fd5b600095505b83861015611fd557611fc181611c7e565b835260019590950194918601918601611fb0565b5098975050505050505050565b600060208284031215611ff457600080fd5b8135610fb3816125d4565b60006020828403121561201157600080fd5b8151610fb3816125d4565b60006020828403121561202e57600080fd5b81516001600160401b0381111561204457600080fd5b8201601f8101841361205557600080fd5b8051612063611c4e82612479565b81815285602083850101111561207857600080fd5b612089826020830160208601612510565b95945050505050565b600080604083850312156120a557600080fd5b82356001600160401b03808211156120bc57600080fd5b6120c886838701611c9a565b935060208501359150808211156120de57600080fd5b506120eb85828601611c9a565b9150509250929050565b60006020828403121561210757600080fd5b5035919050565b6000806040838503121561212157600080fd5b50508035926020909101359150565b60008151808452612148816020860160208601612510565b601f01601f19169290920160200192915050565b8054600090600181811c908083168061217657607f831692505b602080841082141561219857634e487b7160e01b600052602260045260246000fd5b838852602088018280156121b357600181146121c4576121ef565b60ff198716825282820197506121ef565b60008981526020902060005b878110156121e9578154848201529086019084016121d0565b83019850505b5050505050505092915050565b6001600160a01b038581168252841660208201526040810183905260806060820181905260009061222f90830184612130565b9695505050505050565b602081526000610fb36020830184612130565b60808152600061225f6080830187612130565b85602084015282810360408401526122778186612130565b91505082606083015295945050505050565b60c08152600061229c60c0830189612130565b82810360208401526122ae818961215c565b905082810360408401526122c2818861215c565b905082810360608401526122d6818761215c565b6080840195909552505060a00152949350505050565b60208082526032908201527f4552433732313a207472616e7366657220746f206e6f6e20455243373231526560408201527131b2b4bb32b91034b6b83632b6b2b73a32b960711b606082015260800190565b6020808252602e908201527f496e697469616c697a61626c653a20636f6e747261637420697320616c72656160408201526d191e481a5b9a5d1a585b1a5e995960921b606082015260800190565b6020808252818101527f4f776e61626c653a2063616c6c6572206973206e6f7420746865206f776e6572604082015260600190565b6020808252601d908201527f4e6565647320746f20626520616e20616c6c6f776564206d696e746572000000604082015260600190565b60208082526031908201527f4552433732313a207472616e736665722063616c6c6572206973206e6f74206f6040820152701ddb995c881b9bdc88185c1c1c9bdd9959607a1b606082015260800190565b604051601f8201601f191681016001600160401b0381118282101715612471576124716125be565b604052919050565b60006001600160401b03821115612492576124926125be565b50601f01601f191660200190565b600082198211156124b3576124b3612592565b500190565b6000826124d557634e487b7160e01b600052601260045260246000fd5b500490565b60008160001904831182151516156124f4576124f4612592565b500290565b60008282101561250b5761250b612592565b500390565b60005b8381101561252b578181015183820152602001612513565b83811115610fec5750506000910152565b600181811c9082168061255057607f821691505b6020821081141561257157634e487b7160e01b600052602260045260246000fd5b50919050565b600060001982141561258b5761258b612592565b5060010190565b634e487b7160e01b600052601160045260246000fd5b634e487b7160e01b600052603260045260246000fd5b634e487b7160e01b600052604160045260246000fd5b6001600160e01b031981168114610bd457600080fdfea26469706673582212205bfcfe3e8712171245901b46c71d43cc666d9b9360da58f2303599a8734914c464736f6c63430008060033",
  "devdoc": {
    "author": "iain nash Repository: https://github.com/ourzora/nft-editions",
    "details": "This allows creators to mint a unique serial edition of the same media within a custom contract",
    "kind": "dev",
    "methods": {
      "approve(address,uint256)": {
        "details": "See {IERC721-approve}."
      },
      "balanceOf(address)": {
        "details": "See {IERC721-balanceOf}."
      },
      "getApproved(uint256)": {
        "details": "See {IERC721-getApproved}."
      },
      "getURIs()": {
        "details": "Get URIs for edition NFT",
        "returns": {
          "_0": "imageUrl, imageHash, animationUrl, animationHash"
        }
      },
      "initialize(address,string,string,string,string,bytes32,string,bytes32,uint256,uint256)": {
        "details": "Function to create a new edition. Can only be called by the allowed creator Sets the only allowed minter to the address that creates/owns the edition. This can be re-assigned or updated later",
        "params": {
          "_animationHash": "The associated hash of the animation in sha-256 bytes32 format. If animation is omitted ",
          "_animationUrl": "Animation URL of the edition. Not required, but if omitted image URL needs to be included. This follows the opensea spec for NFTs",
          "_description": "Description of edition, used in the description field of the NFT",
          "_editionSize": "Number of editions that can be minted in total.",
          "_imageHash": "SHA256 of the given image in bytes32 format (0xHASH). If no image is included, the hash can be zero (bytes32 type)",
          "_imageUrl": "Image URL of the edition. Strongly encouraged to be used, if necessary, only animation URL can be used. One of animation and image url need to exist in a edition to render the NFT.",
          "_name": "Name of edition, used in the title as \"$NAME NUMBER/TOTAL\"",
          "_owner": "Owner of edition",
          "_royaltyBPS": "BPS of the royalty set on the contract. Can be 0 for no royalty.",
          "_symbol": "Symbol of the new token contract"
        }
      },
      "isApprovedForAll(address,address)": {
        "details": "See {IERC721-isApprovedForAll}."
      },
      "mintEdition(address)": {
        "details": "This mints one edition to the given address by an allowed minter on the edition instance.",
        "params": {
          "to": "address to send the newly minted edition to"
        }
      },
      "mintEditions(address[])": {
        "details": "This mints multiple editions to the given list of addresses.",
        "params": {
          "recipients": "list of addresses to send the newly minted editions to"
        }
      },
      "name()": {
        "details": "See {IERC721Metadata-name}."
      },
      "ownerOf(uint256)": {
        "details": "See {IERC721-ownerOf}."
      },
      "purchase()": {
        "details": "This allows the user to purchase a edition edition at the given price in the contract."
      },
      "renounceOwnership()": {
        "details": "Leaves the contract without owner. It will not be possible to call `onlyOwner` functions anymore. Can only be called by the current owner. NOTE: Renouncing ownership will leave the contract without an owner, thereby removing any functionality that is only available to the owner."
      },
      "royaltyInfo(uint256,uint256)": {
        "details": "Get royalty information for token",
        "params": {
          "_salePrice": "Sale price for the token"
        }
      },
      "safeTransferFrom(address,address,uint256)": {
        "details": "See {IERC721-safeTransferFrom}."
      },
      "safeTransferFrom(address,address,uint256,bytes)": {
        "details": "See {IERC721-safeTransferFrom}."
      },
      "setApprovalForAll(address,bool)": {
        "details": "See {IERC721-setApprovalForAll}."
      },
      "setApprovedMinter(address,bool)": {
        "details": "Sets the approved minting status of the given address. This requires that msg.sender is the owner of the given edition id. If the ZeroAddress (address(0x0)) is set as a minter, anyone will be allowed to mint. This setup is similar to setApprovalForAll in the ERC721 spec.",
        "params": {
          "allowed": "boolean if that address is allowed to mint",
          "minter": "address to set approved minting status for"
        }
      },
      "setSalePrice(uint256)": {
        "details": "This sets a simple ETH sales price Setting a sales price allows users to mint the edition until it sells out. For more granular sales, use an external sales contract.",
        "params": {
          "_salePrice": "if sale price is 0 sale is stopped, otherwise that amount  of ETH is needed to start the sale."
        }
      },
      "symbol()": {
        "details": "See {IERC721Metadata-symbol}."
      },
      "tokenURI(uint256)": {
        "details": "Get URI for given token id",
        "params": {
          "tokenId": "token id to get uri for"
        },
        "returns": {
          "_0": "base64-encoded json metadata object"
        }
      },
      "transferFrom(address,address,uint256)": {
        "details": "See {IERC721-transferFrom}."
      },
      "transferOwnership(address)": {
        "details": "Transfers ownership of the contract to a new account (`newOwner`). Can only be called by the current owner."
      },
      "updateEditionURLs(string,string)": {
        "details": "Allows for updates of edition urls by the owner of the edition. Only URLs can be updated (data-uris are supported), hashes cannot be updated."
      },
      "withdraw()": {
        "details": "This withdraws ETH from the contract to the contract owner."
      }
    },
    "version": 1
  },
  "userdoc": {
    "kind": "user",
    "methods": {
      "owner()": {
        "notice": "Simple override for owner interface."
      }
    },
    "notice": "This is a smart contract for handling dynamic contract minting.",
    "version": 1
  },
  "storageLayout": {
    "storage": [
      {
        "astId": 232,
        "contract": "contracts/SingleEditionMintable.sol:SingleEditionMintable",
        "label": "_initialized",
        "offset": 0,
        "slot": "0",
        "type": "t_bool"
      },
      {
        "astId": 235,
        "contract": "contracts/SingleEditionMintable.sol:SingleEditionMintable",
        "label": "_initializing",
        "offset": 1,
        "slot": "0",
        "type": "t_bool"
      },
      {
        "astId": 1567,
        "contract": "contracts/SingleEditionMintable.sol:SingleEditionMintable",
        "label": "__gap",
        "offset": 0,
        "slot": "1",
        "type": "t_array(t_uint256)50_storage"
      },
      {
        "astId": 1816,
        "contract": "contracts/SingleEditionMintable.sol:SingleEditionMintable",
        "label": "__gap",
        "offset": 0,
        "slot": "51",
        "type": "t_array(t_uint256)50_storage"
      },
      {
        "astId": 301,
        "contract": "contracts/SingleEditionMintable.sol:SingleEditionMintable",
        "label": "_name",
        "offset": 0,
        "slot": "101",
        "type": "t_string_storage"
      },
      {
        "astId": 303,
        "contract": "contracts/SingleEditionMintable.sol:SingleEditionMintable",
        "label": "_symbol",
        "offset": 0,
        "slot": "102",
        "type": "t_string_storage"
      },
      {
        "astId": 307,
        "contract": "contracts/SingleEditionMintable.sol:SingleEditionMintable",
        "label": "_owners",
        "offset": 0,
        "slot": "103",
        "type": "t_mapping(t_uint256,t_address)"
      },
      {
        "astId": 311,
        "contract": "contracts/SingleEditionMintable.sol:SingleEditionMintable",
        "label": "_balances",
        "offset": 0,
        "slot": "104",
        "type": "t_mapping(t_address,t_uint256)"
      },
      {
        "astId": 315,
        "contract": "contracts/SingleEditionMintable.sol:SingleEditionMintable",
        "label": "_tokenApprovals",
        "offset": 0,
        "slot": "105",
        "type": "t_mapping(t_uint256,t_address)"
      },
      {
        "astId": 321,
        "contract": "contracts/SingleEditionMintable.sol:SingleEditionMintable",
        "label": "_operatorApprovals",
        "offset": 0,
        "slot": "106",
        "type": "t_mapping(t_address,t_mapping(t_address,t_bool))"
      },
      {
        "astId": 1117,
        "contract": "contracts/SingleEditionMintable.sol:SingleEditionMintable",
        "label": "__gap",
        "offset": 0,
        "slot": "107",
        "type": "t_array(t_uint256)44_storage"
      },
      {
        "astId": 10,
        "contract": "contracts/SingleEditionMintable.sol:SingleEditionMintable",
        "label": "_owner",
        "offset": 0,
        "slot": "151",
        "type": "t_address"
      },
      {
        "astId": 123,
        "contract": "contracts/SingleEditionMintable.sol:SingleEditionMintable",
        "label": "__gap",
        "offset": 0,
        "slot": "152",
        "type": "t_array(t_uint256)49_storage"
      },
      {
        "astId": 2368,
        "contract": "contracts/SingleEditionMintable.sol:SingleEditionMintable",
        "label": "description",
        "offset": 0,
        "slot": "201",
        "type": "t_string_storage"
      },
      {
        "astId": 2370,
        "contract": "contracts/SingleEditionMintable.sol:SingleEditionMintable",
        "label": "animationUrl",
        "offset": 0,
        "slot": "202",
        "type": "t_string_storage"
      },
      {
        "astId": 2372,
        "contract": "contracts/SingleEditionMintable.sol:SingleEditionMintable",
        "label": "animationHash",
        "offset": 0,
        "slot": "203",
        "type": "t_bytes32"
      },
      {
        "astId": 2374,
        "contract": "contracts/SingleEditionMintable.sol:SingleEditionMintable",
        "label": "imageUrl",
        "offset": 0,
        "slot": "204",
        "type": "t_string_storage"
      },
      {
        "astId": 2376,
        "contract": "contracts/SingleEditionMintable.sol:SingleEditionMintable",
        "label": "imageHash",
        "offset": 0,
        "slot": "205",
        "type": "t_bytes32"
      },
      {
        "astId": 2378,
        "contract": "contracts/SingleEditionMintable.sol:SingleEditionMintable",
        "label": "editionSize",
        "offset": 0,
        "slot": "206",
        "type": "t_uint256"
      },
      {
        "astId": 2380,
        "contract": "contracts/SingleEditionMintable.sol:SingleEditionMintable",
        "label": "atEditionId",
        "offset": 0,
        "slot": "207",
        "type": "t_uint256"
      },
      {
        "astId": 2382,
        "contract": "contracts/SingleEditionMintable.sol:SingleEditionMintable",
        "label": "royaltyBPS",
        "offset": 0,
        "slot": "208",
        "type": "t_uint256"
      },
      {
        "astId": 2386,
        "contract": "contracts/SingleEditionMintable.sol:SingleEditionMintable",
        "label": "allowedMinters",
        "offset": 0,
        "slot": "209",
        "type": "t_mapping(t_address,t_bool)"
      },
      {
        "astId": 2388,
        "contract": "contracts/SingleEditionMintable.sol:SingleEditionMintable",
        "label": "salePrice",
        "offset": 0,
        "slot": "210",
        "type": "t_uint256"
      }
    ],
    "types": {
      "t_address": {
        "encoding": "inplace",
        "label": "address",
        "numberOfBytes": "20"
      },
      "t_array(t_uint256)44_storage": {
        "base": "t_uint256",
        "encoding": "inplace",
        "label": "uint256[44]",
        "numberOfBytes": "1408"
      },
      "t_array(t_uint256)49_storage": {
        "base": "t_uint256",
        "encoding": "inplace",
        "label": "uint256[49]",
        "numberOfBytes": "1568"
      },
      "t_array(t_uint256)50_storage": {
        "base": "t_uint256",
        "encoding": "inplace",
        "label": "uint256[50]",
        "numberOfBytes": "1600"
      },
      "t_bool": {
        "encoding": "inplace",
        "label": "bool",
        "numberOfBytes": "1"
      },
      "t_bytes32": {
        "encoding": "inplace",
        "label": "bytes32",
        "numberOfBytes": "32"
      },
      "t_mapping(t_address,t_bool)": {
        "encoding": "mapping",
        "key": "t_address",
        "label": "mapping(address => bool)",
        "numberOfBytes": "32",
        "value": "t_bool"
      },
      "t_mapping(t_address,t_mapping(t_address,t_bool))": {
        "encoding": "mapping",
        "key": "t_address",
        "label": "mapping(address => mapping(address => bool))",
        "numberOfBytes": "32",
        "value": "t_mapping(t_address,t_bool)"
      },
      "t_mapping(t_address,t_uint256)": {
        "encoding": "mapping",
        "key": "t_address",
        "label": "mapping(address => uint256)",
        "numberOfBytes": "32",
        "value": "t_uint256"
      },
      "t_mapping(t_uint256,t_address)": {
        "encoding": "mapping",
        "key": "t_uint256",
        "label": "mapping(uint256 => address)",
        "numberOfBytes": "32",
        "value": "t_address"
      },
      "t_string_storage": {
        "encoding": "bytes",
        "label": "string",
        "numberOfBytes": "32"
      },
      "t_uint256": {
        "encoding": "inplace",
        "label": "uint256",
        "numberOfBytes": "32"
      }
    }
  }
}