{
  "address": "0xEf7a8fF7FC585FA1Fe3062455B628bfC657e2cD5",
  "abi": [
    {
      "inputs": [
        {
          "internalType": "address",
          "name": "_implementation",
          "type": "address"
        }
      ],
      "stateMutability": "nonpayable",
      "type": "constructor"
    },
    {
      "anonymous": false,
      "inputs": [
        {
          "indexed": false,
          "internalType": "uint256",
          "name": "editionId",
          "type": "uint256"
        },
        {
          "indexed": false,
          "internalType": "address",
          "name": "creator",
          "type": "address"
        },
        {
          "indexed": false,
          "internalType": "uint256",
          "name": "editionSize",
          "type": "uint256"
        }
      ],
      "name": "CreatedEdition",
      "type": "event"
    },
    {
      "inputs": [
        {
          "internalType": "string",
          "name": "_name",
          "type": "string"
        },
        {
          "internalType": "string",
          "name": "_symbol",
          "type": "string"
        },
        {
          "internalType": "string",
          "name": "_description",
          "type": "string"
        },
        {
          "internalType": "string",
          "name": "_animationUrl",
          "type": "string"
        },
        {
          "internalType": "bytes32",
          "name": "_animationHash",
          "type": "bytes32"
        },
        {
          "internalType": "string",
          "name": "_imageUrl",
          "type": "string"
        },
        {
          "internalType": "bytes32",
          "name": "_imageHash",
          "type": "bytes32"
        },
        {
          "internalType": "uint256",
          "name": "_editionSize",
          "type": "uint256"
        },
        {
          "internalType": "uint256",
          "name": "_royaltyBPS",
          "type": "uint256"
        }
      ],
      "name": "createEdition",
      "outputs": [
        {
          "internalType": "uint256",
          "name": "",
          "type": "uint256"
        }
      ],
      "stateMutability": "nonpayable",
      "type": "function"
    },
    {
      "inputs": [
        {
          "internalType": "uint256",
          "name": "editionId",
          "type": "uint256"
        }
      ],
      "name": "getEditionAtId",
      "outputs": [
        {
          "internalType": "contract SingleEditionMintable",
          "name": "",
          "type": "address"
        }
      ],
      "stateMutability": "view",
      "type": "function"
    },
    {
      "inputs": [],
      "name": "implementation",
      "outputs": [
        {
          "internalType": "address",
          "name": "",
          "type": "address"
        }
      ],
      "stateMutability": "view",
      "type": "function"
    }
  ],
  "transactionHash": "0x8826541d4d661419c352f2b30b462d162209fb43ccfcd700e9e6a9932e16d01e",
  "args": [
    "0x75e269df7d9e3964ae59e4b129e8a4fe1e3455e7"
  ],
  "solcInputHash": "e4d5524d1114b7d7461a732ccc39faf4",
  "bytecode": "0x608060405234801561001057600080fd5b5060405161069538038061069583398101604081905261002f91610054565b600180546001600160a01b0319166001600160a01b0392909216919091179055610084565b60006020828403121561006657600080fd5b81516001600160a01b038116811461007d57600080fd5b9392505050565b610602806100936000396000f3fe608060405234801561001057600080fd5b50600436106100415760003560e01c806310c3009e146100465780635c60da1b1461006c578063ac52edfd14610097575b600080fd5b610059610054366004610390565b6100aa565b6040519081526020015b60405180910390f35b60015461007f906001600160a01b031681565b6040516001600160a01b039091168152602001610063565b61007f6100a5366004610489565b6101c6565b6000806100b660005490565b60015460408051602081018490529293506000926100f6926001600160a01b031691016040516020818303038152906040526100f19061058f565b610265565b9050806001600160a01b03166325f0ea90338e8e8e8e8e8e8e8e8e6040518b63ffffffff1660e01b81526004016101369a999897969594939291906104ef565b600060405180830381600087803b15801561015057600080fd5b505af1158015610164573d6000803e3d6000fd5b5050604080518581523360208201529081018890527f18b9d803d339b3b167d1233c7e9fa1c4fdd1688c0b5eb23790ad9ca4ab29376c9250606001905060405180910390a16101b7600080546001019055565b509a9950505050505050505050565b600154604080516020810184905260009261025f926001600160a01b0390911691016040516020818303038152906040526102009061058f565b30604051733d602d80600a3d3981f3363d3d373d3d3d363d7360601b8152606093841b60148201526f5af43d82803e903d91602b57fd5bf3ff60801b6028820152921b6038830152604c8201526037808220606c830152605591012090565b92915050565b6000604051733d602d80600a3d3981f3363d3d373d3d3d363d7360601b81528360601b60148201526e5af43d82803e903d91602b57fd5bf360881b6028820152826037826000f59150506001600160a01b03811661025f5760405162461bcd60e51b8152602060048201526017602482015276115490cc4c4d8dce8818dc99585d194c8819985a5b1959604a1b604482015260640160405180910390fd5b600082601f83011261031457600080fd5b813567ffffffffffffffff8082111561032f5761032f6105b6565b604051601f8301601f19908116603f01168101908282118183101715610357576103576105b6565b8160405283815286602085880101111561037057600080fd5b836020870160208301376000602085830101528094505050505092915050565b60008060008060008060008060006101208a8c0312156103af57600080fd5b893567ffffffffffffffff808211156103c757600080fd5b6103d38d838e01610303565b9a5060208c01359150808211156103e957600080fd5b6103f58d838e01610303565b995060408c013591508082111561040b57600080fd5b6104178d838e01610303565b985060608c013591508082111561042d57600080fd5b6104398d838e01610303565b975060808c0135965060a08c013591508082111561045657600080fd5b506104638c828d01610303565b94505060c08a0135925060e08a013591506101008a013590509295985092959850929598565b60006020828403121561049b57600080fd5b5035919050565b6000815180845260005b818110156104c8576020818501810151868301820152016104ac565b818111156104da576000602083870101525b50601f01601f19169290920160200192915050565b6001600160a01b038b168152610140602082018190526000906105148382018d6104a2565b90508281036040840152610528818c6104a2565b9050828103606084015261053c818b6104a2565b90508281036080840152610550818a6104a2565b90508760a084015282810360c084015261056a81886104a2565b60e0840196909652505061010081019290925261012090910152979650505050505050565b805160208083015191908110156105b0576000198160200360031b1b821691505b50919050565b634e487b7160e01b600052604160045260246000fdfea26469706673582212206e8dbed5bcead7b96b8dd8a4771d29f0c0c5b09d68d523cf24f0a1707f9abf5f64736f6c63430008060033",
  "devdoc": {
    "events": {
      "CreatedEdition(uint256,address,uint256)": {
        "params": {
          "editionId": "ID of newly created edition"
        }
      }
    },
    "kind": "dev",
    "methods": {
      "constructor": {
        "params": {
          "_implementation": "SingleEditionMintable logic implementation contract to clone"
        }
      },
      "createEdition(string,string,string,string,bytes32,string,bytes32,uint256,uint256)": {
        "params": {
          "_animationHash": "Metadata: SHA-256 Hash of the animation (if no animation url, can be 0x0)",
          "_animationUrl": "Metadata: Animation url (optional) of the edition entry",
          "_description": "Metadata: Description of the edition entry",
          "_editionSize": "Total size of the edition (number of possible editions)",
          "_imageHash": "Metadata: SHA-256 hash of the Image of the edition entry (if not image, can be 0x0)",
          "_imageUrl": "Metadata: Image url (semi-required) of the edition entry",
          "_name": "Name of the edition contract",
          "_royaltyBPS": "BPS amount of royalty",
          "_symbol": "Symbol of the edition contract"
        }
      },
      "getEditionAtId(uint256)": {
        "params": {
          "editionId": "id of edition to get contract for"
        },
        "returns": {
          "_0": "SingleEditionMintable Edition NFT contract"
        }
      }
    },
    "version": 1
  },
  "userdoc": {
    "events": {
      "CreatedEdition(uint256,address,uint256)": {
        "notice": "Emitted when a edition is created reserving the corresponding token IDs."
      }
    },
    "kind": "user",
    "methods": {
      "constructor": {
        "notice": "Initializes factory with address of implementation logic"
      },
      "createEdition(string,string,string,string,bytes32,string,bytes32,uint256,uint256)": {
        "notice": "Creates a new edition contract as a factory with a deterministic address Important: None of these fields (except the Url fields with the same hash) can be changed after calling"
      },
      "getEditionAtId(uint256)": {
        "notice": "Get edition given the created ID"
      },
      "implementation()": {
        "notice": "Address for implementation of SingleEditionMintable to clone"
      }
    },
    "version": 1
  },
  "storageLayout": {
    "storage": [
      {
        "astId": 2793,
        "contract": "contracts/SingleEditionMintableCreator.sol:SingleEditionMintableCreator",
        "label": "atContract",
        "offset": 0,
        "slot": "0",
        "type": "t_struct(Counter)1574_storage"
      },
      {
        "astId": 2796,
        "contract": "contracts/SingleEditionMintableCreator.sol:SingleEditionMintableCreator",
        "label": "implementation",
        "offset": 0,
        "slot": "1",
        "type": "t_address"
      }
    ],
    "types": {
      "t_address": {
        "encoding": "inplace",
        "label": "address",
        "numberOfBytes": "20"
      },
      "t_struct(Counter)1574_storage": {
        "encoding": "inplace",
        "label": "struct CountersUpgradeable.Counter",
        "members": [
          {
            "astId": 1573,
            "contract": "contracts/SingleEditionMintableCreator.sol:SingleEditionMintableCreator",
            "label": "_value",
            "offset": 0,
            "slot": "0",
            "type": "t_uint256"
          }
        ],
        "numberOfBytes": "32"
      },
      "t_uint256": {
        "encoding": "inplace",
        "label": "uint256",
        "numberOfBytes": "32"
      }
    }
  }
}