{
  "abi": [
    {
      "inputs": [
        {
          "internalType": "contract IZoraFeeManager",
          "name": "_zoraFeeManager",
          "type": "address"
        },
        {
          "internalType": "address",
          "name": "_zoraERC721TransferHelper",
          "type": "address"
        }
      ],
      "stateMutability": "nonpayable",
      "type": "constructor"
    },
    {
      "inputs": [],
      "name": "ApprovalCallerNotOwnerNorApproved",
      "type": "error"
    },
    {
      "inputs": [],
      "name": "ApprovalQueryForNonexistentToken",
      "type": "error"
    },
    {
      "inputs": [],
      "name": "ApprovalToCurrentOwner",
      "type": "error"
    },
    {
      "inputs": [],
      "name": "ApproveToCaller",
      "type": "error"
    },
    {
      "inputs": [],
      "name": "BalanceQueryForZeroAddress",
      "type": "error"
    },
    {
      "inputs": [],
      "name": "MintToZeroAddress",
      "type": "error"
    },
    {
      "inputs": [],
      "name": "MintZeroQuantity",
      "type": "error"
    },
    {
      "inputs": [],
      "name": "OwnerQueryForNonexistentToken",
      "type": "error"
    },
    {
      "inputs": [],
      "name": "TransferCallerNotOwnerNorApproved",
      "type": "error"
    },
    {
      "inputs": [],
      "name": "TransferFromIncorrectOwner",
      "type": "error"
    },
    {
      "inputs": [],
      "name": "TransferToNonERC721ReceiverImplementer",
      "type": "error"
    },
    {
      "inputs": [],
      "name": "TransferToZeroAddress",
      "type": "error"
    },
    {
      "anonymous": false,
      "inputs": [
        {
          "indexed": true,
          "internalType": "address",
          "name": "owner",
          "type": "address"
        },
        {
          "indexed": true,
          "internalType": "address",
          "name": "approved",
          "type": "address"
        },
        {
          "indexed": true,
          "internalType": "uint256",
          "name": "tokenId",
          "type": "uint256"
        }
      ],
      "name": "Approval",
      "type": "event"
    },
    {
      "anonymous": false,
      "inputs": [
        {
          "indexed": true,
          "internalType": "address",
          "name": "owner",
          "type": "address"
        },
        {
          "indexed": true,
          "internalType": "address",
          "name": "operator",
          "type": "address"
        },
        {
          "indexed": false,
          "internalType": "bool",
          "name": "approved",
          "type": "bool"
        }
      ],
      "name": "ApprovalForAll",
      "type": "event"
    },
    {
      "anonymous": false,
      "inputs": [
        {
          "indexed": true,
          "internalType": "address",
          "name": "newAddress",
          "type": "address"
        },
        {
          "indexed": true,
          "internalType": "address",
          "name": "changedBy",
          "type": "address"
        }
      ],
      "name": "FundsRecipientChanged",
      "type": "event"
    },
    {
      "anonymous": false,
      "inputs": [
        {
          "indexed": true,
          "internalType": "address",
          "name": "sender",
          "type": "address"
        },
        {
          "indexed": false,
          "internalType": "uint256",
          "name": "numberOfMints",
          "type": "uint256"
        }
      ],
      "name": "OpenMintFinalized",
      "type": "event"
    },
    {
      "anonymous": false,
      "inputs": [
        {
          "indexed": true,
          "internalType": "address",
          "name": "previousOwner",
          "type": "address"
        },
        {
          "indexed": true,
          "internalType": "address",
          "name": "newOwner",
          "type": "address"
        }
      ],
      "name": "OwnershipTransferred",
      "type": "event"
    },
    {
      "anonymous": false,
      "inputs": [
        {
          "indexed": true,
          "internalType": "bytes32",
          "name": "role",
          "type": "bytes32"
        },
        {
          "indexed": true,
          "internalType": "bytes32",
          "name": "previousAdminRole",
          "type": "bytes32"
        },
        {
          "indexed": true,
          "internalType": "bytes32",
          "name": "newAdminRole",
          "type": "bytes32"
        }
      ],
      "name": "RoleAdminChanged",
      "type": "event"
    },
    {
      "anonymous": false,
      "inputs": [
        {
          "indexed": true,
          "internalType": "bytes32",
          "name": "role",
          "type": "bytes32"
        },
        {
          "indexed": true,
          "internalType": "address",
          "name": "account",
          "type": "address"
        },
        {
          "indexed": true,
          "internalType": "address",
          "name": "sender",
          "type": "address"
        }
      ],
      "name": "RoleGranted",
      "type": "event"
    },
    {
      "anonymous": false,
      "inputs": [
        {
          "indexed": true,
          "internalType": "bytes32",
          "name": "role",
          "type": "bytes32"
        },
        {
          "indexed": true,
          "internalType": "address",
          "name": "account",
          "type": "address"
        },
        {
          "indexed": true,
          "internalType": "address",
          "name": "sender",
          "type": "address"
        }
      ],
      "name": "RoleRevoked",
      "type": "event"
    },
    {
      "anonymous": false,
      "inputs": [
        {
          "indexed": true,
          "internalType": "address",
          "name": "to",
          "type": "address"
        },
        {
          "indexed": true,
          "internalType": "uint256",
          "name": "quantity",
          "type": "uint256"
        },
        {
          "indexed": true,
          "internalType": "uint256",
          "name": "pricePerToken",
          "type": "uint256"
        },
        {
          "indexed": false,
          "internalType": "uint256",
          "name": "firstPurchasedTokenId",
          "type": "uint256"
        }
      ],
      "name": "Sale",
      "type": "event"
    },
    {
      "anonymous": false,
      "inputs": [
        {
          "indexed": true,
          "internalType": "address",
          "name": "changedBy",
          "type": "address"
        },
        {
          "components": [
            {
              "internalType": "uint104",
              "name": "publicSalePrice",
              "type": "uint104"
            },
            {
              "internalType": "uint32",
              "name": "maxSalePurchasePerAddress",
              "type": "uint32"
            },
            {
              "internalType": "uint64",
              "name": "publicSaleStart",
              "type": "uint64"
            },
            {
              "internalType": "uint64",
              "name": "publicSaleEnd",
              "type": "uint64"
            },
            {
              "internalType": "uint64",
              "name": "presaleStart",
              "type": "uint64"
            },
            {
              "internalType": "uint64",
              "name": "presaleEnd",
              "type": "uint64"
            },
            {
              "internalType": "bytes32",
              "name": "presaleMerkleRoot",
              "type": "bytes32"
            }
          ],
          "indexed": false,
          "internalType": "struct ERC721Drop.SalesConfiguration",
          "name": "salesConfig",
          "type": "tuple"
        }
      ],
      "name": "SalesConfigChanged",
      "type": "event"
    },
    {
      "anonymous": false,
      "inputs": [
        {
          "indexed": true,
          "internalType": "address",
          "name": "from",
          "type": "address"
        },
        {
          "indexed": true,
          "internalType": "address",
          "name": "to",
          "type": "address"
        },
        {
          "indexed": true,
          "internalType": "uint256",
          "name": "tokenId",
          "type": "uint256"
        }
      ],
      "name": "Transfer",
      "type": "event"
    },
    {
      "inputs": [],
      "name": "DEFAULT_ADMIN_ROLE",
      "outputs": [
        {
          "internalType": "bytes32",
          "name": "",
          "type": "bytes32"
        }
      ],
      "stateMutability": "view",
      "type": "function"
    },
    {
      "inputs": [],
      "name": "MINTER_ROLE",
      "outputs": [
        {
          "internalType": "bytes32",
          "name": "",
          "type": "bytes32"
        }
      ],
      "stateMutability": "view",
      "type": "function"
    },
    {
      "inputs": [],
      "name": "SALES_MANAGER_ROLE",
      "outputs": [
        {
          "internalType": "bytes32",
          "name": "",
          "type": "bytes32"
        }
      ],
      "stateMutability": "view",
      "type": "function"
    },
    {
      "inputs": [
        {
          "internalType": "address",
          "name": "recipient",
          "type": "address"
        },
        {
          "internalType": "uint256",
          "name": "quantity",
          "type": "uint256"
        }
      ],
      "name": "adminMint",
      "outputs": [
        {
          "internalType": "uint256",
          "name": "",
          "type": "uint256"
        }
      ],
      "stateMutability": "nonpayable",
      "type": "function"
    },
    {
      "inputs": [
        {
          "internalType": "address[]",
          "name": "recipients",
          "type": "address[]"
        }
      ],
      "name": "adminMintAirdrop",
      "outputs": [
        {
          "internalType": "uint256",
          "name": "",
          "type": "uint256"
        }
      ],
      "stateMutability": "nonpayable",
      "type": "function"
    },
    {
      "inputs": [
        {
          "internalType": "address",
          "name": "to",
          "type": "address"
        },
        {
          "internalType": "uint256",
          "name": "tokenId",
          "type": "uint256"
        }
      ],
      "name": "approve",
      "outputs": [],
      "stateMutability": "nonpayable",
      "type": "function"
    },
    {
      "inputs": [
        {
          "internalType": "address",
          "name": "owner",
          "type": "address"
        }
      ],
      "name": "balanceOf",
      "outputs": [
        {
          "internalType": "uint256",
          "name": "",
          "type": "uint256"
        }
      ],
      "stateMutability": "view",
      "type": "function"
    },
    {
      "inputs": [
        {
          "internalType": "uint256",
          "name": "tokenId",
          "type": "uint256"
        }
      ],
      "name": "burn",
      "outputs": [],
      "stateMutability": "nonpayable",
      "type": "function"
    },
    {
      "inputs": [],
      "name": "config",
      "outputs": [
        {
          "internalType": "contract IMetadataRenderer",
          "name": "metadataRenderer",
          "type": "address"
        },
        {
          "internalType": "uint64",
          "name": "editionSize",
          "type": "uint64"
        },
        {
          "internalType": "uint16",
          "name": "royaltyBPS",
          "type": "uint16"
        },
        {
          "internalType": "address payable",
          "name": "fundsRecipient",
          "type": "address"
        }
      ],
      "stateMutability": "view",
      "type": "function"
    },
    {
      "inputs": [],
      "name": "contractURI",
      "outputs": [
        {
          "internalType": "string",
          "name": "",
          "type": "string"
        }
      ],
      "stateMutability": "view",
      "type": "function"
    },
    {
      "inputs": [],
      "name": "contractVersion",
      "outputs": [
        {
          "internalType": "uint256",
          "name": "",
          "type": "uint256"
        }
      ],
      "stateMutability": "pure",
      "type": "function"
    },
    {
      "inputs": [],
      "name": "finalizeOpenEdition",
      "outputs": [],
      "stateMutability": "nonpayable",
      "type": "function"
    },
    {
      "inputs": [
        {
          "internalType": "uint256",
          "name": "tokenId",
          "type": "uint256"
        }
      ],
      "name": "getApproved",
      "outputs": [
        {
          "internalType": "address",
          "name": "",
          "type": "address"
        }
      ],
      "stateMutability": "view",
      "type": "function"
    },
    {
      "inputs": [
        {
          "internalType": "bytes32",
          "name": "role",
          "type": "bytes32"
        }
      ],
      "name": "getRoleAdmin",
      "outputs": [
        {
          "internalType": "bytes32",
          "name": "",
          "type": "bytes32"
        }
      ],
      "stateMutability": "view",
      "type": "function"
    },
    {
      "inputs": [
        {
          "internalType": "bytes32",
          "name": "role",
          "type": "bytes32"
        },
        {
          "internalType": "address",
          "name": "account",
          "type": "address"
        }
      ],
      "name": "grantRole",
      "outputs": [],
      "stateMutability": "nonpayable",
      "type": "function"
    },
    {
      "inputs": [
        {
          "internalType": "bytes32",
          "name": "role",
          "type": "bytes32"
        },
        {
          "internalType": "address",
          "name": "account",
          "type": "address"
        }
      ],
      "name": "hasRole",
      "outputs": [
        {
          "internalType": "bool",
          "name": "",
          "type": "bool"
        }
      ],
      "stateMutability": "view",
      "type": "function"
    },
    {
      "inputs": [
        {
          "internalType": "string",
          "name": "_contractName",
          "type": "string"
        },
        {
          "internalType": "string",
          "name": "_contractSymbol",
          "type": "string"
        },
        {
          "internalType": "address",
          "name": "_initialOwner",
          "type": "address"
        },
        {
          "internalType": "address payable",
          "name": "_fundsRecipient",
          "type": "address"
        },
        {
          "internalType": "uint64",
          "name": "_editionSize",
          "type": "uint64"
        },
        {
          "internalType": "uint16",
          "name": "_royaltyBPS",
          "type": "uint16"
        },
        {
          "internalType": "contract IMetadataRenderer",
          "name": "_metadataRenderer",
          "type": "address"
        },
        {
          "internalType": "bytes",
          "name": "_metadataRendererInit",
          "type": "bytes"
        }
      ],
      "name": "initialize",
      "outputs": [],
      "stateMutability": "nonpayable",
      "type": "function"
    },
    {
      "inputs": [
        {
          "internalType": "address",
          "name": "user",
          "type": "address"
        }
      ],
      "name": "isAdmin",
      "outputs": [
        {
          "internalType": "bool",
          "name": "",
          "type": "bool"
        }
      ],
      "stateMutability": "view",
      "type": "function"
    },
    {
      "inputs": [
        {
          "internalType": "address",
          "name": "nftOwner",
          "type": "address"
        },
        {
          "internalType": "address",
          "name": "operator",
          "type": "address"
        }
      ],
      "name": "isApprovedForAll",
      "outputs": [
        {
          "internalType": "bool",
          "name": "",
          "type": "bool"
        }
      ],
      "stateMutability": "view",
      "type": "function"
    },
    {
      "inputs": [],
      "name": "metadataRenderer",
      "outputs": [
        {
          "internalType": "contract IMetadataRenderer",
          "name": "",
          "type": "address"
        }
      ],
      "stateMutability": "view",
      "type": "function"
    },
    {
      "inputs": [
        {
          "internalType": "address",
          "name": "minter",
          "type": "address"
        }
      ],
      "name": "mintedPerAddress",
      "outputs": [
        {
          "components": [
            {
              "internalType": "uint256",
              "name": "totalMints",
              "type": "uint256"
            },
            {
              "internalType": "uint256",
              "name": "presaleMints",
              "type": "uint256"
            },
            {
              "internalType": "uint256",
              "name": "publicMints",
              "type": "uint256"
            }
          ],
          "internalType": "struct IZoraDrop.AddressMintDetails",
          "name": "",
          "type": "tuple"
        }
      ],
      "stateMutability": "view",
      "type": "function"
    },
    {
      "inputs": [],
      "name": "name",
      "outputs": [
        {
          "internalType": "string",
          "name": "",
          "type": "string"
        }
      ],
      "stateMutability": "view",
      "type": "function"
    },
    {
      "inputs": [],
      "name": "owner",
      "outputs": [
        {
          "internalType": "address",
          "name": "",
          "type": "address"
        }
      ],
      "stateMutability": "view",
      "type": "function"
    },
    {
      "inputs": [
        {
          "internalType": "uint256",
          "name": "tokenId",
          "type": "uint256"
        }
      ],
      "name": "ownerOf",
      "outputs": [
        {
          "internalType": "address",
          "name": "",
          "type": "address"
        }
      ],
      "stateMutability": "view",
      "type": "function"
    },
    {
      "inputs": [
        {
          "internalType": "address",
          "name": "",
          "type": "address"
        }
      ],
      "name": "presaleMintsByAddress",
      "outputs": [
        {
          "internalType": "uint256",
          "name": "",
          "type": "uint256"
        }
      ],
      "stateMutability": "view",
      "type": "function"
    },
    {
      "inputs": [
        {
          "internalType": "uint256",
          "name": "quantity",
          "type": "uint256"
        }
      ],
      "name": "purchase",
      "outputs": [
        {
          "internalType": "uint256",
          "name": "",
          "type": "uint256"
        }
      ],
      "stateMutability": "payable",
      "type": "function"
    },
    {
      "inputs": [
        {
          "internalType": "uint256",
          "name": "quantity",
          "type": "uint256"
        },
        {
          "internalType": "uint256",
          "name": "maxQuantity",
          "type": "uint256"
        },
        {
          "internalType": "uint256",
          "name": "pricePerToken",
          "type": "uint256"
        },
        {
          "internalType": "bytes32[]",
          "name": "merkleProof",
          "type": "bytes32[]"
        }
      ],
      "name": "purchasePresale",
      "outputs": [
        {
          "internalType": "uint256",
          "name": "",
          "type": "uint256"
        }
      ],
      "stateMutability": "payable",
      "type": "function"
    },
    {
      "inputs": [
        {
          "internalType": "bytes32",
          "name": "role",
          "type": "bytes32"
        },
        {
          "internalType": "address",
          "name": "account",
          "type": "address"
        }
      ],
      "name": "renounceRole",
      "outputs": [],
      "stateMutability": "nonpayable",
      "type": "function"
    },
    {
      "inputs": [
        {
          "internalType": "bytes32",
          "name": "role",
          "type": "bytes32"
        },
        {
          "internalType": "address",
          "name": "account",
          "type": "address"
        }
      ],
      "name": "revokeRole",
      "outputs": [],
      "stateMutability": "nonpayable",
      "type": "function"
    },
    {
      "inputs": [
        {
          "internalType": "uint256",
          "name": "",
          "type": "uint256"
        },
        {
          "internalType": "uint256",
          "name": "_salePrice",
          "type": "uint256"
        }
      ],
      "name": "royaltyInfo",
      "outputs": [
        {
          "internalType": "address",
          "name": "receiver",
          "type": "address"
        },
        {
          "internalType": "uint256",
          "name": "royaltyAmount",
          "type": "uint256"
        }
      ],
      "stateMutability": "view",
      "type": "function"
    },
    {
      "inputs": [
        {
          "internalType": "address",
          "name": "from",
          "type": "address"
        },
        {
          "internalType": "address",
          "name": "to",
          "type": "address"
        },
        {
          "internalType": "uint256",
          "name": "tokenId",
          "type": "uint256"
        }
      ],
      "name": "safeTransferFrom",
      "outputs": [],
      "stateMutability": "nonpayable",
      "type": "function"
    },
    {
      "inputs": [
        {
          "internalType": "address",
          "name": "from",
          "type": "address"
        },
        {
          "internalType": "address",
          "name": "to",
          "type": "address"
        },
        {
          "internalType": "uint256",
          "name": "tokenId",
          "type": "uint256"
        },
        {
          "internalType": "bytes",
          "name": "_data",
          "type": "bytes"
        }
      ],
      "name": "safeTransferFrom",
      "outputs": [],
      "stateMutability": "nonpayable",
      "type": "function"
    },
    {
      "inputs": [],
      "name": "saleDetails",
      "outputs": [
        {
          "components": [
            {
              "internalType": "bool",
              "name": "presaleActive",
              "type": "bool"
            },
            {
              "internalType": "bool",
              "name": "publicSaleActive",
              "type": "bool"
            },
            {
              "internalType": "uint64",
              "name": "publicSaleStart",
              "type": "uint64"
            },
            {
              "internalType": "uint64",
              "name": "publicSaleEnd",
              "type": "uint64"
            },
            {
              "internalType": "uint256",
              "name": "publicSalePrice",
              "type": "uint256"
            },
            {
              "internalType": "uint64",
              "name": "presaleStart",
              "type": "uint64"
            },
            {
              "internalType": "uint64",
              "name": "presaleEnd",
              "type": "uint64"
            },
            {
              "internalType": "bytes32",
              "name": "presaleMerkleRoot",
              "type": "bytes32"
            },
            {
              "internalType": "uint256",
              "name": "maxSalePurchasePerAddress",
              "type": "uint256"
            },
            {
              "internalType": "uint256",
              "name": "totalMinted",
              "type": "uint256"
            },
            {
              "internalType": "uint256",
              "name": "maxSupply",
              "type": "uint256"
            }
          ],
          "internalType": "struct IZoraDrop.SaleDetails",
          "name": "",
          "type": "tuple"
        }
      ],
      "stateMutability": "view",
      "type": "function"
    },
    {
      "inputs": [],
      "name": "salesConfig",
      "outputs": [
        {
          "internalType": "uint104",
          "name": "publicSalePrice",
          "type": "uint104"
        },
        {
          "internalType": "uint32",
          "name": "maxSalePurchasePerAddress",
          "type": "uint32"
        },
        {
          "internalType": "uint64",
          "name": "publicSaleStart",
          "type": "uint64"
        },
        {
          "internalType": "uint64",
          "name": "publicSaleEnd",
          "type": "uint64"
        },
        {
          "internalType": "uint64",
          "name": "presaleStart",
          "type": "uint64"
        },
        {
          "internalType": "uint64",
          "name": "presaleEnd",
          "type": "uint64"
        },
        {
          "internalType": "bytes32",
          "name": "presaleMerkleRoot",
          "type": "bytes32"
        }
      ],
      "stateMutability": "view",
      "type": "function"
    },
    {
      "inputs": [
        {
          "internalType": "address",
          "name": "operator",
          "type": "address"
        },
        {
          "internalType": "bool",
          "name": "approved",
          "type": "bool"
        }
      ],
      "name": "setApprovalForAll",
      "outputs": [],
      "stateMutability": "nonpayable",
      "type": "function"
    },
    {
      "inputs": [
        {
          "components": [
            {
              "internalType": "uint104",
              "name": "publicSalePrice",
              "type": "uint104"
            },
            {
              "internalType": "uint32",
              "name": "maxSalePurchasePerAddress",
              "type": "uint32"
            },
            {
              "internalType": "uint64",
              "name": "publicSaleStart",
              "type": "uint64"
            },
            {
              "internalType": "uint64",
              "name": "publicSaleEnd",
              "type": "uint64"
            },
            {
              "internalType": "uint64",
              "name": "presaleStart",
              "type": "uint64"
            },
            {
              "internalType": "uint64",
              "name": "presaleEnd",
              "type": "uint64"
            },
            {
              "internalType": "bytes32",
              "name": "presaleMerkleRoot",
              "type": "bytes32"
            }
          ],
          "internalType": "struct ERC721Drop.SalesConfiguration",
          "name": "newConfig",
          "type": "tuple"
        }
      ],
      "name": "setDropSaleConfiguration",
      "outputs": [],
      "stateMutability": "nonpayable",
      "type": "function"
    },
    {
      "inputs": [
        {
          "internalType": "address payable",
          "name": "newRecipientAddress",
          "type": "address"
        }
      ],
      "name": "setFundsRecipient",
      "outputs": [],
      "stateMutability": "nonpayable",
      "type": "function"
    },
    {
      "inputs": [
        {
          "internalType": "address",
          "name": "newOwner",
          "type": "address"
        }
      ],
      "name": "setOwner",
      "outputs": [],
      "stateMutability": "nonpayable",
      "type": "function"
    },
    {
      "inputs": [
        {
          "internalType": "bytes4",
          "name": "interfaceId",
          "type": "bytes4"
        }
      ],
      "name": "supportsInterface",
      "outputs": [
        {
          "internalType": "bool",
          "name": "",
          "type": "bool"
        }
      ],
      "stateMutability": "view",
      "type": "function"
    },
    {
      "inputs": [],
      "name": "symbol",
      "outputs": [
        {
          "internalType": "string",
          "name": "",
          "type": "string"
        }
      ],
      "stateMutability": "view",
      "type": "function"
    },
    {
      "inputs": [
        {
          "internalType": "uint256",
          "name": "tokenId",
          "type": "uint256"
        }
      ],
      "name": "tokenURI",
      "outputs": [
        {
          "internalType": "string",
          "name": "",
          "type": "string"
        }
      ],
      "stateMutability": "view",
      "type": "function"
    },
    {
      "inputs": [],
      "name": "totalSupply",
      "outputs": [
        {
          "internalType": "uint256",
          "name": "",
          "type": "uint256"
        }
      ],
      "stateMutability": "view",
      "type": "function"
    },
    {
      "inputs": [
        {
          "internalType": "address",
          "name": "from",
          "type": "address"
        },
        {
          "internalType": "address",
          "name": "to",
          "type": "address"
        },
        {
          "internalType": "uint256",
          "name": "tokenId",
          "type": "uint256"
        }
      ],
      "name": "transferFrom",
      "outputs": [],
      "stateMutability": "nonpayable",
      "type": "function"
    },
    {
      "inputs": [],
      "name": "withdraw",
      "outputs": [],
      "stateMutability": "nonpayable",
      "type": "function"
    },
    {
      "inputs": [
        {
          "internalType": "uint256",
          "name": "amount",
          "type": "uint256"
        }
      ],
      "name": "zoraFeeForAmount",
      "outputs": [
        {
          "internalType": "address payable",
          "name": "",
          "type": "address"
        },
        {
          "internalType": "uint256",
          "name": "",
          "type": "uint256"
        }
      ],
      "stateMutability": "nonpayable",
      "type": "function"
    },
    {
      "inputs": [],
      "name": "zoraFeeManager",
      "outputs": [
        {
          "internalType": "contract IZoraFeeManager",
          "name": "",
          "type": "address"
        }
      ],
      "stateMutability": "view",
      "type": "function"
    }
  ],
  "bytecode": {
    "object": "0x6101006040527ff0887ba65ee2024ea881d91b74c2450ef19e1557f03bed3ea9f16b037cbe2dc96080527f5ebbf78043a2215b522b1366a193ec74dd1f54e441e841a87b9653246a9c49a660a0523480156200005a57600080fd5b5060405162004520380380620045208339810160408190526200007d91620000ae565b6001600160a01b0391821660e0521660c052620000ed565b6001600160a01b0381168114620000ab57600080fd5b50565b60008060408385031215620000c257600080fd5b8251620000cf8162000095565b6020840151909250620000e28162000095565b809150509250929050565b60805160a05160c05160e0516143cf6200015160003960008181610847015261237c0152600061204101526000818161097101528181610ce7015281816114b5015261161901526000818161091d015281816119b90152611cc101526143cf6000f3fe6080604052600436106102fd5760003560e01c806370a082311161018f578063c87b56dd116100e1578063e8a3d4851161008a578063ed55a76d11610064578063ed55a76d14610a08578063ee37be3914610a28578063efef39a114610a4857600080fd5b8063e8a3d485146109b3578063e8f5d786146109c8578063e985e9c5146109e857600080fd5b8063d547741f116100bb578063d547741f1461093f578063e26bd3431461095f578063e58306f91461099357600080fd5b8063c87b56dd146108a9578063d445b978146108c9578063d53913931461090b57600080fd5b8063a0a8e46011610143578063b6eb9c861161011d578063b6eb9c8614610835578063b88d4fde14610869578063b8ae5a2c1461088957600080fd5b8063a0a8e460146107ec578063a217fddf14610800578063a22cb4651461081557600080fd5b80638da5cb5b116101745780638da5cb5b1461077c57806391d148541461079157806395d89b41146107d757600080fd5b806370a08231146106d757806379502c55146106f757600080fd5b806325024a2b1161025357806341e96eb1116101fc57806361fea768116101d657806361fea7681461066b5780636352211e1461069957806370319970146106b957600080fd5b806341e96eb11461061657806342842e0e1461062b57806342966c681461064b57600080fd5b80633474a4a61161022d5780633474a4a6146105bf57806336568abe146105e15780633ccfd60b1461060157600080fd5b806325024a2b1461054d5780632a55205a146105605780632f2ff15d1461059f57600080fd5b806313af4035116102b557806323b872dd1161028f57806323b872dd146104dd578063248a9ca3146104fd57806324d7806c1461052d57600080fd5b806313af4035146103d357806318160ddd146103f35780631d2c0b381461041a57600080fd5b8063081812fc116102e6578063081812fc14610359578063095ea7b31461039157806310a7eb5d146103b357600080fd5b806301ffc9a71461030257806306fdde0314610337575b600080fd5b34801561030e57600080fd5b5061032261031d3660046139cb565b610a5b565b60405190151581526020015b60405180910390f35b34801561034357600080fd5b5061034c610b08565b60405161032e9190613a40565b34801561036557600080fd5b50610379610374366004613a53565b610b9a565b6040516001600160a01b03909116815260200161032e565b34801561039d57600080fd5b506103b16103ac366004613a91565b610bf7565b005b3480156103bf57600080fd5b506103b16103ce366004613abd565b610cb6565b3480156103df57600080fd5b506103b16103ee366004613abd565b610de5565b3480156103ff57600080fd5b5060665460655403600019015b60405190815260200161032e565b34801561042657600080fd5b5060fe5460ff5461010054610484926cffffffffffffffffffffffffff811692600160681b820463ffffffff1692600160881b90920467ffffffffffffffff9081169281831692600160401b8104831692600160801b909104169087565b604080516cffffffffffffffffffffffffff909816885263ffffffff909616602088015267ffffffffffffffff948516958701959095529183166060860152821660808501521660a083015260c082015260e00161032e565b3480156104e957600080fd5b506103b16104f8366004613ada565b610e6f565b34801561050957600080fd5b5061040c610518366004613a53565b600090815260c9602052604090206001015490565b34801561053957600080fd5b50610322610548366004613abd565b610e7a565b61040c61055b366004613b60565b610eba565b34801561056c57600080fd5b5061058061057b366004613bc1565b6111ca565b604080516001600160a01b03909316835260208301919091520161032e565b3480156105ab57600080fd5b506103b16105ba366004613be3565b611235565b3480156105cb57600080fd5b506105d461125a565b60405161032e9190613c13565b3480156105ed57600080fd5b506103b16105fc366004613be3565b61137c565b34801561060d57600080fd5b506103b1611408565b34801561062257600080fd5b506103b16115e8565b34801561063757600080fd5b506103b1610646366004613ada565b6117c1565b34801561065757600080fd5b506103b1610666366004613a53565b6117dc565b34801561067757600080fd5b5061040c610686366004613abd565b6101016020526000908152604090205481565b3480156106a557600080fd5b506103796106b4366004613a53565b6117e7565b3480156106c557600080fd5b5060fc546001600160a01b0316610379565b3480156106e357600080fd5b5061040c6106f2366004613abd565b6117f9565b34801561070357600080fd5b5060fc5460fd5461073c916001600160a01b0380821692600160a01b830467ffffffffffffffff1692600160e01b900461ffff16911684565b604080516001600160a01b03958616815267ffffffffffffffff909416602085015261ffff9092169183019190915291909116606082015260800161032e565b34801561078857600080fd5b50610379611861565b34801561079d57600080fd5b506103226107ac366004613be3565b600091825260c9602090815260408084206001600160a01b0393909316845291905290205460ff1690565b3480156107e357600080fd5b5061034c61187a565b3480156107f857600080fd5b50600361040c565b34801561080c57600080fd5b5061040c600081565b34801561082157600080fd5b506103b1610830366004613cde565b611889565b34801561084157600080fd5b506103797f000000000000000000000000000000000000000000000000000000000000000081565b34801561087557600080fd5b506103b1610884366004613dff565b611937565b34801561089557600080fd5b5061040c6108a4366004613e6b565b611988565b3480156108b557600080fd5b5061034c6108c4366004613a53565b611b28565b3480156108d557600080fd5b506108e96108e4366004613abd565b611bb3565b604080518251815260208084015190820152918101519082015260600161032e565b34801561091757600080fd5b5061040c7f000000000000000000000000000000000000000000000000000000000000000081565b34801561094b57600080fd5b506103b161095a366004613be3565b611c6b565b34801561096b57600080fd5b5061040c7f000000000000000000000000000000000000000000000000000000000000000081565b34801561099f57600080fd5b5061040c6109ae366004613a91565b611c90565b3480156109bf57600080fd5b5061034c611de9565b3480156109d457600080fd5b506103b16109e3366004613ed9565b611e74565b3480156109f457600080fd5b50610322610a03366004613f7b565b61203d565b348015610a1457600080fd5b506103b1610a23366004613fbb565b6120b1565b348015610a3457600080fd5b50610580610a43366004613a53565b61233d565b61040c610a56366004613a53565b612410565b6000610a668261268f565b80610a9a57507f8da5cb5b000000000000000000000000000000000000000000000000000000006001600160e01b03198316145b80610ace57507f2a55205a000000000000000000000000000000000000000000000000000000006001600160e01b03198316145b80610b0257507f5afc1dba000000000000000000000000000000000000000000000000000000006001600160e01b03198316145b92915050565b606060678054610b1790614097565b80601f0160208091040260200160405190810160405280929190818152602001828054610b4390614097565b8015610b905780601f10610b6557610100808354040283529160200191610b90565b820191906000526020600020905b815481529060010190602001808311610b7357829003601f168201915b5050505050905090565b6000610ba5826126cd565b610bdb576040517fcf4700e400000000000000000000000000000000000000000000000000000000815260040160405180910390fd5b506000908152606b60205260409020546001600160a01b031690565b6000610c02826117e7565b9050806001600160a01b0316836001600160a01b031603610c4f576040517f943f7b8c00000000000000000000000000000000000000000000000000000000815260040160405180910390fd5b336001600160a01b03821614801590610c6f5750610c6d813361203d565b155b15610ca6576040517fcfb3b94200000000000000000000000000000000000000000000000000000000815260040160405180910390fd5b610cb1838383612706565b505050565b3360009081527f81fe90a866a48a634a12852c1be675b683a22307409932a7443b8029347be75660205260409020547f00000000000000000000000000000000000000000000000000000000000000009060ff1680610d2e5750600081815260c96020908152604080832033845290915290205460ff165b610d8a5760405162461bcd60e51b815260206004820152602260248201527f446f6573206e6f7420686176652070726f70657220726f6c65206f722061646d60448201526134b760f11b60648201526084015b60405180910390fd5b60fd805473ffffffffffffffffffffffffffffffffffffffff19166001600160a01b0384169081179091556040513391907f70a7ea5c664ab9c21baf3da59bb2f1e1ca33557b08a0031fab4f17076744995190600090a35050565b3360009081527f81fe90a866a48a634a12852c1be675b683a22307409932a7443b8029347be756602052604090205460ff16610e635760405162461bcd60e51b815260206004820152601260248201527f4f6e6c792061646d696e20616c6c6f77656400000000000000000000000000006044820152606401610d81565b610e6c8161276f565b50565b610cb18383836127d8565b6001600160a01b03811660009081527f81fe90a866a48a634a12852c1be675b683a22307409932a7443b8029347be756602052604081205460ff16610b02565b6000600260975403610f0e5760405162461bcd60e51b815260206004820152601f60248201527f5265656e7472616e637947756172643a207265656e7472616e742063616c6c006044820152606401610d81565b600260975560fc548690600160a01b900467ffffffffffffffff16610f366065546000190190565b610f4090836140e7565b111560405180604001604052806008815260200167546f6f206d616e7960c01b81525090610f815760405162461bcd60e51b8152600401610d819190613a40565b50610f8a6129fb565b610fd65760405162461bcd60e51b815260206004820152601060248201527f50726573616c6520696e616374697665000000000000000000000000000000006044820152606401610d81565b6110488484808060200260200160405190810160405280939291908181526020018383602002808284376000920191909152505061010054604080513360208201529081018c9052606081018b9052909250608001905060405160208183030381529060405280519060200120612a38565b6110945760405162461bcd60e51b815260206004820152601460248201527f4e6565647320746f20626520617070726f7665640000000000000000000000006044820152606401610d81565b61109e87866140ff565b34146110da5760405162461bcd60e51b815260206004820152600b60248201526a57726f6e6720707269636560a81b6044820152606401610d81565b3360009081526101016020526040812080548992906110fa9084906140e7565b909155505033600090815261010160209081526040918290205482518084019093526008835267546f6f206d616e7960c01b918301919091528710156111535760405162461bcd60e51b8152600401610d819190613a40565b5061115e3388612a4e565b600087611169612a98565b611173919061411e565b90508588336001600160a01b03167f4e26b0356a15833a75d497ecc40ebbb716b99466ed0dba9454f1fff451e25a90846040516111b291815260200190565b60405180910390a46001609755979650505050505050565b60fd5460009081906001600160a01b03166111f457505060fd546001600160a01b0316600061122e565b60fd5460fc546001600160a01b03909116906127109061121f90600160e01b900461ffff16866140ff565b6112299190614135565b915091505b9250929050565b600082815260c9602052604090206001015461125081612aa9565b610cb18383612ab3565b6040805161016081018252600080825260208201819052918101829052606081018290526080810182905260a0810182905260c0810182905260e08101829052610100810182905261012081018290526101408101919091526040518061016001604052806112c76129fb565b151581526020016112d6612b55565b1515815260fe54600160881b810467ffffffffffffffff908116602084015260ff5480821660408501526cffffffffffffffffffffffffff83166060850152600160401b810482166080850152600160801b90041660a0830152610100805460c0840152600160681b90910463ffffffff1660e08301520161135b6065546000190190565b815260fc54600160a01b900467ffffffffffffffff16602090910152919050565b6001600160a01b03811633146113fa5760405162461bcd60e51b815260206004820152602f60248201527f416363657373436f6e74726f6c3a2063616e206f6e6c792072656e6f756e636560448201527f20726f6c657320666f722073656c6600000000000000000000000000000000006064820152608401610d81565b6114048282612b8c565b5050565b60026097540361145a5760405162461bcd60e51b815260206004820152601f60248201527f5265656e7472616e637947756172643a207265656e7472616e742063616c6c006044820152606401610d81565b6002609755334760008061146d8361233d565b6001600160a01b03861660009081527f81fe90a866a48a634a12852c1be675b683a22307409932a7443b8029347be7566020526040902054919350915060ff16806114fb57507f0000000000000000000000000000000000000000000000000000000000000000600090815260c9602090815260408083206001600160a01b038816845290915290205460ff165b806115175750816001600160a01b0316846001600160a01b0316145b8061152f575060fd546001600160a01b038581169116145b6115a15760405162461bcd60e51b815260206004820152602560248201527f446f6573206e6f7420686176652070726f70657220726f6c6520746f2077697460448201527f68647261770000000000000000000000000000000000000000000000000000006064820152608401610d81565b80156115c7576115ba6001600160a01b03831682612c0f565b6115c4818461411e565b92505b60fd546115dd906001600160a01b031684612c0f565b505060016097555050565b3360009081527f81fe90a866a48a634a12852c1be675b683a22307409932a7443b8029347be75660205260409020547f00000000000000000000000000000000000000000000000000000000000000009060ff16806116605750600081815260c96020908152604080832033845290915290205460ff165b6116b75760405162461bcd60e51b815260206004820152602260248201527f446f6573206e6f7420686176652070726f70657220726f6c65206f722061646d60448201526134b760f11b6064820152608401610d81565b60fc54600160a01b900467ffffffffffffffff9081161461171a5760405162461bcd60e51b815260206004820152601060248201527f4e6f74206f70656e2065646974696f6e000000000000000000000000000000006044820152606401610d81565b6065546000190160fc805467ffffffffffffffff92909216600160a01b027fffffffff0000000000000000ffffffffffffffffffffffffffffffffffffffff9092169190911790556117693390565b60fc54604051600160a01b90910467ffffffffffffffff1681526001600160a01b0391909116907fb6cc1e876b8d7479c8afe025a58658b0f3c3ec5bd0f28cb4261326b162069bf8906020015b60405180910390a250565b610cb183838360405180602001604052806000815250611937565b610e6c816001612d28565b60006117f282612f12565b5192915050565b60006001600160a01b03821661183b576040517f8f4eb60400000000000000000000000000000000000000000000000000000000815260040160405180910390fd5b506001600160a01b03166000908152606a602052604090205467ffffffffffffffff1690565b600061187560fb546001600160a01b031690565b905090565b606060688054610b1790614097565b336001600160a01b038316036118cb576040517fb06307db00000000000000000000000000000000000000000000000000000000815260040160405180910390fd5b336000818152606c602090815260408083206001600160a01b03871680855290835292819020805460ff191686151590811790915590519081529192917f17307eab39ab6107e8899845ad3d59bd9653f200f220920489ca2b5937696c31910160405180910390a35050565b6119428484846127d8565b6001600160a01b0383163b15158015611964575061196284848484613054565b155b15611982576040516368d2bf6b60e11b815260040160405180910390fd5b50505050565b3360009081527f81fe90a866a48a634a12852c1be675b683a22307409932a7443b8029347be75660205260408120547f00000000000000000000000000000000000000000000000000000000000000009060ff1680611a005750600081815260c96020908152604080832033845290915290205460ff165b611a575760405162461bcd60e51b815260206004820152602260248201527f446f6573206e6f7420686176652070726f70657220726f6c65206f722061646d60448201526134b760f11b6064820152608401610d81565b60fc548390600160a01b900467ffffffffffffffff16611a7a6065546000190190565b611a8490836140e7565b111560405180604001604052806008815260200167546f6f206d616e7960c01b81525090611ac55760405162461bcd60e51b8152600401610d819190613a40565b50606554808581015b80831015611b1457611b098888848603818110611aed57611aed614157565b9050602002016020810190611b029190613abd565b6001612a4e565b600190920191611ace565b50611b1d612a98565b979650505050505050565b60fc546040517fc87b56dd000000000000000000000000000000000000000000000000000000008152600481018390526060916001600160a01b03169063c87b56dd90602401600060405180830381865afa158015611b8b573d6000803e3d6000fd5b505050506040513d6000823e601f3d908101601f19168201604052610b02919081019061416d565b611bd760405180606001604052806000815260200160008152602001600081525090565b6040518060600160405280611c13846001600160a01b03166000908152606a602052604090205467ffffffffffffffff600160401b9091041690565b81526001600160a01b03841660008181526101016020908152604080832054828601819052938352606a9091529081902054920191600160401b900467ffffffffffffffff16611c63919061411e565b905292915050565b600082815260c96020526040902060010154611c8681612aa9565b610cb18383612b8c565b3360009081527f81fe90a866a48a634a12852c1be675b683a22307409932a7443b8029347be75660205260408120547f00000000000000000000000000000000000000000000000000000000000000009060ff1680611d085750600081815260c96020908152604080832033845290915290205460ff165b611d5f5760405162461bcd60e51b815260206004820152602260248201527f446f6573206e6f7420686176652070726f70657220726f6c65206f722061646d60448201526134b760f11b6064820152608401610d81565b60fc548390600160a01b900467ffffffffffffffff16611d826065546000190190565b611d8c90836140e7565b111560405180604001604052806008815260200167546f6f206d616e7960c01b81525090611dcd5760405162461bcd60e51b8152600401610d819190613a40565b50611dd88585612a4e565b611de0612a98565b95945050505050565b60fc54604080517fe8a3d48500000000000000000000000000000000000000000000000000000000815290516060926001600160a01b03169163e8a3d4859160048083019260009291908290030181865afa158015611e4c573d6000803e3d6000fd5b505050506040513d6000823e601f3d908101601f19168201604052611875919081019061416d565b3360009081527f81fe90a866a48a634a12852c1be675b683a22307409932a7443b8029347be756602052604090205460ff16611ef25760405162461bcd60e51b815260206004820152601260248201527f4f6e6c792061646d696e20616c6c6f77656400000000000000000000000000006044820152606401610d81565b805160fe80546020840151604085015167ffffffffffffffff908116600160881b027fffffffffffffff0000000000000000ffffffffffffffffffffffffffffffffff63ffffffff909316600160681b027fffffffffffffffffffffffffffffff00000000000000000000000000000000009094166cffffffffffffffffffffffffff909616959095179290921716929092179055606082015160ff8054608085015160a08601518516600160801b027fffffffffffffffff0000000000000000ffffffffffffffffffffffffffffffff918616600160401b026fffffffffffffffffffffffffffffffff199093169490951693909317179190911691909117905560c0810151610100556120043390565b6001600160a01b03167fedfc3152058860297414f85123415d83eafd8ccc1dc37d9e11d61886071178ac60fe6040516117b691906141db565b60007f00000000000000000000000000000000000000000000000000000000000000006001600160a01b0316826001600160a01b03160361208057506001610b02565b6001600160a01b038084166000908152606c602090815260408083209386168352929052205460ff165b9392505050565b600054610100900460ff166120cc5760005460ff16156120d0565b303b155b6121425760405162461bcd60e51b815260206004820152602e60248201527f496e697469616c697a61626c653a20636f6e747261637420697320616c72656160448201527f647920696e697469616c697a65640000000000000000000000000000000000006064820152608401610d81565b600054610100900460ff16158015612164576000805461ffff19166101011790555b61216e898961313f565b6121766131b4565b61217e613221565b612189600088613294565b6121928761276f565b60fc54611389600160e01b90910461ffff16106122175760405162461bcd60e51b815260206004820152602660248201527f526f79616c7479204250532063616e6e6f74206265206772656174657220746860448201527f616e2035302500000000000000000000000000000000000000000000000000006064820152608401610d81565b60fc80546001600160a01b038581167fffff000000000000000000000000000000000000000000000000000000000000909216600160a01b67ffffffffffffffff8a16027fffff0000ffffffffffffffff000000000000000000000000000000000000000016178217600160e01b61ffff8916021790925560fd805473ffffffffffffffffffffffffffffffffffffffff1916928916929092179091556040517f856a7ffa00000000000000000000000000000000000000000000000000000000815263856a7ffa906122ee908590600401613a40565b600060405180830381600087803b15801561230857600080fd5b505af115801561231c573d6000803e3d6000fd5b505050508015612332576000805461ff00191690555b505050505050505050565b6040517f2e0c16490000000000000000000000000000000000000000000000000000000081523060048201526000908190819081906001600160a01b037f00000000000000000000000000000000000000000000000000000000000000001690632e0c16499060240160408051808303816000875af11580156123c4573d6000803e3d6000fd5b505050506040513d601f19601f820116820180604052508101906123e89190614261565b9092509050816127106123fb83886140ff565b6124059190614135565b935093505050915091565b60006002609754036124645760405162461bcd60e51b815260206004820152601f60248201527f5265656e7472616e637947756172643a207265656e7472616e742063616c6c006044820152606401610d81565b600260975560fc548290600160a01b900467ffffffffffffffff1661248c6065546000190190565b61249690836140e7565b111560405180604001604052806008815260200167546f6f206d616e7960c01b815250906124d75760405162461bcd60e51b8152600401610d819190613a40565b506124e0612b55565b61252c5760405162461bcd60e51b815260206004820152600d60248201527f53616c6520696e616374697665000000000000000000000000000000000000006044820152606401610d81565b60fe546cffffffffffffffffffffffffff1661254884826140ff565b34146125845760405162461bcd60e51b815260206004820152600b60248201526a57726f6e6720707269636560a81b6044820152606401610d81565b60fe543360009081526101016020908152604080832054606a90925290912054600160681b90920463ffffffff16918690600160401b900467ffffffffffffffff166125d091906140e7565b6125da919061411e565b111560405180604001604052806008815260200167546f6f206d616e7960c01b8152509061261b5760405162461bcd60e51b8152600401610d819190613a40565b506126263385612a4e565b600084612631612a98565b61263b919061411e565b90508185336001600160a01b03167f4e26b0356a15833a75d497ecc40ebbb716b99466ed0dba9454f1fff451e25a908460405161267a91815260200190565b60405180910390a46001609755949350505050565b60006001600160e01b031982167f7965db0b000000000000000000000000000000000000000000000000000000001480610b025750610b028261329e565b6000816001111580156126e1575060655482105b8015610b02575050600090815260696020526040902054600160e01b900460ff161590565b6000828152606b6020526040808220805473ffffffffffffffffffffffffffffffffffffffff19166001600160a01b0387811691821790925591518593918516917f8c5be1e5ebec7d5bd14f71427d1e84f3dd0314c0f7b2291e5b200ac8c7c3b92591a4505050565b60fb546040516001600160a01b038084169216907f8be0079c531659141344cd1fd0a4f28419497f9722a3daafe3b4186f6b6457e090600090a360fb805473ffffffffffffffffffffffffffffffffffffffff19166001600160a01b0392909216919091179055565b60006127e382612f12565b9050836001600160a01b031681600001516001600160a01b031614612834576040517fa114810000000000000000000000000000000000000000000000000000000000815260040160405180910390fd5b6000336001600160a01b03861614806128525750612852853361203d565b8061286d57503361286284610b9a565b6001600160a01b0316145b90508061288d57604051632ce44b5f60e11b815260040160405180910390fd5b6001600160a01b0384166128cd576040517fea553b3400000000000000000000000000000000000000000000000000000000815260040160405180910390fd5b6128d960008487612706565b6001600160a01b038581166000908152606a60209081526040808320805467ffffffffffffffff1980821667ffffffffffffffff92831660001901831617909255898616808652838620805493841693831660019081018416949094179055898652606990945282852080546001600160e01b031916909417600160a01b429092169190910217835587018084529220805491939091166129af5760655482146129af578054602086015167ffffffffffffffff16600160a01b026001600160e01b03199091166001600160a01b038a16171781555b50505082846001600160a01b0316866001600160a01b03167fddf252ad1be2c89b69c2b068fc378daa952ba7f163c4a11628f55a4df523b3ef60405160405180910390a45b5050505050565b60ff5460009042600160401b90910467ffffffffffffffff161180159061187557505060ff5442600160801b90910467ffffffffffffffff161190565b600082612a458584613339565b14949350505050565b600060088211612a5e5781612a61565b60085b9050612a7f83826040518060200160405280600081525060006133ad565b612a89818361411e565b91505060008111612a4e575050565b60006001606554611875919061411e565b610e6c81336135ad565b600082815260c9602090815260408083206001600160a01b038516845290915290205460ff1661140457600082815260c9602090815260408083206001600160a01b03851684529091529020805460ff19166001179055612b113390565b6001600160a01b0316816001600160a01b0316837f2f8788117e7eff1d82e926ec794901d17c78024a50270940304540a733656f0d60405160405180910390a45050565b60fe5460009042600160881b90910467ffffffffffffffff161180159061187557505060ff544267ffffffffffffffff9091161190565b600082815260c9602090815260408083206001600160a01b038516845290915290205460ff161561140457600082815260c9602090815260408083206001600160a01b0385168085529252808320805460ff1916905551339285917ff6391f5c32d9c69d2a47ea670b442974b53935d1edc7fd64eb21e047a839171b9190a45050565b80471015612c5f5760405162461bcd60e51b815260206004820152601d60248201527f416464726573733a20696e73756666696369656e742062616c616e63650000006044820152606401610d81565b6000826001600160a01b03168260405160006040518083038185875af1925050503d8060008114612cac576040519150601f19603f3d011682016040523d82523d6000602084013e612cb1565b606091505b5050905080610cb15760405162461bcd60e51b815260206004820152603a60248201527f416464726573733a20756e61626c6520746f2073656e642076616c75652c207260448201527f6563697069656e74206d617920686176652072657665727465640000000000006064820152608401610d81565b6000612d3383612f12565b80519091508215612d99576000336001600160a01b0383161480612d5c5750612d5c823361203d565b80612d77575033612d6c86610b9a565b6001600160a01b0316145b905080612d9757604051632ce44b5f60e11b815260040160405180910390fd5b505b612da560008583612706565b6001600160a01b038082166000818152606a602090815260408083208054600160801b60001967ffffffffffffffff80841691909101811667ffffffffffffffff19841681178390048216600190810183169093027fffffffffffffffff0000000000000000ffffffffffffffff0000000000000000909416179290921783558b8652606990945282852080547fffffff00ffffffffffffffffffffffffffffffffffffffffffffffffffffffff42909316600160a01b026001600160e01b03199091169097179690961716600160e01b178555918901808452922080549194909116612ec7576065548214612ec7578054602087015167ffffffffffffffff16600160a01b026001600160e01b03199091166001600160a01b038716171781555b5050604051869250600091506001600160a01b038416907fddf252ad1be2c89b69c2b068fc378daa952ba7f163c4a11628f55a4df523b3ef908390a450506066805460010190555050565b60408051606081018252600080825260208201819052918101919091528180600111158015612f42575060655481105b1561302257600081815260696020908152604091829020825160608101845290546001600160a01b0381168252600160a01b810467ffffffffffffffff1692820192909252600160e01b90910460ff161515918101829052906130205780516001600160a01b031615612fb6579392505050565b5060001901600081815260696020908152604091829020825160608101845290546001600160a01b038116808352600160a01b820467ffffffffffffffff1693830193909352600160e01b900460ff161515928101929092521561301b579392505050565b612fb6565b505b6040517fdf2d9b4200000000000000000000000000000000000000000000000000000000815260040160405180910390fd5b604051630a85bd0160e11b81526000906001600160a01b0385169063150b7a029061308990339089908890889060040161428f565b6020604051808303816000875af19250505080156130c4575060408051601f3d908101601f191682019092526130c1918101906142cb565b60015b613122573d8080156130f2576040519150601f19603f3d011682016040523d82523d6000602084013e6130f7565b606091505b50805160000361311a576040516368d2bf6b60e11b815260040160405180910390fd5b805181602001fd5b6001600160e01b031916630a85bd0160e11b149050949350505050565b600054610100900460ff166131aa5760405162461bcd60e51b815260206004820152602b60248201527f496e697469616c697a61626c653a20636f6e7472616374206973206e6f74206960448201526a6e697469616c697a696e6760a81b6064820152608401610d81565b611404828261362d565b600054610100900460ff1661321f5760405162461bcd60e51b815260206004820152602b60248201527f496e697469616c697a61626c653a20636f6e7472616374206973206e6f74206960448201526a6e697469616c697a696e6760a81b6064820152608401610d81565b565b600054610100900460ff1661328c5760405162461bcd60e51b815260206004820152602b60248201527f496e697469616c697a61626c653a20636f6e7472616374206973206e6f74206960448201526a6e697469616c697a696e6760a81b6064820152608401610d81565b61321f6136c9565b6114048282612ab3565b60006001600160e01b031982167f80ac58cd00000000000000000000000000000000000000000000000000000000148061330157506001600160e01b031982167f5b5e139f00000000000000000000000000000000000000000000000000000000145b80610b0257507f01ffc9a7000000000000000000000000000000000000000000000000000000006001600160e01b0319831614610b02565b600081815b84518110156133a557600085828151811061335b5761335b614157565b602002602001015190508083116133815760008381526020829052604090209250613392565b600081815260208490526040902092505b508061339d816142e8565b91505061333e565b509392505050565b6065546001600160a01b0385166133f0576040517f2e07630000000000000000000000000000000000000000000000000000000000815260040160405180910390fd5b8360000361342a576040517fb562e8dd00000000000000000000000000000000000000000000000000000000815260040160405180910390fd5b6001600160a01b0385166000818152606a6020908152604080832080546fffffffffffffffffffffffffffffffff19811667ffffffffffffffff8083168c018116918217600160401b67ffffffffffffffff1990941690921783900481168c01811690920217909155858452606990925290912080546001600160e01b031916909217600160a01b4290921691909102179055808085018380156134d757506001600160a01b0387163b15155b1561355f575b60405182906001600160a01b038916906000907fddf252ad1be2c89b69c2b068fc378daa952ba7f163c4a11628f55a4df523b3ef908290a46135286000888480600101955088613054565b613545576040516368d2bf6b60e11b815260040160405180910390fd5b8082036134dd57826065541461355a57600080fd5b6135a4565b5b6040516001830192906001600160a01b038916906000907fddf252ad1be2c89b69c2b068fc378daa952ba7f163c4a11628f55a4df523b3ef908290a4808203613560575b506065556129f4565b600082815260c9602090815260408083206001600160a01b038516845290915290205460ff16611404576135eb816001600160a01b0316601461373b565b6135f683602061373b565b604051602001613607929190614301565b60408051601f198184030181529082905262461bcd60e51b8252610d8191600401613a40565b600054610100900460ff166136985760405162461bcd60e51b815260206004820152602b60248201527f496e697469616c697a61626c653a20636f6e7472616374206973206e6f74206960448201526a6e697469616c697a696e6760a81b6064820152608401610d81565b81516136ab90606790602085019061391c565b5080516136bf90606890602084019061391c565b5060016065555050565b600054610100900460ff166137345760405162461bcd60e51b815260206004820152602b60248201527f496e697469616c697a61626c653a20636f6e7472616374206973206e6f74206960448201526a6e697469616c697a696e6760a81b6064820152608401610d81565b6001609755565b6060600061374a8360026140ff565b6137559060026140e7565b67ffffffffffffffff81111561376d5761376d613d11565b6040519080825280601f01601f191660200182016040528015613797576020820181803683370190505b5090507f3000000000000000000000000000000000000000000000000000000000000000816000815181106137ce576137ce614157565b60200101906001600160f81b031916908160001a9053507f78000000000000000000000000000000000000000000000000000000000000008160018151811061381957613819614157565b60200101906001600160f81b031916908160001a905350600061383d8460026140ff565b6138489060016140e7565b90505b60018111156138cd577f303132333435363738396162636465660000000000000000000000000000000085600f166010811061388957613889614157565b1a60f81b82828151811061389f5761389f614157565b60200101906001600160f81b031916908160001a90535060049490941c936138c681614382565b905061384b565b5083156120aa5760405162461bcd60e51b815260206004820181905260248201527f537472696e67733a20686578206c656e67746820696e73756666696369656e746044820152606401610d81565b82805461392890614097565b90600052602060002090601f01602090048101928261394a5760008555613990565b82601f1061396357805160ff1916838001178555613990565b82800160010185558215613990579182015b82811115613990578251825591602001919060010190613975565b5061399c9291506139a0565b5090565b5b8082111561399c57600081556001016139a1565b6001600160e01b031981168114610e6c57600080fd5b6000602082840312156139dd57600080fd5b81356120aa816139b5565b60005b83811015613a035781810151838201526020016139eb565b838111156119825750506000910152565b60008151808452613a2c8160208601602086016139e8565b601f01601f19169290920160200192915050565b6020815260006120aa6020830184613a14565b600060208284031215613a6557600080fd5b5035919050565b6001600160a01b0381168114610e6c57600080fd5b8035613a8c81613a6c565b919050565b60008060408385031215613aa457600080fd5b8235613aaf81613a6c565b946020939093013593505050565b600060208284031215613acf57600080fd5b81356120aa81613a6c565b600080600060608486031215613aef57600080fd5b8335613afa81613a6c565b92506020840135613b0a81613a6c565b929592945050506040919091013590565b60008083601f840112613b2d57600080fd5b50813567ffffffffffffffff811115613b4557600080fd5b6020830191508360208260051b850101111561122e57600080fd5b600080600080600060808688031215613b7857600080fd5b853594506020860135935060408601359250606086013567ffffffffffffffff811115613ba457600080fd5b613bb088828901613b1b565b969995985093965092949392505050565b60008060408385031215613bd457600080fd5b50508035926020909101359150565b60008060408385031215613bf657600080fd5b823591506020830135613c0881613a6c565b809150509250929050565b81511515815261016081016020830151613c31602084018215159052565b506040830151613c4d604084018267ffffffffffffffff169052565b506060830151613c69606084018267ffffffffffffffff169052565b506080830151608083015260a0830151613c8f60a084018267ffffffffffffffff169052565b5060c0830151613cab60c084018267ffffffffffffffff169052565b5060e083810151908301526101008084015190830152610120808401519083015261014092830151929091019190915290565b60008060408385031215613cf157600080fd5b8235613cfc81613a6c565b915060208301358015158114613c0857600080fd5b634e487b7160e01b600052604160045260246000fd5b60405160e0810167ffffffffffffffff81118282101715613d4a57613d4a613d11565b60405290565b604051601f8201601f1916810167ffffffffffffffff81118282101715613d7957613d79613d11565b604052919050565b600067ffffffffffffffff821115613d9b57613d9b613d11565b50601f01601f191660200190565b600082601f830112613dba57600080fd5b8135613dcd613dc882613d81565b613d50565b818152846020838601011115613de257600080fd5b816020850160208301376000918101602001919091529392505050565b60008060008060808587031215613e1557600080fd5b8435613e2081613a6c565b93506020850135613e3081613a6c565b925060408501359150606085013567ffffffffffffffff811115613e5357600080fd5b613e5f87828801613da9565b91505092959194509250565b60008060208385031215613e7e57600080fd5b823567ffffffffffffffff811115613e9557600080fd5b613ea185828601613b1b565b90969095509350505050565b803563ffffffff81168114613a8c57600080fd5b803567ffffffffffffffff81168114613a8c57600080fd5b600060e08284031215613eeb57600080fd5b613ef3613d27565b82356cffffffffffffffffffffffffff81168114613f1057600080fd5b8152613f1e60208401613ead565b6020820152613f2f60408401613ec1565b6040820152613f4060608401613ec1565b6060820152613f5160808401613ec1565b6080820152613f6260a08401613ec1565b60a082015260c083013560c08201528091505092915050565b60008060408385031215613f8e57600080fd5b8235613f9981613a6c565b91506020830135613c0881613a6c565b803561ffff81168114613a8c57600080fd5b600080600080600080600080610100898b031215613fd857600080fd5b883567ffffffffffffffff80821115613ff057600080fd5b613ffc8c838d01613da9565b995060208b013591508082111561401257600080fd5b61401e8c838d01613da9565b985061402c60408c01613a81565b975061403a60608c01613a81565b965061404860808c01613ec1565b955061405660a08c01613fa9565b945061406460c08c01613a81565b935060e08b013591508082111561407a57600080fd5b506140878b828c01613da9565b9150509295985092959890939650565b600181811c908216806140ab57607f821691505b6020821081036140cb57634e487b7160e01b600052602260045260246000fd5b50919050565b634e487b7160e01b600052601160045260246000fd5b600082198211156140fa576140fa6140d1565b500190565b6000816000190483118215151615614119576141196140d1565b500290565b600082821015614130576141306140d1565b500390565b60008261415257634e487b7160e01b600052601260045260246000fd5b500490565b634e487b7160e01b600052603260045260246000fd5b60006020828403121561417f57600080fd5b815167ffffffffffffffff81111561419657600080fd5b8201601f810184136141a757600080fd5b80516141b5613dc882613d81565b8181528560208385010111156141ca57600080fd5b611de08260208301602086016139e8565b600060e08201905082546cffffffffffffffffffffffffff8116835263ffffffff8160681c16602084015267ffffffffffffffff808260881c166040850152600185015491508082166060850152808260401c16608085015261424f60a08501828460801c1667ffffffffffffffff169052565b5050600283015460c083015292915050565b6000806040838503121561427457600080fd5b825161427f81613a6c565b6020939093015192949293505050565b60006001600160a01b038087168352808616602084015250836040830152608060608301526142c16080830184613a14565b9695505050505050565b6000602082840312156142dd57600080fd5b81516120aa816139b5565b6000600182016142fa576142fa6140d1565b5060010190565b7f416363657373436f6e74726f6c3a206163636f756e74200000000000000000008152600083516143398160178501602088016139e8565b7f206973206d697373696e6720726f6c652000000000000000000000000000000060179184019182015283516143768160288401602088016139e8565b01602801949350505050565b600081614391576143916140d1565b50600019019056fea264697066735822122023a63e2ab569a65cbfcccdca3ef934ef7367e040f7442eca3bda0bd8807c6e0664736f6c634300080d0033",
    "linkReferences": {}
  },
  "methodIdentifiers": {
    "DEFAULT_ADMIN_ROLE()": "a217fddf",
    "MINTER_ROLE()": "d5391393",
    "SALES_MANAGER_ROLE()": "e26bd343",
    "adminMint(address,uint256)": "e58306f9",
    "adminMintAirdrop(address[])": "b8ae5a2c",
    "approve(address,uint256)": "095ea7b3",
    "balanceOf(address)": "70a08231",
    "burn(uint256)": "42966c68",
    "config()": "79502c55",
    "contractURI()": "e8a3d485",
    "contractVersion()": "a0a8e460",
    "finalizeOpenEdition()": "41e96eb1",
    "getApproved(uint256)": "081812fc",
    "getRoleAdmin(bytes32)": "248a9ca3",
    "grantRole(bytes32,address)": "2f2ff15d",
    "hasRole(bytes32,address)": "91d14854",
    "initialize(string,string,address,address,uint64,uint16,address,bytes)": "ed55a76d",
    "isAdmin(address)": "24d7806c",
    "isApprovedForAll(address,address)": "e985e9c5",
    "metadataRenderer()": "70319970",
    "mintedPerAddress(address)": "d445b978",
    "name()": "06fdde03",
    "owner()": "8da5cb5b",
    "ownerOf(uint256)": "6352211e",
    "presaleMintsByAddress(address)": "61fea768",
    "purchase(uint256)": "efef39a1",
    "purchasePresale(uint256,uint256,uint256,bytes32[])": "25024a2b",
    "renounceRole(bytes32,address)": "36568abe",
    "revokeRole(bytes32,address)": "d547741f",
    "royaltyInfo(uint256,uint256)": "2a55205a",
    "safeTransferFrom(address,address,uint256)": "42842e0e",
    "safeTransferFrom(address,address,uint256,bytes)": "b88d4fde",
    "saleDetails()": "3474a4a6",
    "salesConfig()": "1d2c0b38",
    "setApprovalForAll(address,bool)": "a22cb465",
    "setDropSaleConfiguration((uint104,uint32,uint64,uint64,uint64,uint64,bytes32))": "e8f5d786",
    "setFundsRecipient(address)": "10a7eb5d",
    "setOwner(address)": "13af4035",
    "supportsInterface(bytes4)": "01ffc9a7",
    "symbol()": "95d89b41",
    "tokenURI(uint256)": "c87b56dd",
    "totalSupply()": "18160ddd",
    "transferFrom(address,address,uint256)": "23b872dd",
    "withdraw()": "3ccfd60b",
    "zoraFeeForAmount(uint256)": "ee37be39",
    "zoraFeeManager()": "b6eb9c86"
  },
  "userdoc": {
    "version": 1,
    "kind": "user",
    "methods": {
      "MINTER_ROLE()": {
        "notice": "Access control roles"
      },
      "adminMint(address,uint256)": {
        "notice": "Mint admin"
      },
      "burn(uint256)": {
        "notice": "User burn function for token id"
      },
      "config()": {
        "notice": "Configuration for NFT minting contract storage"
      },
      "constructor": {
        "notice": "Global constructor these variables will not change with further proxy deploys"
      },
      "contractURI()": {
        "notice": "Contract URI Getter, proxies to metadataRenderer"
      },
      "finalizeOpenEdition()": {
        "notice": "Admin function to finalize and open edition sale"
      },
      "metadataRenderer()": {
        "notice": "Getter for metadataRenderer contract"
      },
      "owner()": {
        "notice": "Simple override for owner interface."
      },
      "purchasePresale(uint256,uint256,uint256,bytes32[])": {
        "notice": "Merkle-tree based presale purchase function"
      },
      "saleDetails()": {
        "notice": "Sale details"
      },
      "salesConfig()": {
        "notice": "Sales configuration"
      },
      "supportsInterface(bytes4)": {
        "notice": "ERC165 supports interface"
      },
      "tokenURI(uint256)": {
        "notice": "Token URI Getter, proxies to metadataRenderer"
      }
    },
    "notice": "ZORA NFT Base contract for Drops and Editions"
  },
  "devdoc": {
    "version": 1,
    "kind": "dev",
    "author": "iain@zora.co",
    "details": "For drops: assumes 1. linear mint order, 2. max number of mints needs to be less than max_uint64       (if you have more than 18 quintillion linear mints you should probably not be using this contract)",
    "methods": {
      "adminMint(address,uint256)": {
        "params": {
          "quantity": "quantity to mint",
          "recipient": "recipient to mint to"
        }
      },
      "adminMintAirdrop(address[])": {
        "details": "This mints multiple editions to the given list of addresses.",
        "params": {
          "recipients": "list of addresses to send the newly minted editions to"
        }
      },
      "approve(address,uint256)": {
        "details": "See {IERC721-approve}."
      },
      "balanceOf(address)": {
        "details": "See {IERC721-balanceOf}."
      },
      "burn(uint256)": {
        "params": {
          "tokenId": "Token ID to burn"
        }
      },
      "constructor": {
        "params": {
          "_zoraERC721TransferHelper": "Transfer helper",
          "_zoraFeeManager": "Zora Fee Manager"
        }
      },
      "contractURI()": {},
      "contractVersion()": {
        "details": "Returns the version of the contract."
      },
      "getApproved(uint256)": {
        "details": "See {IERC721-getApproved}."
      },
      "getRoleAdmin(bytes32)": {
        "details": "Returns the admin role that controls `role`. See {grantRole} and {revokeRole}. To change a role's admin, use {_setRoleAdmin}."
      },
      "grantRole(bytes32,address)": {
        "details": "Grants `role` to `account`. If `account` had not been already granted `role`, emits a {RoleGranted} event. Requirements: - the caller must have ``role``'s admin role."
      },
      "hasRole(bytes32,address)": {
        "details": "Returns `true` if `account` has been granted `role`."
      },
      "initialize(string,string,address,address,uint64,uint16,address,bytes)": {
        "details": "Create a new drop",
        "params": {
          "_contractName": "Contract name",
          "_contractSymbol": "Contract symbol",
          "_editionSize": "Number of editions that can be minted in total. If 0, unlimited editions can be minted.",
          "_fundsRecipient": "Wallet/user that receives funds from sale",
          "_initialOwner": "User that owns and can mint the edition, gets royalty and sales payouts and can update the base url if needed.",
          "_royaltyBPS": "BPS of the royalty set on the contract. Can be 0 for no royalty."
        }
      },
      "isAdmin(address)": {
        "details": "Getter for admin role associated with the contract to handle metadata"
      },
      "isApprovedForAll(address,address)": {
        "details": "Setup auto-approval for Zora v3 access to sell NFT      Still requires approval for module",
        "params": {
          "nftOwner": "owner of the nft",
          "operator": "operator wishing to transfer/burn/etc the NFTs"
        }
      },
      "mintedPerAddress(address)": {
        "details": "Number of NFTs the user has minted per address",
        "params": {
          "minter": "to get counts for"
        }
      },
      "name()": {
        "details": "See {IERC721Metadata-name}."
      },
      "owner()": {},
      "ownerOf(uint256)": {
        "details": "See {IERC721-ownerOf}."
      },
      "purchase(uint256)": {
        "details": "This allows the user to purchase a edition edition at the given price in the contract."
      },
      "purchasePresale(uint256,uint256,uint256,bytes32[])": {
        "params": {
          "maxQuantity": "max quantity that can be purchased via merkle proof #",
          "merkleProof": "proof for presale mint",
          "pricePerToken": "price that each token is purchased at",
          "quantity": "quantity to purchase"
        }
      },
      "renounceRole(bytes32,address)": {
        "details": "Revokes `role` from the calling account. Roles are often managed via {grantRole} and {revokeRole}: this function's purpose is to provide a mechanism for accounts to lose their privileges if they are compromised (such as when a trusted device is misplaced). If the calling account had been revoked `role`, emits a {RoleRevoked} event. Requirements: - the caller must be `account`."
      },
      "revokeRole(bytes32,address)": {
        "details": "Revokes `role` from `account`. If `account` had been granted `role`, emits a {RoleRevoked} event. Requirements: - the caller must have ``role``'s admin role."
      },
      "royaltyInfo(uint256,uint256)": {
        "details": "Get royalty information for token",
        "params": {
          "_salePrice": "Sale price for the token"
        }
      },
      "safeTransferFrom(address,address,uint256)": {
        "details": "See {IERC721-safeTransferFrom}."
      },
      "safeTransferFrom(address,address,uint256,bytes)": {
        "details": "See {IERC721-safeTransferFrom}."
      },
      "saleDetails()": {},
      "setApprovalForAll(address,bool)": {
        "details": "See {IERC721-setApprovalForAll}."
      },
      "setDropSaleConfiguration((uint104,uint32,uint64,uint64,uint64,uint64,bytes32))": {
        "details": "This sets the sales configuration",
        "params": {
          "newConfig": "new configuration to set for sales information"
        }
      },
      "setFundsRecipient(address)": {
        "details": "Set a different funds recipient",
        "params": {
          "newRecipientAddress": "new funds recipient address"
        }
      },
      "setOwner(address)": {
        "details": "Set new owner for royalties / opensea",
        "params": {
          "newOwner": "new owner to set"
        }
      },
      "supportsInterface(bytes4)": {
        "params": {
          "interfaceId": "interface id to check if supported"
        }
      },
      "symbol()": {
        "details": "See {IERC721Metadata-symbol}."
      },
      "tokenURI(uint256)": {
        "params": {
          "tokenId": "id of token to get URI for"
        }
      },
      "totalSupply()": {
        "details": "Burned tokens are calculated here, use _totalMinted() if you want to count just minted tokens."
      },
      "transferFrom(address,address,uint256)": {
        "details": "See {IERC721-transferFrom}."
      },
      "withdraw()": {
        "details": "This withdraws ETH from the contract to the contract owner."
      },
      "zoraFeeForAmount(uint256)": {
        "details": "Gets the zora fee for amount of withdraw",
        "params": {
          "amount": "amount of funds to get fee for"
        }
      }
    }
  }
}